{
  "contractName": "PriceOracle",
  "abi": [
    {
      "inputs": [
        {
          "internalType": "uint256",
          "name": "_initialPrice",
          "type": "uint256"
        }
      ],
      "stateMutability": "nonpayable",
      "type": "constructor"
    },
    {
      "anonymous": false,
      "inputs": [
        {
          "indexed": false,
          "internalType": "uint256",
          "name": "newPrice",
          "type": "uint256"
        },
        {
          "indexed": false,
          "internalType": "uint256",
          "name": "timestamp",
          "type": "uint256"
        }
      ],
      "name": "PriceUpdated",
      "type": "event"
    },
    {
      "inputs": [],
      "name": "ethPriceInEur",
      "outputs": [
        {
          "internalType": "uint256",
          "name": "",
          "type": "uint256"
        }
      ],
      "stateMutability": "view",
      "type": "function",
      "constant": true
    },
    {
      "inputs": [],
      "name": "lastUpdated",
      "outputs": [
        {
          "internalType": "uint256",
          "name": "",
          "type": "uint256"
        }
      ],
      "stateMutability": "view",
      "type": "function",
      "constant": true
    },
    {
      "inputs": [],
      "name": "owner",
      "outputs": [
        {
          "internalType": "address",
          "name": "",
          "type": "address"
        }
      ],
      "stateMutability": "view",
      "type": "function",
      "constant": true
    },
    {
      "inputs": [
        {
          "internalType": "uint256",
          "name": "_newPrice",
          "type": "uint256"
        }
      ],
      "name": "updatePrice",
      "outputs": [],
      "stateMutability": "nonpayable",
      "type": "function"
    },
    {
      "inputs": [],
      "name": "getETHPriceInEur",
      "outputs": [
        {
          "internalType": "uint256",
          "name": "",
          "type": "uint256"
        }
      ],
      "stateMutability": "view",
      "type": "function",
      "constant": true
    },
    {
      "inputs": [
        {
          "internalType": "uint256",
          "name": "eurAmount",
          "type": "uint256"
        }
      ],
      "name": "convertEurToWei",
      "outputs": [
        {
          "internalType": "uint256",
          "name": "",
          "type": "uint256"
        }
      ],
      "stateMutability": "view",
      "type": "function",
      "constant": true
    },
    {
      "inputs": [
        {
          "internalType": "uint256",
          "name": "weiAmount",
          "type": "uint256"
        }
      ],
      "name": "convertWeiToEur",
      "outputs": [
        {
          "internalType": "uint256",
          "name": "",
          "type": "uint256"
        }
      ],
      "stateMutability": "view",
      "type": "function",
      "constant": true
    }
  ],
  "bytecode": "0x608060405234801561001057600080fd5b5060405161077c38038061077c8339818101604052810190610032919061009b565b336000806101000a81548173ffffffffffffffffffffffffffffffffffffffff021916908373ffffffffffffffffffffffffffffffffffffffff1602179055508060018190555042600281905550506100e5565b600081519050610095816100ce565b92915050565b6000602082840312156100ad57600080fd5b60006100bb84828501610086565b91505092915050565b6000819050919050565b6100d7816100c4565b81146100e257600080fd5b50565b610688806100f46000396000f3fe608060405234801561001057600080fd5b506004361061007d5760003560e01c8063a17a97fc1161005b578063a17a97fc146100da578063b69d2bba1461010a578063ccb77a8a14610128578063d0b06f5d146101585761007d565b80638d6cc56d146100825780638da5cb5b1461009e5780639f36b485146100bc575b600080fd5b61009c60048036038101906100979190610379565b610176565b005b6100a661024e565b6040516100b39190610466565b60405180910390f35b6100c4610272565b6040516100d191906104c1565b60405180910390f35b6100f460048036038101906100ef9190610379565b610278565b60405161010191906104c1565b60405180910390f35b6101126102e6565b60405161011f91906104c1565b60405180910390f35b610142600480360381019061013d9190610379565b6102f0565b60405161014f91906104c1565b60405180910390f35b61016061035e565b60405161016d91906104c1565b60405180910390f35b60008054906101000a900473ffffffffffffffffffffffffffffffffffffffff1673ffffffffffffffffffffffffffffffffffffffff163373ffffffffffffffffffffffffffffffffffffffff1614610204576040517f08c379a00000000000000000000000000000000000000000000000000000000081526004016101fb90610481565b60405180910390fd5b80600181905550426002819055507f945c1c4e99aa89f648fbfe3df471b916f719e16d960fcec0737d4d56bd69683881426040516102439291906104dc565b60405180910390a150565b60008054906101000a900473ffffffffffffffffffffffffffffffffffffffff1681565b60015481565b600080600154116102be576040517f08c379a00000000000000000000000000000000000000000000000000000000081526004016102b5906104a1565b60405180910390fd5b600154670de0b6b3a7640000836102d59190610547565b6102df9190610516565b9050919050565b6000600154905090565b60008060015411610336576040517f08c379a000000000000000000000000000000000000000000000000000000000815260040161032d906104a1565b60405180910390fd5b670de0b6b3a76400006001548361034d9190610547565b6103579190610516565b9050919050565b60025481565b6000813590506103738161063b565b92915050565b60006020828403121561038b57600080fd5b600061039984828501610364565b91505092915050565b6103ab816105a1565b82525050565b60006103be602183610505565b91507f4f6e6c79206f776e65722063616e2063616c6c20746869732066756e6374696f60008301527f6e000000000000000000000000000000000000000000000000000000000000006020830152604082019050919050565b6000610424601183610505565b91507f455448207072696365206e6f74207365740000000000000000000000000000006000830152602082019050919050565b610460816105d3565b82525050565b600060208201905061047b60008301846103a2565b92915050565b6000602082019050818103600083015261049a816103b1565b9050919050565b600060208201905081810360008301526104ba81610417565b9050919050565b60006020820190506104d66000830184610457565b92915050565b60006040820190506104f16000830185610457565b6104fe6020830184610457565b9392505050565b600082825260208201905092915050565b6000610521826105d3565b915061052c836105d3565b92508261053c5761053b61060c565b5b828204905092915050565b6000610552826105d3565b915061055d836105d3565b9250817fffffffffffffffffffffffffffffffffffffffffffffffffffffffffffffffff0483118215151615610596576105956105dd565b5b828202905092915050565b60006105ac826105b3565b9050919050565b600073ffffffffffffffffffffffffffffffffffffffff82169050919050565b6000819050919050565b7f4e487b7100000000000000000000000000000000000000000000000000000000600052601160045260246000fd5b7f4e487b7100000000000000000000000000000000000000000000000000000000600052601260045260246000fd5b610644816105d3565b811461064f57600080fd5b5056fea2646970667358221220906d9e6aab8e6cf1d020bb00bd1409effc4aa3e9c6f4a8e9df6db802a758e8b464736f6c63430008000033",
  "immutableReferences": {},
  "source": "pragma solidity ^0.8.0;\r\n\r\ncontract PriceOracle {\r\n    address public owner;\r\n    uint public ethPriceInEur;\r\n    uint public lastUpdated;\r\n    \r\n    event PriceUpdated(uint newPrice, uint timestamp);\r\n    \r\n    modifier onlyOwner() {\r\n        require(msg.sender == owner, \"Only owner can call this function\");\r\n        _;\r\n    }\r\n    \r\n    constructor(uint _initialPrice) {\r\n        owner = msg.sender;\r\n        ethPriceInEur = _initialPrice;\r\n        lastUpdated = block.timestamp;\r\n    }\r\n    \r\n    function updatePrice(uint _newPrice) external onlyOwner {\r\n        ethPriceInEur = _newPrice;\r\n        lastUpdated = block.timestamp;\r\n        emit PriceUpdated(_newPrice, block.timestamp);\r\n    }\r\n    \r\n    function getETHPriceInEur() external view returns (uint) {\r\n        return ethPriceInEur;\r\n    }\r\n    \r\n    function convertEurToWei(uint eurAmount) external view returns (uint) {\r\n        require(ethPriceInEur > 0, \"ETH price not set\");\r\n        return (eurAmount * 1 ether) / ethPriceInEur;\r\n    }\r\n    \r\n    function convertWeiToEur(uint weiAmount) external view returns (uint) {\r\n        require(ethPriceInEur > 0, \"ETH price not set\");\r\n        return (weiAmount * ethPriceInEur) / 1 ether;\r\n    }\r\n}\r\n",
  "sourcePath": "/home/cavas/simple-rent-contract/contracts/PriceOracle.sol",
  "compiler": {
    "name": "solc",
    "version": "0.8.0+commit.c7dfd78e.Emscripten.clang"
  },
  "schemaVersion": "3.4.16",
  "updatedAt": "2025-06-20T10:04:30.405Z",
  "networkType": "ethereum",
  "devdoc": {
    "kind": "dev",
    "methods": {},
    "version": 1
  },
  "userdoc": {
    "kind": "user",
    "methods": {},
    "version": 1
  }
}