{
  "contractName": "PriceOracle",
  "abi": [
    {
      "inputs": [
        {
          "internalType": "uint256",
          "name": "_initialPrice",
          "type": "uint256"
        }
      ],
      "stateMutability": "nonpayable",
      "type": "constructor"
    },
    {
      "anonymous": false,
      "inputs": [
        {
          "indexed": false,
          "internalType": "uint256",
          "name": "newPrice",
          "type": "uint256"
        },
        {
          "indexed": false,
          "internalType": "uint256",
          "name": "timestamp",
          "type": "uint256"
        }
      ],
      "name": "PriceUpdated",
      "type": "event"
    },
    {
      "inputs": [],
      "name": "ethPriceInEur",
      "outputs": [
        {
          "internalType": "uint256",
          "name": "",
          "type": "uint256"
        }
      ],
      "stateMutability": "view",
      "type": "function",
      "constant": true
    },
    {
      "inputs": [],
      "name": "lastUpdated",
      "outputs": [
        {
          "internalType": "uint256",
          "name": "",
          "type": "uint256"
        }
      ],
      "stateMutability": "view",
      "type": "function",
      "constant": true
    },
    {
      "inputs": [],
      "name": "owner",
      "outputs": [
        {
          "internalType": "address",
          "name": "",
          "type": "address"
        }
      ],
      "stateMutability": "view",
      "type": "function",
      "constant": true
    },
    {
      "inputs": [
        {
          "internalType": "uint256",
          "name": "_newPrice",
          "type": "uint256"
        }
      ],
      "name": "updatePrice",
      "outputs": [],
      "stateMutability": "nonpayable",
      "type": "function"
    },
    {
      "inputs": [
        {
          "internalType": "uint256",
          "name": "eurAmount",
          "type": "uint256"
        }
      ],
      "name": "convertEurToWei",
      "outputs": [
        {
          "internalType": "uint256",
          "name": "",
          "type": "uint256"
        }
      ],
      "stateMutability": "view",
      "type": "function",
      "constant": true
    }
  ],
  "bytecode": "0x608060405234801561001057600080fd5b506040516106903803806106908339818101604052810190610032919061009b565b336000806101000a81548173ffffffffffffffffffffffffffffffffffffffff021916908373ffffffffffffffffffffffffffffffffffffffff1602179055508060018190555042600281905550506100e5565b600081519050610095816100ce565b92915050565b6000602082840312156100ad57600080fd5b60006100bb84828501610086565b91505092915050565b6000819050919050565b6100d7816100c4565b81146100e257600080fd5b50565b61059c806100f46000396000f3fe608060405234801561001057600080fd5b50600436106100575760003560e01c80638d6cc56d1461005c5780638da5cb5b146100785780639f36b48514610096578063a17a97fc146100b4578063d0b06f5d146100e4575b600080fd5b6100766004803603810190610071919061028d565b610102565b005b6100806101da565b60405161008d919061037a565b60405180910390f35b61009e6101fe565b6040516100ab91906103d5565b60405180910390f35b6100ce60048036038101906100c9919061028d565b610204565b6040516100db91906103d5565b60405180910390f35b6100ec610272565b6040516100f991906103d5565b60405180910390f35b60008054906101000a900473ffffffffffffffffffffffffffffffffffffffff1673ffffffffffffffffffffffffffffffffffffffff163373ffffffffffffffffffffffffffffffffffffffff1614610190576040517f08c379a000000000000000000000000000000000000000000000000000000000815260040161018790610395565b60405180910390fd5b80600181905550426002819055507f945c1c4e99aa89f648fbfe3df471b916f719e16d960fcec0737d4d56bd69683881426040516101cf9291906103f0565b60405180910390a150565b60008054906101000a900473ffffffffffffffffffffffffffffffffffffffff1681565b60015481565b6000806001541161024a576040517f08c379a0000000000000000000000000000000000000000000000000000000008152600401610241906103b5565b60405180910390fd5b600154670de0b6b3a764000083610261919061045b565b61026b919061042a565b9050919050565b60025481565b6000813590506102878161054f565b92915050565b60006020828403121561029f57600080fd5b60006102ad84828501610278565b91505092915050565b6102bf816104b5565b82525050565b60006102d2602183610419565b91507f4f6e6c79206f776e65722063616e2063616c6c20746869732066756e6374696f60008301527f6e000000000000000000000000000000000000000000000000000000000000006020830152604082019050919050565b6000610338601883610419565b91507f56616c6f726520455448206e6f6e20696d706f737461746f00000000000000006000830152602082019050919050565b610374816104e7565b82525050565b600060208201905061038f60008301846102b6565b92915050565b600060208201905081810360008301526103ae816102c5565b9050919050565b600060208201905081810360008301526103ce8161032b565b9050919050565b60006020820190506103ea600083018461036b565b92915050565b6000604082019050610405600083018561036b565b610412602083018461036b565b9392505050565b600082825260208201905092915050565b6000610435826104e7565b9150610440836104e7565b9250826104505761044f610520565b5b828204905092915050565b6000610466826104e7565b9150610471836104e7565b9250817fffffffffffffffffffffffffffffffffffffffffffffffffffffffffffffffff04831182151516156104aa576104a96104f1565b5b828202905092915050565b60006104c0826104c7565b9050919050565b600073ffffffffffffffffffffffffffffffffffffffff82169050919050565b6000819050919050565b7f4e487b7100000000000000000000000000000000000000000000000000000000600052601160045260246000fd5b7f4e487b7100000000000000000000000000000000000000000000000000000000600052601260045260246000fd5b610558816104e7565b811461056357600080fd5b5056fea2646970667358221220afc3b5d27fb642d3346879984897ab98752e0662b3d10660cafc2df4e1e6e43c64736f6c63430008000033",
  "immutableReferences": {},
  "source": "// SPDX-License-Identifier: MIT\r\npragma solidity ^0.8.0;\r\n\r\ncontract PriceOracle {\r\n    address public owner;\r\n    uint public ethPriceInEur;\r\n    uint public lastUpdated;\r\n    \r\n    event PriceUpdated(uint newPrice, uint timestamp);\r\n    \r\n    modifier onlyOwner() {\r\n        require(msg.sender == owner, \"Only owner can call this function\");\r\n        _;\r\n    }\r\n    \r\n    constructor(uint _initialPrice) {\r\n        owner = msg.sender;\r\n        ethPriceInEur = _initialPrice;\r\n        lastUpdated = block.timestamp;\r\n    }\r\n    \r\n    function updatePrice(uint _newPrice) external onlyOwner {\r\n        ethPriceInEur = _newPrice;\r\n        lastUpdated = block.timestamp;\r\n        emit PriceUpdated(_newPrice, block.timestamp);\r\n    }\r\n      function convertEurToWei(uint eurAmount) external view returns (uint) {\r\n        require(ethPriceInEur > 0, \"Valore ETH non impostato\");\r\n        return (eurAmount * 1 ether) / ethPriceInEur;\r\n    }\r\n}\r\n",
  "sourcePath": "/home/cavas/simple-rent-contract/contracts/PriceOracle.sol",
  "compiler": {
    "name": "solc",
    "version": "0.8.0+commit.c7dfd78e.Emscripten.clang"
  },
  "schemaVersion": "3.4.16",
  "updatedAt": "2025-06-21T13:54:23.067Z",
  "networkType": "ethereum",
  "devdoc": {
    "kind": "dev",
    "methods": {},
    "version": 1
  },
  "userdoc": {
    "kind": "user",
    "methods": {},
    "version": 1
  }
}