{
  "contractName": "RentContract",
  "abi": [
    {
      "inputs": [
        {
          "internalType": "address",
          "name": "_landlord",
          "type": "address"
        },
        {
          "internalType": "address",
          "name": "_tenant1",
          "type": "address"
        },
        {
          "internalType": "address",
          "name": "_tenant2",
          "type": "address"
        },
        {
          "internalType": "uint256",
          "name": "_rentAmountEur",
          "type": "uint256"
        },
        {
          "internalType": "address",
          "name": "_timeOracle",
          "type": "address"
        },
        {
          "internalType": "address",
          "name": "_priceOracle",
          "type": "address"
        }
      ],
      "stateMutability": "nonpayable",
      "type": "constructor"
    },
    {
      "anonymous": false,
      "inputs": [
        {
          "indexed": false,
          "internalType": "uint256",
          "name": "month",
          "type": "uint256"
        },
        {
          "indexed": false,
          "internalType": "address",
          "name": "tenant",
          "type": "address"
        }
      ],
      "name": "MonthlyAccessGranted",
      "type": "event"
    },
    {
      "anonymous": false,
      "inputs": [
        {
          "indexed": false,
          "internalType": "address",
          "name": "newOracle",
          "type": "address"
        }
      ],
      "name": "PriceOracleUpdated",
      "type": "event"
    },
    {
      "anonymous": false,
      "inputs": [
        {
          "indexed": false,
          "internalType": "uint256",
          "name": "newRentAmount",
          "type": "uint256"
        }
      ],
      "name": "RentAmountUpdated",
      "type": "event"
    },
    {
      "anonymous": false,
      "inputs": [
        {
          "indexed": true,
          "internalType": "address",
          "name": "tenant",
          "type": "address"
        },
        {
          "indexed": false,
          "internalType": "uint256",
          "name": "weiAmount",
          "type": "uint256"
        },
        {
          "indexed": false,
          "internalType": "uint256",
          "name": "eurAmount",
          "type": "uint256"
        },
        {
          "indexed": false,
          "internalType": "uint256",
          "name": "month",
          "type": "uint256"
        }
      ],
      "name": "RentPaid",
      "type": "event"
    },
    {
      "anonymous": false,
      "inputs": [
        {
          "indexed": false,
          "internalType": "address",
          "name": "newOracle",
          "type": "address"
        }
      ],
      "name": "TimeOracleUpdated",
      "type": "event"
    },
    {
      "inputs": [],
      "name": "landlord",
      "outputs": [
        {
          "internalType": "address",
          "name": "",
          "type": "address"
        }
      ],
      "stateMutability": "view",
      "type": "function",
      "constant": true
    },
    {
      "inputs": [],
      "name": "priceOracle",
      "outputs": [
        {
          "internalType": "contract PriceOracle",
          "name": "",
          "type": "address"
        }
      ],
      "stateMutability": "view",
      "type": "function",
      "constant": true
    },
    {
      "inputs": [],
      "name": "rentAmountEur",
      "outputs": [
        {
          "internalType": "uint256",
          "name": "",
          "type": "uint256"
        }
      ],
      "stateMutability": "view",
      "type": "function",
      "constant": true
    },
    {
      "inputs": [],
      "name": "tenant1",
      "outputs": [
        {
          "internalType": "address",
          "name": "",
          "type": "address"
        }
      ],
      "stateMutability": "view",
      "type": "function",
      "constant": true
    },
    {
      "inputs": [],
      "name": "tenant2",
      "outputs": [
        {
          "internalType": "address",
          "name": "",
          "type": "address"
        }
      ],
      "stateMutability": "view",
      "type": "function",
      "constant": true
    },
    {
      "inputs": [
        {
          "internalType": "uint256",
          "name": "",
          "type": "uint256"
        },
        {
          "internalType": "address",
          "name": "",
          "type": "address"
        }
      ],
      "name": "tenantPaidForMonth",
      "outputs": [
        {
          "internalType": "bool",
          "name": "",
          "type": "bool"
        }
      ],
      "stateMutability": "view",
      "type": "function",
      "constant": true
    },
    {
      "inputs": [],
      "name": "timeOracle",
      "outputs": [
        {
          "internalType": "contract TimeOracle",
          "name": "",
          "type": "address"
        }
      ],
      "stateMutability": "view",
      "type": "function",
      "constant": true
    },
    {
      "inputs": [
        {
          "internalType": "uint256",
          "name": "",
          "type": "uint256"
        }
      ],
      "name": "whoCanPayForMonth",
      "outputs": [
        {
          "internalType": "address",
          "name": "",
          "type": "address"
        }
      ],
      "stateMutability": "view",
      "type": "function",
      "constant": true
    },
    {
      "inputs": [
        {
          "internalType": "uint256",
          "name": "month",
          "type": "uint256"
        }
      ],
      "name": "payRent",
      "outputs": [],
      "stateMutability": "payable",
      "type": "function",
      "payable": true
    },
    {
      "inputs": [],
      "name": "payCurrentMonthRent",
      "outputs": [],
      "stateMutability": "payable",
      "type": "function",
      "payable": true
    },
    {
      "inputs": [
        {
          "internalType": "uint256",
          "name": "month",
          "type": "uint256"
        }
      ],
      "name": "isRentPaid",
      "outputs": [
        {
          "internalType": "bool",
          "name": "",
          "type": "bool"
        }
      ],
      "stateMutability": "view",
      "type": "function",
      "constant": true
    },
    {
      "inputs": [
        {
          "internalType": "uint256",
          "name": "month",
          "type": "uint256"
        }
      ],
      "name": "isRentLate",
      "outputs": [
        {
          "internalType": "bool",
          "name": "",
          "type": "bool"
        }
      ],
      "stateMutability": "view",
      "type": "function",
      "constant": true
    },
    {
      "inputs": [
        {
          "internalType": "uint256",
          "name": "month",
          "type": "uint256"
        }
      ],
      "name": "isInGracePeriod",
      "outputs": [
        {
          "internalType": "bool",
          "name": "",
          "type": "bool"
        }
      ],
      "stateMutability": "view",
      "type": "function",
      "constant": true
    },
    {
      "inputs": [
        {
          "internalType": "address",
          "name": "_timeOracle",
          "type": "address"
        }
      ],
      "name": "setTimeOracle",
      "outputs": [],
      "stateMutability": "nonpayable",
      "type": "function"
    },
    {
      "inputs": [
        {
          "internalType": "address",
          "name": "_priceOracle",
          "type": "address"
        }
      ],
      "name": "setPriceOracle",
      "outputs": [],
      "stateMutability": "nonpayable",
      "type": "function"
    },
    {
      "inputs": [
        {
          "internalType": "uint256",
          "name": "_newRentAmountEur",
          "type": "uint256"
        }
      ],
      "name": "updateRentAmount",
      "outputs": [],
      "stateMutability": "nonpayable",
      "type": "function"
    },
    {
      "inputs": [
        {
          "internalType": "uint256",
          "name": "month",
          "type": "uint256"
        },
        {
          "internalType": "address",
          "name": "tenant",
          "type": "address"
        }
      ],
      "name": "assignTenantForMonth",
      "outputs": [],
      "stateMutability": "nonpayable",
      "type": "function"
    },
    {
      "inputs": [
        {
          "internalType": "uint256",
          "name": "month",
          "type": "uint256"
        }
      ],
      "name": "forcePayment",
      "outputs": [],
      "stateMutability": "nonpayable",
      "type": "function"
    },
    {
      "inputs": [
        {
          "internalType": "uint256",
          "name": "month",
          "type": "uint256"
        }
      ],
      "name": "getMonthPaymentStatus",
      "outputs": [
        {
          "internalType": "bool",
          "name": "tenant1Paid",
          "type": "bool"
        },
        {
          "internalType": "bool",
          "name": "tenant2Paid",
          "type": "bool"
        },
        {
          "internalType": "bool",
          "name": "fullyPaid",
          "type": "bool"
        }
      ],
      "stateMutability": "view",
      "type": "function",
      "constant": true
    },
    {
      "inputs": [],
      "name": "getLateRentMonths",
      "outputs": [
        {
          "internalType": "uint256[]",
          "name": "",
          "type": "uint256[]"
        }
      ],
      "stateMutability": "view",
      "type": "function",
      "constant": true
    },
    {
      "inputs": [],
      "name": "getCurrentRentInWei",
      "outputs": [
        {
          "internalType": "uint256",
          "name": "",
          "type": "uint256"
        }
      ],
      "stateMutability": "view",
      "type": "function",
      "constant": true
    },
    {
      "inputs": [],
      "name": "isCurrentRentPaid",
      "outputs": [
        {
          "internalType": "bool",
          "name": "",
          "type": "bool"
        }
      ],
      "stateMutability": "view",
      "type": "function",
      "constant": true
    },
    {
      "inputs": [],
      "name": "getCurrentMonth",
      "outputs": [
        {
          "internalType": "uint256",
          "name": "",
          "type": "uint256"
        }
      ],
      "stateMutability": "view",
      "type": "function",
      "constant": true
    },
    {
      "inputs": [
        {
          "internalType": "address",
          "name": "tenant",
          "type": "address"
        },
        {
          "internalType": "uint256",
          "name": "month",
          "type": "uint256"
        }
      ],
      "name": "isTenantPaidForMonth",
      "outputs": [
        {
          "internalType": "bool",
          "name": "",
          "type": "bool"
        }
      ],
      "stateMutability": "view",
      "type": "function",
      "constant": true
    }
  ],
  "bytecode": "0x60806040523480156200001157600080fd5b5060405162002cad38038062002cad8339818101604052810190620000379190620001bc565b856000806101000a81548173ffffffffffffffffffffffffffffffffffffffff021916908373ffffffffffffffffffffffffffffffffffffffff16021790555084600160006101000a81548173ffffffffffffffffffffffffffffffffffffffff021916908373ffffffffffffffffffffffffffffffffffffffff16021790555083600260006101000a81548173ffffffffffffffffffffffffffffffffffffffff021916908373ffffffffffffffffffffffffffffffffffffffff1602179055508260038190555081600460006101000a81548173ffffffffffffffffffffffffffffffffffffffff021916908373ffffffffffffffffffffffffffffffffffffffff16021790555080600560006101000a81548173ffffffffffffffffffffffffffffffffffffffff021916908373ffffffffffffffffffffffffffffffffffffffff160217905550505050505050620002c4565b6000815190506200019f8162000290565b92915050565b600081519050620001b681620002aa565b92915050565b60008060008060008060c08789031215620001d657600080fd5b6000620001e689828a016200018e565b9650506020620001f989828a016200018e565b95505060406200020c89828a016200018e565b94505060606200021f89828a01620001a5565b93505060806200023289828a016200018e565b92505060a06200024589828a016200018e565b9150509295509295509295565b60006200025f8262000266565b9050919050565b600073ffffffffffffffffffffffffffffffffffffffff82169050919050565b6000819050919050565b6200029b8162000252565b8114620002a757600080fd5b50565b620002b58162000286565b8114620002c157600080fd5b50565b6129d980620002d46000396000f3fe60806040526004361061014b5760003560e01c806374827a1b116100b6578063d9e8843f1161006f578063d9e8843f146104a8578063dc1997ea146104c4578063dc55ebab146104ef578063ddd1b67e146104f9578063fcafd27514610524578063feefa530146105615761014b565b806374827a1b146103985780637f04374b146103c3578063870642c0146103ee578063aa17839d1461042b578063b53f67de14610454578063d26071311461047d5761014b565b8063530e784f11610108578063530e784f1461026457806359a796351461028d5780635fd503ad146102ca578063622c2126146103075780636735e04c146103325780636dd9c9a51461036f5761014b565b8063043dd5ef146101505780630937ed651461017957806311f2f9ca146101a45780632630c12f146101e35780632c74bd951461020e5780632dd8623c14610239575b600080fd5b34801561015c57600080fd5b5061017760048036038101906101729190612162565b61059e565b005b34801561018557600080fd5b5061018e6107ec565b60405161019b919061252f565b60405180910390f35b3480156101b057600080fd5b506101cb60048036038101906101c69190612110565b610812565b6040516101da93929190612587565b60405180910390f35b3480156101ef57600080fd5b506101f861092e565b60405161020591906125be565b60405180910390f35b34801561021a57600080fd5b50610223610954565b604051610230919061274b565b60405180910390f35b34801561024557600080fd5b5061024e61095a565b60405161025b919061256c565b60405180910390f35b34801561027057600080fd5b5061028b60048036038101906102869190612082565b610a09565b005b34801561029957600080fd5b506102b460048036038101906102af9190612162565b610b12565b6040516102c1919061256c565b60405180910390f35b3480156102d657600080fd5b506102f160048036038101906102ec9190612110565b610b41565b6040516102fe919061256c565b60405180910390f35b34801561031357600080fd5b5061031c610c52565b604051610329919061252f565b60405180910390f35b34801561033e57600080fd5b5061035960048036038101906103549190612110565b610c78565b604051610366919061256c565b60405180910390f35b34801561037b57600080fd5b5061039660048036038101906103919190612110565b610d3e565b005b3480156103a457600080fd5b506103ad610e0d565b6040516103ba919061274b565b60405180910390f35b3480156103cf57600080fd5b506103d8610ec1565b6040516103e5919061254a565b60405180910390f35b3480156103fa57600080fd5b5061041560048036038101906104109190612110565b611183565b604051610422919061256c565b60405180910390f35b34801561043757600080fd5b50610452600480360381019061044d9190612110565b611249565b005b34801561046057600080fd5b5061047b60048036038101906104769190612082565b611611565b005b34801561048957600080fd5b5061049261171a565b60405161049f91906125d9565b60405180910390f35b6104c260048036038101906104bd9190612110565b611740565b005b3480156104d057600080fd5b506104d9611d30565b6040516104e6919061252f565b60405180910390f35b6104f7611d54565b005b34801561050557600080fd5b5061050e611eec565b60405161051b919061274b565b60405180910390f35b34801561053057600080fd5b5061054b600480360381019061054691906120ab565b611f93565b604051610558919061256c565b60405180910390f35b34801561056d57600080fd5b5061058860048036038101906105839190612110565b611ffb565b604051610595919061252f565b60405180910390f35b60008054906101000a900473ffffffffffffffffffffffffffffffffffffffff1673ffffffffffffffffffffffffffffffffffffffff163373ffffffffffffffffffffffffffffffffffffffff161461062c576040517f08c379a0000000000000000000000000000000000000000000000000000000008152600401610623906126cb565b60405180910390fd5b600160009054906101000a900473ffffffffffffffffffffffffffffffffffffffff1673ffffffffffffffffffffffffffffffffffffffff168173ffffffffffffffffffffffffffffffffffffffff1614806106d55750600260009054906101000a900473ffffffffffffffffffffffffffffffffffffffff1673ffffffffffffffffffffffffffffffffffffffff168173ffffffffffffffffffffffffffffffffffffffff16145b610714576040517f08c379a000000000000000000000000000000000000000000000000000000000815260040161070b9061268b565b60405180910390fd5b61071d82610b41565b1561075d576040517f08c379a00000000000000000000000000000000000000000000000000000000081526004016107549061266b565b60405180910390fd5b806007600084815260200190815260200160002060006101000a81548173ffffffffffffffffffffffffffffffffffffffff021916908373ffffffffffffffffffffffffffffffffffffffff1602179055507f79d55a4e3367ad34a1690ddeeeed7c627a5bee2df2f60d83504d582c4d1ca4cc82826040516107e0929190612766565b60405180910390a15050565b600160009054906101000a900473ffffffffffffffffffffffffffffffffffffffff1681565b6000806000600660008581526020019081526020016000206000600160009054906101000a900473ffffffffffffffffffffffffffffffffffffffff1673ffffffffffffffffffffffffffffffffffffffff1673ffffffffffffffffffffffffffffffffffffffff16815260200190815260200160002060009054906101000a900460ff169250600660008581526020019081526020016000206000600260009054906101000a900473ffffffffffffffffffffffffffffffffffffffff1673ffffffffffffffffffffffffffffffffffffffff1673ffffffffffffffffffffffffffffffffffffffff16815260200190815260200160002060009054906101000a900460ff1691508280156109255750815b90509193909250565b600560009054906101000a900473ffffffffffffffffffffffffffffffffffffffff1681565b60035481565b6000610a04600460009054906101000a900473ffffffffffffffffffffffffffffffffffffffff1673ffffffffffffffffffffffffffffffffffffffff1663ddd1b67e6040518163ffffffff1660e01b815260040160206040518083038186803b1580156109c757600080fd5b505afa1580156109db573d6000803e3d6000fd5b505050506040513d601f19601f820116820180604052508101906109ff9190612139565b610b41565b905090565b60008054906101000a900473ffffffffffffffffffffffffffffffffffffffff1673ffffffffffffffffffffffffffffffffffffffff163373ffffffffffffffffffffffffffffffffffffffff1614610a97576040517f08c379a0000000000000000000000000000000000000000000000000000000008152600401610a8e906126cb565b60405180910390fd5b80600560006101000a81548173ffffffffffffffffffffffffffffffffffffffff021916908373ffffffffffffffffffffffffffffffffffffffff1602179055507fefe8ab924ca486283a79dc604baa67add51afb82af1db8ac386ebbba643cdffd81604051610b07919061252f565b60405180910390a150565b60066020528160005260406000206020528060005260406000206000915091509054906101000a900460ff1681565b6000600660008381526020019081526020016000206000600160009054906101000a900473ffffffffffffffffffffffffffffffffffffffff1673ffffffffffffffffffffffffffffffffffffffff1673ffffffffffffffffffffffffffffffffffffffff16815260200190815260200160002060009054906101000a900460ff168015610c4b5750600660008381526020019081526020016000206000600260009054906101000a900473ffffffffffffffffffffffffffffffffffffffff1673ffffffffffffffffffffffffffffffffffffffff1673ffffffffffffffffffffffffffffffffffffffff16815260200190815260200160002060009054906101000a900460ff165b9050919050565b600260009054906101000a900473ffffffffffffffffffffffffffffffffffffffff1681565b6000600460009054906101000a900473ffffffffffffffffffffffffffffffffffffffff1673ffffffffffffffffffffffffffffffffffffffff16636735e04c836040518263ffffffff1660e01b8152600401610cd5919061274b565b60206040518083038186803b158015610ced57600080fd5b505afa158015610d01573d6000803e3d6000fd5b505050506040513d601f19601f82011682018060405250810190610d2591906120e7565b8015610d375750610d3582610b41565b155b9050919050565b60008054906101000a900473ffffffffffffffffffffffffffffffffffffffff1673ffffffffffffffffffffffffffffffffffffffff163373ffffffffffffffffffffffffffffffffffffffff1614610dcc576040517f08c379a0000000000000000000000000000000000000000000000000000000008152600401610dc3906126cb565b60405180910390fd5b806003819055507fb2f6931db0f342f0fa2bd590cd698c166d4112d06d20c0b75ab7f580789d5f6481604051610e02919061274b565b60405180910390a150565b6000600560009054906101000a900473ffffffffffffffffffffffffffffffffffffffff1673ffffffffffffffffffffffffffffffffffffffff1663a17a97fc6003546040518263ffffffff1660e01b8152600401610e6c919061274b565b60206040518083038186803b158015610e8457600080fd5b505afa158015610e98573d6000803e3d6000fd5b505050506040513d601f19601f82011682018060405250810190610ebc9190612139565b905090565b60606000600460009054906101000a900473ffffffffffffffffffffffffffffffffffffffff1673ffffffffffffffffffffffffffffffffffffffff1663ddd1b67e6040518163ffffffff1660e01b815260040160206040518083038186803b158015610f2d57600080fd5b505afa158015610f41573d6000803e3d6000fd5b505050506040513d601f19601f82011682018060405250810190610f659190612139565b905060008167ffffffffffffffff811115610fa9577f4e487b7100000000000000000000000000000000000000000000000000000000600052604160045260246000fd5b604051908082528060200260200182016040528015610fd75781602001602082028036833780820191505090505b509050600080600190505b8381101561106057610ff381611183565b1561104d5780838381518110611032577f4e487b7100000000000000000000000000000000000000000000000000000000600052603260045260246000fd5b6020026020010181815250508180611049906128e6565b9250505b8080611058906128e6565b915050610fe2565b5060008167ffffffffffffffff8111156110a3577f4e487b7100000000000000000000000000000000000000000000000000000000600052604160045260246000fd5b6040519080825280602002602001820160405280156110d15781602001602082028036833780820191505090505b50905060005b8281101561117857838181518110611118577f4e487b7100000000000000000000000000000000000000000000000000000000600052603260045260246000fd5b6020026020010151828281518110611159577f4e487b7100000000000000000000000000000000000000000000000000000000600052603260045260246000fd5b6020026020010181815250508080611170906128e6565b9150506110d7565b508094505050505090565b6000600460009054906101000a900473ffffffffffffffffffffffffffffffffffffffff1673ffffffffffffffffffffffffffffffffffffffff1663093f5617836040518263ffffffff1660e01b81526004016111e0919061274b565b60206040518083038186803b1580156111f857600080fd5b505afa15801561120c573d6000803e3d6000fd5b505050506040513d601f19601f8201168201806040525081019061123091906120e7565b8015611242575061124082610b41565b155b9050919050565b60008054906101000a900473ffffffffffffffffffffffffffffffffffffffff1673ffffffffffffffffffffffffffffffffffffffff163373ffffffffffffffffffffffffffffffffffffffff16146112d7576040517f08c379a00000000000000000000000000000000000000000000000000000000081526004016112ce906126cb565b60405180910390fd5b6112e081610b41565b15611320576040517f08c379a00000000000000000000000000000000000000000000000000000000081526004016113179061270b565b60405180910390fd5b600460009054906101000a900473ffffffffffffffffffffffffffffffffffffffff1673ffffffffffffffffffffffffffffffffffffffff1663e816e87f826040518263ffffffff1660e01b815260040161137b919061274b565b60206040518083038186803b15801561139357600080fd5b505afa1580156113a7573d6000803e3d6000fd5b505050506040513d601f19601f820116820180604052508101906113cb91906120e7565b61140a576040517f08c379a00000000000000000000000000000000000000000000000000000000081526004016114019061264b565b60405180910390fd5b6001600660008381526020019081526020016000206000600160009054906101000a900473ffffffffffffffffffffffffffffffffffffffff1673ffffffffffffffffffffffffffffffffffffffff1673ffffffffffffffffffffffffffffffffffffffff16815260200190815260200160002060006101000a81548160ff0219169083151502179055506001600660008381526020019081526020016000206000600260009054906101000a900473ffffffffffffffffffffffffffffffffffffffff1673ffffffffffffffffffffffffffffffffffffffff1673ffffffffffffffffffffffffffffffffffffffff16815260200190815260200160002060006101000a81548160ff021916908315150217905550600160009054906101000a900473ffffffffffffffffffffffffffffffffffffffff1673ffffffffffffffffffffffffffffffffffffffff167f2d2423890bc33b8290b6bf4c590927cc8a367ef6c70744a602984e45a4bf117760006003548460405161158f939291906125f4565b60405180910390a2600260009054906101000a900473ffffffffffffffffffffffffffffffffffffffff1673ffffffffffffffffffffffffffffffffffffffff167f2d2423890bc33b8290b6bf4c590927cc8a367ef6c70744a602984e45a4bf1177600060035484604051611606939291906125f4565b60405180910390a250565b60008054906101000a900473ffffffffffffffffffffffffffffffffffffffff1673ffffffffffffffffffffffffffffffffffffffff163373ffffffffffffffffffffffffffffffffffffffff161461169f576040517f08c379a0000000000000000000000000000000000000000000000000000000008152600401611696906126cb565b60405180910390fd5b80600460006101000a81548173ffffffffffffffffffffffffffffffffffffffff021916908373ffffffffffffffffffffffffffffffffffffffff1602179055507f1e58be64ed1f6054e26f60a6ca931e438de1e991da37bf88b3245810c5093d288160405161170f919061252f565b60405180910390a150565b600460009054906101000a900473ffffffffffffffffffffffffffffffffffffffff1681565b600160009054906101000a900473ffffffffffffffffffffffffffffffffffffffff1673ffffffffffffffffffffffffffffffffffffffff163373ffffffffffffffffffffffffffffffffffffffff1614806117e95750600260009054906101000a900473ffffffffffffffffffffffffffffffffffffffff1673ffffffffffffffffffffffffffffffffffffffff163373ffffffffffffffffffffffffffffffffffffffff16145b611828576040517f08c379a000000000000000000000000000000000000000000000000000000000815260040161181f9061262b565b60405180910390fd5b6000600560009054906101000a900473ffffffffffffffffffffffffffffffffffffffff1673ffffffffffffffffffffffffffffffffffffffff1663a17a97fc6003546040518263ffffffff1660e01b8152600401611887919061274b565b60206040518083038186803b15801561189f57600080fd5b505afa1580156118b3573d6000803e3d6000fd5b505050506040513d601f19601f820116820180604052508101906118d79190612139565b90508034101561191c576040517f08c379a0000000000000000000000000000000000000000000000000000000008152600401611913906126eb565b60405180910390fd5b6006600083815260200190815260200160002060003373ffffffffffffffffffffffffffffffffffffffff1673ffffffffffffffffffffffffffffffffffffffff16815260200190815260200160002060009054906101000a900460ff16156119ba576040517f08c379a00000000000000000000000000000000000000000000000000000000081526004016119b19061270b565b60405180910390fd5b600460009054906101000a900473ffffffffffffffffffffffffffffffffffffffff1673ffffffffffffffffffffffffffffffffffffffff1663e816e87f836040518263ffffffff1660e01b8152600401611a15919061274b565b60206040518083038186803b158015611a2d57600080fd5b505afa158015611a41573d6000803e3d6000fd5b505050506040513d601f19601f82011682018060405250810190611a6591906120e7565b611aa4576040517f08c379a0000000000000000000000000000000000000000000000000000000008152600401611a9b9061272b565b60405180910390fd5b600073ffffffffffffffffffffffffffffffffffffffff166007600084815260200190815260200160002060009054906101000a900473ffffffffffffffffffffffffffffffffffffffff1673ffffffffffffffffffffffffffffffffffffffff1614611bad576007600083815260200190815260200160002060009054906101000a900473ffffffffffffffffffffffffffffffffffffffff1673ffffffffffffffffffffffffffffffffffffffff163373ffffffffffffffffffffffffffffffffffffffff1614611bac576040517f08c379a0000000000000000000000000000000000000000000000000000000008152600401611ba3906126ab565b60405180910390fd5b5b60016006600084815260200190815260200160002060003373ffffffffffffffffffffffffffffffffffffffff1673ffffffffffffffffffffffffffffffffffffffff16815260200190815260200160002060006101000a81548160ff0219169083151502179055503373ffffffffffffffffffffffffffffffffffffffff167f2d2423890bc33b8290b6bf4c590927cc8a367ef6c70744a602984e45a4bf11778260035485604051611c629392919061278f565b60405180910390a260008054906101000a900473ffffffffffffffffffffffffffffffffffffffff1673ffffffffffffffffffffffffffffffffffffffff166108fc829081150290604051600060405180830381858888f19350505050158015611cd0573d6000803e3d6000fd5b5080341115611d2c573373ffffffffffffffffffffffffffffffffffffffff166108fc8234611cff9190612810565b9081150290604051600060405180830381858888f19350505050158015611d2a573d6000803e3d6000fd5b505b5050565b60008054906101000a900473ffffffffffffffffffffffffffffffffffffffff1681565b600160009054906101000a900473ffffffffffffffffffffffffffffffffffffffff1673ffffffffffffffffffffffffffffffffffffffff163373ffffffffffffffffffffffffffffffffffffffff161480611dfd5750600260009054906101000a900473ffffffffffffffffffffffffffffffffffffffff1673ffffffffffffffffffffffffffffffffffffffff163373ffffffffffffffffffffffffffffffffffffffff16145b611e3c576040517f08c379a0000000000000000000000000000000000000000000000000000000008152600401611e339061262b565b60405180910390fd5b6000600460009054906101000a900473ffffffffffffffffffffffffffffffffffffffff1673ffffffffffffffffffffffffffffffffffffffff1663ddd1b67e6040518163ffffffff1660e01b815260040160206040518083038186803b158015611ea657600080fd5b505afa158015611eba573d6000803e3d6000fd5b505050506040513d601f19601f82011682018060405250810190611ede9190612139565b9050611ee981611740565b50565b6000600460009054906101000a900473ffffffffffffffffffffffffffffffffffffffff1673ffffffffffffffffffffffffffffffffffffffff1663ddd1b67e6040518163ffffffff1660e01b815260040160206040518083038186803b158015611f5657600080fd5b505afa158015611f6a573d6000803e3d6000fd5b505050506040513d601f19601f82011682018060405250810190611f8e9190612139565b905090565b60006006600083815260200190815260200160002060008473ffffffffffffffffffffffffffffffffffffffff1673ffffffffffffffffffffffffffffffffffffffff16815260200190815260200160002060009054906101000a900460ff16905092915050565b60076020528060005260406000206000915054906101000a900473ffffffffffffffffffffffffffffffffffffffff1681565b60008135905061203d8161295e565b92915050565b60008151905061205281612975565b92915050565b6000813590506120678161298c565b92915050565b60008151905061207c8161298c565b92915050565b60006020828403121561209457600080fd5b60006120a28482850161202e565b91505092915050565b600080604083850312156120be57600080fd5b60006120cc8582860161202e565b92505060206120dd85828601612058565b9150509250929050565b6000602082840312156120f957600080fd5b600061210784828501612043565b91505092915050565b60006020828403121561212257600080fd5b600061213084828501612058565b91505092915050565b60006020828403121561214b57600080fd5b60006121598482850161206d565b91505092915050565b6000806040838503121561217557600080fd5b600061218385828601612058565b92505060206121948582860161202e565b9150509250929050565b60006121aa8383612511565b60208301905092915050565b6121bf81612844565b82525050565b60006121d0826127d6565b6121da81856127ee565b93506121e5836127c6565b8060005b838110156122165781516121fd888261219e565b9750612208836127e1565b9250506001810190506121e9565b5085935050505092915050565b61222c81612856565b82525050565b61223b8161288c565b82525050565b61224a816128b0565b82525050565b612259816128d4565b82525050565b600061226c6021836127ff565b91507f46756e7a696f6e65207269736572766174612061676c6920696e7175696c696e60008301527f69000000000000000000000000000000000000000000000000000000000000006020830152604082019050919050565b60006122d2602b836127ff565b91507f506167616d656e746f206e6f6e20616e636f726120646f7675746f207065722060008301527f71756573746f206d6573650000000000000000000000000000000000000000006020830152604082019050919050565b60006123386010836127ff565b91507f4572726f726520706167616d656e746f000000000000000000000000000000006000830152602082019050919050565b6000612378601e836127ff565b91507f496e646972697a7a6f20696e7175696c696e6f206e6f6e2076616c69646f00006000830152602082019050919050565b60006123b86013836127ff565b91507f496e7175696c696e6f20736261676c6961746f000000000000000000000000006000830152602082019050919050565b60006123f86022836127ff565b91507f46756e7a696f6e652072697365727661746120616c2070726f7072696574617260008301527f696f0000000000000000000000000000000000000000000000000000000000006020830152604082019050919050565b600061245e6015836127ff565b91507f496d706f72746f20696e73756666696369656e746500000000000000000000006000830152602082019050919050565b600061249e601e836127ff565b91507f4166666974746f2070616761746f207065722071756573746f206d65736500006000830152602082019050919050565b60006124de6020836127ff565b91507f506167616d656e746f206e6f6e20646f7675746f2071756573746f206d6573656000830152602082019050919050565b61251a81612882565b82525050565b61252981612882565b82525050565b600060208201905061254460008301846121b6565b92915050565b6000602082019050818103600083015261256481846121c5565b905092915050565b60006020820190506125816000830184612223565b92915050565b600060608201905061259c6000830186612223565b6125a96020830185612223565b6125b66040830184612223565b949350505050565b60006020820190506125d36000830184612232565b92915050565b60006020820190506125ee6000830184612241565b92915050565b60006060820190506126096000830186612250565b6126166020830185612520565b6126236040830184612520565b949350505050565b600060208201905081810360008301526126448161225f565b9050919050565b60006020820190508181036000830152612664816122c5565b9050919050565b600060208201905081810360008301526126848161232b565b9050919050565b600060208201905081810360008301526126a48161236b565b9050919050565b600060208201905081810360008301526126c4816123ab565b9050919050565b600060208201905081810360008301526126e4816123eb565b9050919050565b6000602082019050818103600083015261270481612451565b9050919050565b6000602082019050818103600083015261272481612491565b9050919050565b60006020820190508181036000830152612744816124d1565b9050919050565b60006020820190506127606000830184612520565b92915050565b600060408201905061277b6000830185612520565b61278860208301846121b6565b9392505050565b60006060820190506127a46000830186612520565b6127b16020830185612520565b6127be6040830184612520565b949350505050565b6000819050602082019050919050565b600081519050919050565b6000602082019050919050565b600082825260208201905092915050565b600082825260208201905092915050565b600061281b82612882565b915061282683612882565b9250828210156128395761283861292f565b5b828203905092915050565b600061284f82612862565b9050919050565b60008115159050919050565b600073ffffffffffffffffffffffffffffffffffffffff82169050919050565b6000819050919050565b60006128978261289e565b9050919050565b60006128a982612862565b9050919050565b60006128bb826128c2565b9050919050565b60006128cd82612862565b9050919050565b60006128df82612882565b9050919050565b60006128f182612882565b91507fffffffffffffffffffffffffffffffffffffffffffffffffffffffffffffffff8214156129245761292361292f565b5b600182019050919050565b7f4e487b7100000000000000000000000000000000000000000000000000000000600052601160045260246000fd5b61296781612844565b811461297257600080fd5b50565b61297e81612856565b811461298957600080fd5b50565b61299581612882565b81146129a057600080fd5b5056fea2646970667358221220f46ba66dd2812c574fe250f2eff975fc971eedecdeb67eb4a790fc0ea9badc7f64736f6c63430008000033",
  "immutableReferences": {},
  "source": "// SPDX-License-Identifier: MIT\npragma solidity ^0.8.0;\n\nimport \"./TimeOracle.sol\";\nimport \"./PriceOracle.sol\";\n\ncontract RentContract {\n    address public landlord;\n    address public tenant1;\n    address public tenant2;\n    uint public rentAmountEur;\n    TimeOracle public timeOracle;\n    PriceOracle public priceOracle;\n    \n    mapping(uint => mapping(address => bool)) public tenantPaidForMonth;\n    mapping(uint => address) public whoCanPayForMonth;\n    \n    event RentPaid(address indexed tenant, uint weiAmount, uint eurAmount, uint month);\n    event TimeOracleUpdated(address newOracle);\n    event PriceOracleUpdated(address newOracle);\n    event MonthlyAccessGranted(uint month, address tenant);\n    event RentAmountUpdated(uint newRentAmount);\n\n    modifier onlyLandlord() {\n        require(msg.sender == landlord, \"Funzione riservata al proprietario\");\n        _;\n    }\n\n    modifier onlyTenants() {\n        require(msg.sender == tenant1 || msg.sender == tenant2, \"Funzione riservata agli inquilini\");\n        _;\n    }\n\n    constructor(\n        address _landlord, \n        address _tenant1, \n        address _tenant2, \n        uint _rentAmountEur, \n        address _timeOracle,\n        address _priceOracle\n    ) {\n        landlord = _landlord;\n        tenant1 = _tenant1;\n        tenant2 = _tenant2;\n        rentAmountEur = _rentAmountEur;\n        timeOracle = TimeOracle(_timeOracle);\n        priceOracle = PriceOracle(_priceOracle);\n    }\n\n    function payRent(uint month) public payable onlyTenants {\n        uint requiredWei = priceOracle.convertEurToWei(rentAmountEur);\n        require(msg.value >= requiredWei, \"Importo insufficiente\");\n        require(!tenantPaidForMonth[month][msg.sender], \"Affitto pagato per questo mese\");\n        require(timeOracle.isPaymentDue(month), \"Pagamento non dovuto questo mese\");\n\n        if (whoCanPayForMonth[month] != address(0)) {\n            require(msg.sender == whoCanPayForMonth[month], \"Inquilino sbagliato\");\n        }\n\n        tenantPaidForMonth[month][msg.sender] = true;\n        emit RentPaid(msg.sender, requiredWei, rentAmountEur, month);\n\n        payable(landlord).transfer(requiredWei);\n        \n        if (msg.value > requiredWei) {\n            payable(msg.sender).transfer(msg.value - requiredWei);\n        }\n    }\n\n    function payCurrentMonthRent() public payable onlyTenants {\n        uint currentMonth = timeOracle.getCurrentMonth();\n        payRent(currentMonth);\n    }\n\n    function isRentPaid(uint month) public view returns (bool) {\n        return tenantPaidForMonth[month][tenant1] && tenantPaidForMonth[month][tenant2];\n    }\n\n    function isRentLate(uint month) public view returns (bool) {\n        return timeOracle.isPaymentLate(month) && !isRentPaid(month);\n    }\n\n    function isInGracePeriod(uint month) public view returns (bool) {\n        return timeOracle.isInGracePeriod(month) && !isRentPaid(month);\n    }\n\n    function setTimeOracle(address _timeOracle) external onlyLandlord {\n        timeOracle = TimeOracle(_timeOracle);\n        emit TimeOracleUpdated(_timeOracle);\n    }\n\n    function setPriceOracle(address _priceOracle) external onlyLandlord {\n        priceOracle = PriceOracle(_priceOracle);\n        emit PriceOracleUpdated(_priceOracle);\n    }\n\n    function updateRentAmount(uint _newRentAmountEur) external onlyLandlord {\n        rentAmountEur = _newRentAmountEur;\n        emit RentAmountUpdated(_newRentAmountEur);\n    }\n\n    function assignTenantForMonth(uint month, address tenant) external onlyLandlord {\n        require(tenant == tenant1 || tenant == tenant2, \"Indirizzo inquilino non valido\");\n        require(!isRentPaid(month), \"Errore pagamento\");\n        whoCanPayForMonth[month] = tenant;\n        emit MonthlyAccessGranted(month, tenant);\n    }\n\n    function forcePayment(uint month) external onlyLandlord {\n        require(!isRentPaid(month), \"Affitto pagato per questo mese\");\n        require(timeOracle.isPaymentDue(month), \"Pagamento non ancora dovuto per questo mese\");\n\n        tenantPaidForMonth[month][tenant1] = true;\n        tenantPaidForMonth[month][tenant2] = true;\n        \n        emit RentPaid(tenant1, 0, rentAmountEur, month);\n        emit RentPaid(tenant2, 0, rentAmountEur, month);\n    }\n\n    function getMonthPaymentStatus(uint month) external view returns (bool tenant1Paid, bool tenant2Paid, bool fullyPaid) {\n        tenant1Paid = tenantPaidForMonth[month][tenant1];\n        tenant2Paid = tenantPaidForMonth[month][tenant2];\n        fullyPaid = tenant1Paid && tenant2Paid;\n    }\n\n    function getLateRentMonths() external view returns (uint[] memory) {\n        uint currentMonth = timeOracle.getCurrentMonth();\n        uint[] memory lateMonths = new uint[](currentMonth);\n        uint count = 0;\n        \n        for (uint i = 1; i < currentMonth; i++) {\n            if (isRentLate(i)) {\n                lateMonths[count] = i;\n                count++;\n            }\n        }\n        \n        uint[] memory result = new uint[](count);\n        for (uint i = 0; i < count; i++) {\n            result[i] = lateMonths[i];\n        }\n        \n        return result;\n    }\n\n    function getCurrentRentInWei() public view returns (uint) {\n        return priceOracle.convertEurToWei(rentAmountEur);\n    }\n\n    function isCurrentRentPaid() public view returns (bool) {\n        return isRentPaid(timeOracle.getCurrentMonth());\n    }\n\n    function getCurrentMonth() public view returns (uint) {\n        return timeOracle.getCurrentMonth();\n    }\n\n    function isTenantPaidForMonth(address tenant, uint month) public view returns (bool) {\n        return tenantPaidForMonth[month][tenant];\n    }\n}",
  "sourcePath": "/home/cavas/simple-rent-contract/contracts/RentContract.sol",
  "compiler": {
    "name": "solc",
    "version": "0.8.0+commit.c7dfd78e.Emscripten.clang"
  },
  "schemaVersion": "3.4.16",
  "updatedAt": "2025-06-23T10:54:34.108Z",
  "networkType": "ethereum",
  "devdoc": {
    "kind": "dev",
    "methods": {},
    "version": 1
  },
  "userdoc": {
    "kind": "user",
    "methods": {},
    "version": 1
  }
}