{
  "contractName": "RentContract",
  "abi": [
    {
      "inputs": [
        {
          "internalType": "address",
          "name": "_landlord",
          "type": "address"
        },
        {
          "internalType": "address",
          "name": "_tenant1",
          "type": "address"
        },
        {
          "internalType": "address",
          "name": "_tenant2",
          "type": "address"
        },
        {
          "internalType": "uint256",
          "name": "_rentAmountEur",
          "type": "uint256"
        },
        {
          "internalType": "address",
          "name": "_timeOracle",
          "type": "address"
        },
        {
          "internalType": "address",
          "name": "_priceOracle",
          "type": "address"
        }
      ],
      "stateMutability": "nonpayable",
      "type": "constructor"
    },
    {
      "inputs": [],
      "name": "landlord",
      "outputs": [
        {
          "internalType": "address",
          "name": "",
          "type": "address"
        }
      ],
      "stateMutability": "view",
      "type": "function",
      "constant": true
    },
    {
      "inputs": [],
      "name": "priceOracle",
      "outputs": [
        {
          "internalType": "contract PriceOracle",
          "name": "",
          "type": "address"
        }
      ],
      "stateMutability": "view",
      "type": "function",
      "constant": true
    },
    {
      "inputs": [],
      "name": "rentAmountEur",
      "outputs": [
        {
          "internalType": "uint256",
          "name": "",
          "type": "uint256"
        }
      ],
      "stateMutability": "view",
      "type": "function",
      "constant": true
    },
    {
      "inputs": [],
      "name": "tenant1",
      "outputs": [
        {
          "internalType": "address",
          "name": "",
          "type": "address"
        }
      ],
      "stateMutability": "view",
      "type": "function",
      "constant": true
    },
    {
      "inputs": [],
      "name": "tenant2",
      "outputs": [
        {
          "internalType": "address",
          "name": "",
          "type": "address"
        }
      ],
      "stateMutability": "view",
      "type": "function",
      "constant": true
    },
    {
      "inputs": [
        {
          "internalType": "uint256",
          "name": "",
          "type": "uint256"
        },
        {
          "internalType": "address",
          "name": "",
          "type": "address"
        }
      ],
      "name": "tenantPaidForMonth",
      "outputs": [
        {
          "internalType": "bool",
          "name": "",
          "type": "bool"
        }
      ],
      "stateMutability": "view",
      "type": "function",
      "constant": true
    },
    {
      "inputs": [],
      "name": "timeOracle",
      "outputs": [
        {
          "internalType": "contract TimeOracle",
          "name": "",
          "type": "address"
        }
      ],
      "stateMutability": "view",
      "type": "function",
      "constant": true
    },
    {
      "inputs": [
        {
          "internalType": "uint256",
          "name": "",
          "type": "uint256"
        }
      ],
      "name": "whoCanPayForMonth",
      "outputs": [
        {
          "internalType": "address",
          "name": "",
          "type": "address"
        }
      ],
      "stateMutability": "view",
      "type": "function",
      "constant": true
    },
    {
      "inputs": [
        {
          "internalType": "uint256",
          "name": "month",
          "type": "uint256"
        }
      ],
      "name": "payRent",
      "outputs": [],
      "stateMutability": "payable",
      "type": "function",
      "payable": true
    },
    {
      "inputs": [],
      "name": "payCurrentMonthRent",
      "outputs": [],
      "stateMutability": "payable",
      "type": "function",
      "payable": true
    },
    {
      "inputs": [
        {
          "internalType": "uint256",
          "name": "month",
          "type": "uint256"
        }
      ],
      "name": "isRentPaid",
      "outputs": [
        {
          "internalType": "bool",
          "name": "",
          "type": "bool"
        }
      ],
      "stateMutability": "view",
      "type": "function",
      "constant": true
    },
    {
      "inputs": [
        {
          "internalType": "uint256",
          "name": "month",
          "type": "uint256"
        }
      ],
      "name": "isRentLate",
      "outputs": [
        {
          "internalType": "bool",
          "name": "",
          "type": "bool"
        }
      ],
      "stateMutability": "view",
      "type": "function",
      "constant": true
    },
    {
      "inputs": [
        {
          "internalType": "uint256",
          "name": "month",
          "type": "uint256"
        }
      ],
      "name": "isInGracePeriod",
      "outputs": [
        {
          "internalType": "bool",
          "name": "",
          "type": "bool"
        }
      ],
      "stateMutability": "view",
      "type": "function",
      "constant": true
    },
    {
      "inputs": [
        {
          "internalType": "address",
          "name": "_timeOracle",
          "type": "address"
        }
      ],
      "name": "setTimeOracle",
      "outputs": [],
      "stateMutability": "nonpayable",
      "type": "function"
    },
    {
      "inputs": [
        {
          "internalType": "address",
          "name": "_priceOracle",
          "type": "address"
        }
      ],
      "name": "setPriceOracle",
      "outputs": [],
      "stateMutability": "nonpayable",
      "type": "function"
    },
    {
      "inputs": [
        {
          "internalType": "uint256",
          "name": "_newRentAmountEur",
          "type": "uint256"
        }
      ],
      "name": "updateRentAmount",
      "outputs": [],
      "stateMutability": "nonpayable",
      "type": "function"
    },
    {
      "inputs": [
        {
          "internalType": "uint256",
          "name": "month",
          "type": "uint256"
        },
        {
          "internalType": "address",
          "name": "tenant",
          "type": "address"
        }
      ],
      "name": "assignTenantForMonth",
      "outputs": [],
      "stateMutability": "nonpayable",
      "type": "function"
    },
    {
      "inputs": [
        {
          "internalType": "uint256",
          "name": "month",
          "type": "uint256"
        }
      ],
      "name": "forcePayment",
      "outputs": [],
      "stateMutability": "nonpayable",
      "type": "function"
    },
    {
      "inputs": [
        {
          "internalType": "uint256",
          "name": "month",
          "type": "uint256"
        }
      ],
      "name": "getMonthPaymentStatus",
      "outputs": [
        {
          "internalType": "bool",
          "name": "tenant1Paid",
          "type": "bool"
        },
        {
          "internalType": "bool",
          "name": "tenant2Paid",
          "type": "bool"
        },
        {
          "internalType": "bool",
          "name": "fullyPaid",
          "type": "bool"
        }
      ],
      "stateMutability": "view",
      "type": "function",
      "constant": true
    },
    {
      "inputs": [],
      "name": "getLateRentMonths",
      "outputs": [
        {
          "internalType": "uint256[]",
          "name": "",
          "type": "uint256[]"
        }
      ],
      "stateMutability": "view",
      "type": "function",
      "constant": true
    },
    {
      "inputs": [],
      "name": "getCurrentRentInWei",
      "outputs": [
        {
          "internalType": "uint256",
          "name": "",
          "type": "uint256"
        }
      ],
      "stateMutability": "view",
      "type": "function",
      "constant": true
    },
    {
      "inputs": [],
      "name": "isCurrentRentPaid",
      "outputs": [
        {
          "internalType": "bool",
          "name": "",
          "type": "bool"
        }
      ],
      "stateMutability": "view",
      "type": "function",
      "constant": true
    },
    {
      "inputs": [],
      "name": "getCurrentMonth",
      "outputs": [
        {
          "internalType": "uint256",
          "name": "",
          "type": "uint256"
        }
      ],
      "stateMutability": "view",
      "type": "function",
      "constant": true
    },
    {
      "inputs": [
        {
          "internalType": "address",
          "name": "tenant",
          "type": "address"
        },
        {
          "internalType": "uint256",
          "name": "month",
          "type": "uint256"
        }
      ],
      "name": "isTenantPaidForMonth",
      "outputs": [
        {
          "internalType": "bool",
          "name": "",
          "type": "bool"
        }
      ],
      "stateMutability": "view",
      "type": "function",
      "constant": true
    }
  ],
  "bytecode": "0x60806040523480156200001157600080fd5b50604051620029d5380380620029d58339818101604052810190620000379190620001bc565b856000806101000a81548173ffffffffffffffffffffffffffffffffffffffff021916908373ffffffffffffffffffffffffffffffffffffffff16021790555084600160006101000a81548173ffffffffffffffffffffffffffffffffffffffff021916908373ffffffffffffffffffffffffffffffffffffffff16021790555083600260006101000a81548173ffffffffffffffffffffffffffffffffffffffff021916908373ffffffffffffffffffffffffffffffffffffffff1602179055508260038190555081600460006101000a81548173ffffffffffffffffffffffffffffffffffffffff021916908373ffffffffffffffffffffffffffffffffffffffff16021790555080600560006101000a81548173ffffffffffffffffffffffffffffffffffffffff021916908373ffffffffffffffffffffffffffffffffffffffff160217905550505050505050620002c4565b6000815190506200019f8162000290565b92915050565b600081519050620001b681620002aa565b92915050565b60008060008060008060c08789031215620001d657600080fd5b6000620001e689828a016200018e565b9650506020620001f989828a016200018e565b95505060406200020c89828a016200018e565b94505060606200021f89828a01620001a5565b93505060806200023289828a016200018e565b92505060a06200024589828a016200018e565b9150509295509295509295565b60006200025f8262000266565b9050919050565b600073ffffffffffffffffffffffffffffffffffffffff82169050919050565b6000819050919050565b6200029b8162000252565b8114620002a757600080fd5b50565b620002b58162000286565b8114620002c157600080fd5b50565b61270180620002d46000396000f3fe60806040526004361061014b5760003560e01c806374827a1b116100b6578063d9e8843f1161006f578063d9e8843f146104a8578063dc1997ea146104c4578063dc55ebab146104ef578063ddd1b67e146104f9578063fcafd27514610524578063feefa530146105615761014b565b806374827a1b146103985780637f04374b146103c3578063870642c0146103ee578063aa17839d1461042b578063b53f67de14610454578063d26071311461047d5761014b565b8063530e784f11610108578063530e784f1461026457806359a796351461028d5780635fd503ad146102ca578063622c2126146103075780636735e04c146103325780636dd9c9a51461036f5761014b565b8063043dd5ef146101505780630937ed651461017957806311f2f9ca146101a45780632630c12f146101e35780632c74bd951461020e5780632dd8623c14610239575b600080fd5b34801561015c57600080fd5b5061017760048036038101906101729190611f42565b61059e565b005b34801561018557600080fd5b5061018e6107b3565b60405161019b9190612300565b60405180910390f35b3480156101b057600080fd5b506101cb60048036038101906101c69190611ef0565b6107d9565b6040516101da93929190612358565b60405180910390f35b3480156101ef57600080fd5b506101f86108f5565b604051610205919061238f565b60405180910390f35b34801561021a57600080fd5b5061022361091b565b60405161023091906124e5565b60405180910390f35b34801561024557600080fd5b5061024e610921565b60405161025b919061233d565b60405180910390f35b34801561027057600080fd5b5061028b60048036038101906102869190611e62565b6109d0565b005b34801561029957600080fd5b506102b460048036038101906102af9190611f42565b610aa2565b6040516102c1919061233d565b60405180910390f35b3480156102d657600080fd5b506102f160048036038101906102ec9190611ef0565b610ad1565b6040516102fe919061233d565b60405180910390f35b34801561031357600080fd5b5061031c610be2565b6040516103299190612300565b60405180910390f35b34801561033e57600080fd5b5061035960048036038101906103549190611ef0565b610c08565b604051610366919061233d565b60405180910390f35b34801561037b57600080fd5b5061039660048036038101906103919190611ef0565b610cce565b005b3480156103a457600080fd5b506103ad610d66565b6040516103ba91906124e5565b60405180910390f35b3480156103cf57600080fd5b506103d8610e1a565b6040516103e5919061231b565b60405180910390f35b3480156103fa57600080fd5b5061041560048036038101906104109190611ef0565b6110dc565b604051610422919061233d565b60405180910390f35b34801561043757600080fd5b50610452600480360381019061044d9190611ef0565b6111a2565b005b34801561046057600080fd5b5061047b60048036038101906104769190611e62565b61147c565b005b34801561048957600080fd5b5061049261154e565b60405161049f91906123aa565b60405180910390f35b6104c260048036038101906104bd9190611ef0565b611574565b005b3480156104d057600080fd5b506104d9611b10565b6040516104e69190612300565b60405180910390f35b6104f7611b34565b005b34801561050557600080fd5b5061050e611ccc565b60405161051b91906124e5565b60405180910390f35b34801561053057600080fd5b5061054b60048036038101906105469190611e8b565b611d73565b604051610558919061233d565b60405180910390f35b34801561056d57600080fd5b5061058860048036038101906105839190611ef0565b611ddb565b6040516105959190612300565b60405180910390f35b60008054906101000a900473ffffffffffffffffffffffffffffffffffffffff1673ffffffffffffffffffffffffffffffffffffffff163373ffffffffffffffffffffffffffffffffffffffff161461062c576040517f08c379a000000000000000000000000000000000000000000000000000000000815260040161062390612465565b60405180910390fd5b600160009054906101000a900473ffffffffffffffffffffffffffffffffffffffff1673ffffffffffffffffffffffffffffffffffffffff168173ffffffffffffffffffffffffffffffffffffffff1614806106d55750600260009054906101000a900473ffffffffffffffffffffffffffffffffffffffff1673ffffffffffffffffffffffffffffffffffffffff168173ffffffffffffffffffffffffffffffffffffffff16145b610714576040517f08c379a000000000000000000000000000000000000000000000000000000000815260040161070b90612425565b60405180910390fd5b61071d82610ad1565b1561075d576040517f08c379a000000000000000000000000000000000000000000000000000000000815260040161075490612405565b60405180910390fd5b806007600084815260200190815260200160002060006101000a81548173ffffffffffffffffffffffffffffffffffffffff021916908373ffffffffffffffffffffffffffffffffffffffff1602179055505050565b600160009054906101000a900473ffffffffffffffffffffffffffffffffffffffff1681565b6000806000600660008581526020019081526020016000206000600160009054906101000a900473ffffffffffffffffffffffffffffffffffffffff1673ffffffffffffffffffffffffffffffffffffffff1673ffffffffffffffffffffffffffffffffffffffff16815260200190815260200160002060009054906101000a900460ff169250600660008581526020019081526020016000206000600260009054906101000a900473ffffffffffffffffffffffffffffffffffffffff1673ffffffffffffffffffffffffffffffffffffffff1673ffffffffffffffffffffffffffffffffffffffff16815260200190815260200160002060009054906101000a900460ff1691508280156108ec5750815b90509193909250565b600560009054906101000a900473ffffffffffffffffffffffffffffffffffffffff1681565b60035481565b60006109cb600460009054906101000a900473ffffffffffffffffffffffffffffffffffffffff1673ffffffffffffffffffffffffffffffffffffffff1663ddd1b67e6040518163ffffffff1660e01b815260040160206040518083038186803b15801561098e57600080fd5b505afa1580156109a2573d6000803e3d6000fd5b505050506040513d601f19601f820116820180604052508101906109c69190611f19565b610ad1565b905090565b60008054906101000a900473ffffffffffffffffffffffffffffffffffffffff1673ffffffffffffffffffffffffffffffffffffffff163373ffffffffffffffffffffffffffffffffffffffff1614610a5e576040517f08c379a0000000000000000000000000000000000000000000000000000000008152600401610a5590612465565b60405180910390fd5b80600560006101000a81548173ffffffffffffffffffffffffffffffffffffffff021916908373ffffffffffffffffffffffffffffffffffffffff16021790555050565b60066020528160005260406000206020528060005260406000206000915091509054906101000a900460ff1681565b6000600660008381526020019081526020016000206000600160009054906101000a900473ffffffffffffffffffffffffffffffffffffffff1673ffffffffffffffffffffffffffffffffffffffff1673ffffffffffffffffffffffffffffffffffffffff16815260200190815260200160002060009054906101000a900460ff168015610bdb5750600660008381526020019081526020016000206000600260009054906101000a900473ffffffffffffffffffffffffffffffffffffffff1673ffffffffffffffffffffffffffffffffffffffff1673ffffffffffffffffffffffffffffffffffffffff16815260200190815260200160002060009054906101000a900460ff165b9050919050565b600260009054906101000a900473ffffffffffffffffffffffffffffffffffffffff1681565b6000600460009054906101000a900473ffffffffffffffffffffffffffffffffffffffff1673ffffffffffffffffffffffffffffffffffffffff16636735e04c836040518263ffffffff1660e01b8152600401610c6591906124e5565b60206040518083038186803b158015610c7d57600080fd5b505afa158015610c91573d6000803e3d6000fd5b505050506040513d601f19601f82011682018060405250810190610cb59190611ec7565b8015610cc75750610cc582610ad1565b155b9050919050565b60008054906101000a900473ffffffffffffffffffffffffffffffffffffffff1673ffffffffffffffffffffffffffffffffffffffff163373ffffffffffffffffffffffffffffffffffffffff1614610d5c576040517f08c379a0000000000000000000000000000000000000000000000000000000008152600401610d5390612465565b60405180910390fd5b8060038190555050565b6000600560009054906101000a900473ffffffffffffffffffffffffffffffffffffffff1673ffffffffffffffffffffffffffffffffffffffff1663a17a97fc6003546040518263ffffffff1660e01b8152600401610dc591906124e5565b60206040518083038186803b158015610ddd57600080fd5b505afa158015610df1573d6000803e3d6000fd5b505050506040513d601f19601f82011682018060405250810190610e159190611f19565b905090565b60606000600460009054906101000a900473ffffffffffffffffffffffffffffffffffffffff1673ffffffffffffffffffffffffffffffffffffffff1663ddd1b67e6040518163ffffffff1660e01b815260040160206040518083038186803b158015610e8657600080fd5b505afa158015610e9a573d6000803e3d6000fd5b505050506040513d601f19601f82011682018060405250810190610ebe9190611f19565b905060008167ffffffffffffffff811115610f02577f4e487b7100000000000000000000000000000000000000000000000000000000600052604160045260246000fd5b604051908082528060200260200182016040528015610f305781602001602082028036833780820191505090505b509050600080600190505b83811015610fb957610f4c816110dc565b15610fa65780838381518110610f8b577f4e487b7100000000000000000000000000000000000000000000000000000000600052603260045260246000fd5b6020026020010181815250508180610fa29061260e565b9250505b8080610fb19061260e565b915050610f3b565b5060008167ffffffffffffffff811115610ffc577f4e487b7100000000000000000000000000000000000000000000000000000000600052604160045260246000fd5b60405190808252806020026020018201604052801561102a5781602001602082028036833780820191505090505b50905060005b828110156110d157838181518110611071577f4e487b7100000000000000000000000000000000000000000000000000000000600052603260045260246000fd5b60200260200101518282815181106110b2577f4e487b7100000000000000000000000000000000000000000000000000000000600052603260045260246000fd5b60200260200101818152505080806110c99061260e565b915050611030565b508094505050505090565b6000600460009054906101000a900473ffffffffffffffffffffffffffffffffffffffff1673ffffffffffffffffffffffffffffffffffffffff1663093f5617836040518263ffffffff1660e01b815260040161113991906124e5565b60206040518083038186803b15801561115157600080fd5b505afa158015611165573d6000803e3d6000fd5b505050506040513d601f19601f820116820180604052508101906111899190611ec7565b801561119b575061119982610ad1565b155b9050919050565b60008054906101000a900473ffffffffffffffffffffffffffffffffffffffff1673ffffffffffffffffffffffffffffffffffffffff163373ffffffffffffffffffffffffffffffffffffffff1614611230576040517f08c379a000000000000000000000000000000000000000000000000000000000815260040161122790612465565b60405180910390fd5b61123981610ad1565b15611279576040517f08c379a0000000000000000000000000000000000000000000000000000000008152600401611270906124a5565b60405180910390fd5b600460009054906101000a900473ffffffffffffffffffffffffffffffffffffffff1673ffffffffffffffffffffffffffffffffffffffff1663e816e87f826040518263ffffffff1660e01b81526004016112d491906124e5565b60206040518083038186803b1580156112ec57600080fd5b505afa158015611300573d6000803e3d6000fd5b505050506040513d601f19601f820116820180604052508101906113249190611ec7565b611363576040517f08c379a000000000000000000000000000000000000000000000000000000000815260040161135a906123e5565b60405180910390fd5b6001600660008381526020019081526020016000206000600160009054906101000a900473ffffffffffffffffffffffffffffffffffffffff1673ffffffffffffffffffffffffffffffffffffffff1673ffffffffffffffffffffffffffffffffffffffff16815260200190815260200160002060006101000a81548160ff0219169083151502179055506001600660008381526020019081526020016000206000600260009054906101000a900473ffffffffffffffffffffffffffffffffffffffff1673ffffffffffffffffffffffffffffffffffffffff1673ffffffffffffffffffffffffffffffffffffffff16815260200190815260200160002060006101000a81548160ff02191690831515021790555050565b60008054906101000a900473ffffffffffffffffffffffffffffffffffffffff1673ffffffffffffffffffffffffffffffffffffffff163373ffffffffffffffffffffffffffffffffffffffff161461150a576040517f08c379a000000000000000000000000000000000000000000000000000000000815260040161150190612465565b60405180910390fd5b80600460006101000a81548173ffffffffffffffffffffffffffffffffffffffff021916908373ffffffffffffffffffffffffffffffffffffffff16021790555050565b600460009054906101000a900473ffffffffffffffffffffffffffffffffffffffff1681565b600160009054906101000a900473ffffffffffffffffffffffffffffffffffffffff1673ffffffffffffffffffffffffffffffffffffffff163373ffffffffffffffffffffffffffffffffffffffff16148061161d5750600260009054906101000a900473ffffffffffffffffffffffffffffffffffffffff1673ffffffffffffffffffffffffffffffffffffffff163373ffffffffffffffffffffffffffffffffffffffff16145b61165c576040517f08c379a0000000000000000000000000000000000000000000000000000000008152600401611653906123c5565b60405180910390fd5b6000600560009054906101000a900473ffffffffffffffffffffffffffffffffffffffff1673ffffffffffffffffffffffffffffffffffffffff1663a17a97fc6003546040518263ffffffff1660e01b81526004016116bb91906124e5565b60206040518083038186803b1580156116d357600080fd5b505afa1580156116e7573d6000803e3d6000fd5b505050506040513d601f19601f8201168201806040525081019061170b9190611f19565b905080341015611750576040517f08c379a000000000000000000000000000000000000000000000000000000000815260040161174790612485565b60405180910390fd5b6006600083815260200190815260200160002060003373ffffffffffffffffffffffffffffffffffffffff1673ffffffffffffffffffffffffffffffffffffffff16815260200190815260200160002060009054906101000a900460ff16156117ee576040517f08c379a00000000000000000000000000000000000000000000000000000000081526004016117e5906124a5565b60405180910390fd5b600460009054906101000a900473ffffffffffffffffffffffffffffffffffffffff1673ffffffffffffffffffffffffffffffffffffffff1663e816e87f836040518263ffffffff1660e01b815260040161184991906124e5565b60206040518083038186803b15801561186157600080fd5b505afa158015611875573d6000803e3d6000fd5b505050506040513d601f19601f820116820180604052508101906118999190611ec7565b6118d8576040517f08c379a00000000000000000000000000000000000000000000000000000000081526004016118cf906124c5565b60405180910390fd5b600073ffffffffffffffffffffffffffffffffffffffff166007600084815260200190815260200160002060009054906101000a900473ffffffffffffffffffffffffffffffffffffffff1673ffffffffffffffffffffffffffffffffffffffff16146119e1576007600083815260200190815260200160002060009054906101000a900473ffffffffffffffffffffffffffffffffffffffff1673ffffffffffffffffffffffffffffffffffffffff163373ffffffffffffffffffffffffffffffffffffffff16146119e0576040517f08c379a00000000000000000000000000000000000000000000000000000000081526004016119d790612445565b60405180910390fd5b5b60016006600084815260200190815260200160002060003373ffffffffffffffffffffffffffffffffffffffff1673ffffffffffffffffffffffffffffffffffffffff16815260200190815260200160002060006101000a81548160ff02191690831515021790555060008054906101000a900473ffffffffffffffffffffffffffffffffffffffff1673ffffffffffffffffffffffffffffffffffffffff166108fc829081150290604051600060405180830381858888f19350505050158015611ab0573d6000803e3d6000fd5b5080341115611b0c573373ffffffffffffffffffffffffffffffffffffffff166108fc8234611adf919061254a565b9081150290604051600060405180830381858888f19350505050158015611b0a573d6000803e3d6000fd5b505b5050565b60008054906101000a900473ffffffffffffffffffffffffffffffffffffffff1681565b600160009054906101000a900473ffffffffffffffffffffffffffffffffffffffff1673ffffffffffffffffffffffffffffffffffffffff163373ffffffffffffffffffffffffffffffffffffffff161480611bdd5750600260009054906101000a900473ffffffffffffffffffffffffffffffffffffffff1673ffffffffffffffffffffffffffffffffffffffff163373ffffffffffffffffffffffffffffffffffffffff16145b611c1c576040517f08c379a0000000000000000000000000000000000000000000000000000000008152600401611c13906123c5565b60405180910390fd5b6000600460009054906101000a900473ffffffffffffffffffffffffffffffffffffffff1673ffffffffffffffffffffffffffffffffffffffff1663ddd1b67e6040518163ffffffff1660e01b815260040160206040518083038186803b158015611c8657600080fd5b505afa158015611c9a573d6000803e3d6000fd5b505050506040513d601f19601f82011682018060405250810190611cbe9190611f19565b9050611cc981611574565b50565b6000600460009054906101000a900473ffffffffffffffffffffffffffffffffffffffff1673ffffffffffffffffffffffffffffffffffffffff1663ddd1b67e6040518163ffffffff1660e01b815260040160206040518083038186803b158015611d3657600080fd5b505afa158015611d4a573d6000803e3d6000fd5b505050506040513d601f19601f82011682018060405250810190611d6e9190611f19565b905090565b60006006600083815260200190815260200160002060008473ffffffffffffffffffffffffffffffffffffffff1673ffffffffffffffffffffffffffffffffffffffff16815260200190815260200160002060009054906101000a900460ff16905092915050565b60076020528060005260406000206000915054906101000a900473ffffffffffffffffffffffffffffffffffffffff1681565b600081359050611e1d81612686565b92915050565b600081519050611e328161269d565b92915050565b600081359050611e47816126b4565b92915050565b600081519050611e5c816126b4565b92915050565b600060208284031215611e7457600080fd5b6000611e8284828501611e0e565b91505092915050565b60008060408385031215611e9e57600080fd5b6000611eac85828601611e0e565b9250506020611ebd85828601611e38565b9150509250929050565b600060208284031215611ed957600080fd5b6000611ee784828501611e23565b91505092915050565b600060208284031215611f0257600080fd5b6000611f1084828501611e38565b91505092915050565b600060208284031215611f2b57600080fd5b6000611f3984828501611e4d565b91505092915050565b60008060408385031215611f5557600080fd5b6000611f6385828601611e38565b9250506020611f7485828601611e0e565b9150509250929050565b6000611f8a83836122e2565b60208301905092915050565b611f9f8161257e565b82525050565b6000611fb082612510565b611fba8185612528565b9350611fc583612500565b8060005b83811015611ff6578151611fdd8882611f7e565b9750611fe88361251b565b925050600181019050611fc9565b5085935050505092915050565b61200c81612590565b82525050565b61201b816125c6565b82525050565b61202a816125ea565b82525050565b600061203d602183612539565b91507f46756e7a696f6e65207269736572766174612061676c6920696e7175696c696e60008301527f69000000000000000000000000000000000000000000000000000000000000006020830152604082019050919050565b60006120a3602b83612539565b91507f506167616d656e746f206e6f6e20616e636f726120646f7675746f207065722060008301527f71756573746f206d6573650000000000000000000000000000000000000000006020830152604082019050919050565b6000612109601083612539565b91507f4572726f726520706167616d656e746f000000000000000000000000000000006000830152602082019050919050565b6000612149601e83612539565b91507f496e646972697a7a6f20696e7175696c696e6f206e6f6e2076616c69646f00006000830152602082019050919050565b6000612189601383612539565b91507f496e7175696c696e6f20736261676c6961746f000000000000000000000000006000830152602082019050919050565b60006121c9602283612539565b91507f46756e7a696f6e652072697365727661746120616c2070726f7072696574617260008301527f696f0000000000000000000000000000000000000000000000000000000000006020830152604082019050919050565b600061222f601583612539565b91507f496d706f72746f20696e73756666696369656e746500000000000000000000006000830152602082019050919050565b600061226f601e83612539565b91507f4166666974746f2070616761746f207065722071756573746f206d65736500006000830152602082019050919050565b60006122af602083612539565b91507f506167616d656e746f206e6f6e20646f7675746f2071756573746f206d6573656000830152602082019050919050565b6122eb816125bc565b82525050565b6122fa816125bc565b82525050565b60006020820190506123156000830184611f96565b92915050565b600060208201905081810360008301526123358184611fa5565b905092915050565b60006020820190506123526000830184612003565b92915050565b600060608201905061236d6000830186612003565b61237a6020830185612003565b6123876040830184612003565b949350505050565b60006020820190506123a46000830184612012565b92915050565b60006020820190506123bf6000830184612021565b92915050565b600060208201905081810360008301526123de81612030565b9050919050565b600060208201905081810360008301526123fe81612096565b9050919050565b6000602082019050818103600083015261241e816120fc565b9050919050565b6000602082019050818103600083015261243e8161213c565b9050919050565b6000602082019050818103600083015261245e8161217c565b9050919050565b6000602082019050818103600083015261247e816121bc565b9050919050565b6000602082019050818103600083015261249e81612222565b9050919050565b600060208201905081810360008301526124be81612262565b9050919050565b600060208201905081810360008301526124de816122a2565b9050919050565b60006020820190506124fa60008301846122f1565b92915050565b6000819050602082019050919050565b600081519050919050565b6000602082019050919050565b600082825260208201905092915050565b600082825260208201905092915050565b6000612555826125bc565b9150612560836125bc565b92508282101561257357612572612657565b5b828203905092915050565b60006125898261259c565b9050919050565b60008115159050919050565b600073ffffffffffffffffffffffffffffffffffffffff82169050919050565b6000819050919050565b60006125d1826125d8565b9050919050565b60006125e38261259c565b9050919050565b60006125f5826125fc565b9050919050565b60006126078261259c565b9050919050565b6000612619826125bc565b91507fffffffffffffffffffffffffffffffffffffffffffffffffffffffffffffffff82141561264c5761264b612657565b5b600182019050919050565b7f4e487b7100000000000000000000000000000000000000000000000000000000600052601160045260246000fd5b61268f8161257e565b811461269a57600080fd5b50565b6126a681612590565b81146126b157600080fd5b50565b6126bd816125bc565b81146126c857600080fd5b5056fea2646970667358221220d67a4d14aa0b60bfe26487cd3a8085229929844d3d0fcc06cdfb54a22881535d64736f6c63430008000033",
  "immutableReferences": {},
  "source": "// SPDX-License-Identifier: MIT\npragma solidity ^0.8.0;\n\nimport \"./TimeOracle.sol\";\nimport \"./PriceOracle.sol\";\n\ncontract RentContract {\n    address public landlord;\n    address public tenant1;\n    address public tenant2;\n    uint public rentAmountEur;\n    TimeOracle public timeOracle;\n    PriceOracle public priceOracle;\n    \n    mapping(uint => mapping(address => bool)) public tenantPaidForMonth;\n    mapping(uint => address) public whoCanPayForMonth;\n\n    modifier onlyLandlord() {\n        require(msg.sender == landlord, \"Funzione riservata al proprietario\");\n        _;\n    }\n\n    modifier onlyTenants() {\n        require(msg.sender == tenant1 || msg.sender == tenant2, \"Funzione riservata agli inquilini\");\n        _;\n    }\n\n    constructor(\n        address _landlord, \n        address _tenant1, \n        address _tenant2, \n        uint _rentAmountEur, \n        address _timeOracle,\n        address _priceOracle\n    ) {\n        landlord = _landlord;\n        tenant1 = _tenant1;\n        tenant2 = _tenant2;\n        rentAmountEur = _rentAmountEur;\n        timeOracle = TimeOracle(_timeOracle);\n        priceOracle = PriceOracle(_priceOracle);\n    }\n\n    function payRent(uint month) public payable onlyTenants {\n        uint requiredWei = priceOracle.convertEurToWei(rentAmountEur);\n        require(msg.value >= requiredWei, \"Importo insufficiente\");\n        require(!tenantPaidForMonth[month][msg.sender], \"Affitto pagato per questo mese\");\n        require(timeOracle.isPaymentDue(month), \"Pagamento non dovuto questo mese\");\n\n        if (whoCanPayForMonth[month] != address(0)) {\n            require(msg.sender == whoCanPayForMonth[month], \"Inquilino sbagliato\");\n        }\n\n        tenantPaidForMonth[month][msg.sender] = true;\n        \n        payable(landlord).transfer(requiredWei);\n        \n        if (msg.value > requiredWei) {\n            payable(msg.sender).transfer(msg.value - requiredWei);\n        }\n    }\n\n    function payCurrentMonthRent() public payable onlyTenants {\n        uint currentMonth = timeOracle.getCurrentMonth();\n        payRent(currentMonth);\n    }\n\n    function isRentPaid(uint month) public view returns (bool) {\n        return tenantPaidForMonth[month][tenant1] && tenantPaidForMonth[month][tenant2];\n    }\n\n    function isRentLate(uint month) public view returns (bool) {\n        return timeOracle.isPaymentLate(month) && !isRentPaid(month);\n    }\n\n    function isInGracePeriod(uint month) public view returns (bool) {\n        return timeOracle.isInGracePeriod(month) && !isRentPaid(month);\n    }\n\n    function setTimeOracle(address _timeOracle) external onlyLandlord {\n        timeOracle = TimeOracle(_timeOracle);\n    }\n\n    function setPriceOracle(address _priceOracle) external onlyLandlord {\n        priceOracle = PriceOracle(_priceOracle);\n    }\n\n    function updateRentAmount(uint _newRentAmountEur) external onlyLandlord {\n        rentAmountEur = _newRentAmountEur;\n    }\n\n    function assignTenantForMonth(uint month, address tenant) external onlyLandlord {\n        require(tenant == tenant1 || tenant == tenant2, \"Indirizzo inquilino non valido\");\n        require(!isRentPaid(month), \"Errore pagamento\");\n        whoCanPayForMonth[month] = tenant;\n    }\n\n    function forcePayment(uint month) external onlyLandlord {\n        require(!isRentPaid(month), \"Affitto pagato per questo mese\");\n        require(timeOracle.isPaymentDue(month), \"Pagamento non ancora dovuto per questo mese\");\n\n        tenantPaidForMonth[month][tenant1] = true;\n        tenantPaidForMonth[month][tenant2] = true;\n    }\n\n    function getMonthPaymentStatus(uint month) external view returns (bool tenant1Paid, bool tenant2Paid, bool fullyPaid) {\n        tenant1Paid = tenantPaidForMonth[month][tenant1];\n        tenant2Paid = tenantPaidForMonth[month][tenant2];\n        fullyPaid = tenant1Paid && tenant2Paid;\n    }\n\n    function getLateRentMonths() external view returns (uint[] memory) {\n        uint currentMonth = timeOracle.getCurrentMonth();\n        uint[] memory lateMonths = new uint[](currentMonth);\n        uint count = 0;\n        \n        for (uint i = 1; i < currentMonth; i++) {\n            if (isRentLate(i)) {\n                lateMonths[count] = i;\n                count++;\n            }\n        }\n        \n        uint[] memory result = new uint[](count);\n        for (uint i = 0; i < count; i++) {\n            result[i] = lateMonths[i];\n        }\n        \n        return result;\n    }\n\n    function getCurrentRentInWei() public view returns (uint) {\n        return priceOracle.convertEurToWei(rentAmountEur);\n    }\n\n    function isCurrentRentPaid() public view returns (bool) {\n        return isRentPaid(timeOracle.getCurrentMonth());\n    }\n\n    function getCurrentMonth() public view returns (uint) {\n        return timeOracle.getCurrentMonth();\n    }\n\n    function isTenantPaidForMonth(address tenant, uint month) public view returns (bool) {\n        return tenantPaidForMonth[month][tenant];\n    }\n}",
  "sourcePath": "/home/cavas/simple-rent-contract/contracts/RentContract.sol",
  "compiler": {
    "name": "solc",
    "version": "0.8.0+commit.c7dfd78e.Emscripten.clang"
  },
  "schemaVersion": "3.4.16",
  "updatedAt": "2025-06-23T12:43:40.388Z",
  "networkType": "ethereum",
  "devdoc": {
    "kind": "dev",
    "methods": {},
    "version": 1
  },
  "userdoc": {
    "kind": "user",
    "methods": {},
    "version": 1
  }
}