{
  "contractName": "RentContract",
  "abi": [
    {
      "inputs": [
        {
          "internalType": "address",
          "name": "_landlord",
          "type": "address"
        },
        {
          "internalType": "address",
          "name": "_tenant1",
          "type": "address"
        },
        {
          "internalType": "address",
          "name": "_tenant2",
          "type": "address"
        },
        {
          "internalType": "uint256",
          "name": "_rentAmount",
          "type": "uint256"
        }
      ],
      "stateMutability": "nonpayable",
      "type": "constructor"
    },
    {
      "anonymous": false,
      "inputs": [
        {
          "indexed": true,
          "internalType": "address",
          "name": "tenant",
          "type": "address"
        },
        {
          "indexed": false,
          "internalType": "uint256",
          "name": "amount",
          "type": "uint256"
        }
      ],
      "name": "RentPaid",
      "type": "event"
    },
    {
      "anonymous": false,
      "inputs": [
        {
          "indexed": false,
          "internalType": "bool",
          "name": "paid",
          "type": "bool"
        }
      ],
      "name": "RentStatusChanged",
      "type": "event"
    },
    {
      "inputs": [],
      "name": "landlord",
      "outputs": [
        {
          "internalType": "address",
          "name": "",
          "type": "address"
        }
      ],
      "stateMutability": "view",
      "type": "function",
      "constant": true
    },
    {
      "inputs": [],
      "name": "rentAmount",
      "outputs": [
        {
          "internalType": "uint256",
          "name": "",
          "type": "uint256"
        }
      ],
      "stateMutability": "view",
      "type": "function",
      "constant": true
    },
    {
      "inputs": [],
      "name": "rentPaid",
      "outputs": [
        {
          "internalType": "bool",
          "name": "",
          "type": "bool"
        }
      ],
      "stateMutability": "view",
      "type": "function",
      "constant": true
    },
    {
      "inputs": [],
      "name": "tenant1",
      "outputs": [
        {
          "internalType": "address",
          "name": "",
          "type": "address"
        }
      ],
      "stateMutability": "view",
      "type": "function",
      "constant": true
    },
    {
      "inputs": [],
      "name": "tenant2",
      "outputs": [
        {
          "internalType": "address",
          "name": "",
          "type": "address"
        }
      ],
      "stateMutability": "view",
      "type": "function",
      "constant": true
    },
    {
      "inputs": [],
      "name": "payRent",
      "outputs": [],
      "stateMutability": "payable",
      "type": "function",
      "payable": true
    },
    {
      "inputs": [],
      "name": "resetRent",
      "outputs": [],
      "stateMutability": "nonpayable",
      "type": "function"
    }
  ],
  "bytecode": "0x608060405234801561001057600080fd5b50604051610adc380380610adc83398181016040528101906100329190610149565b836000806101000a81548173ffffffffffffffffffffffffffffffffffffffff021916908373ffffffffffffffffffffffffffffffffffffffff16021790555082600160006101000a81548173ffffffffffffffffffffffffffffffffffffffff021916908373ffffffffffffffffffffffffffffffffffffffff16021790555081600260006101000a81548173ffffffffffffffffffffffffffffffffffffffff021916908373ffffffffffffffffffffffffffffffffffffffff160217905550806003819055506000600460006101000a81548160ff02191690831515021790555050505050610216565b60008151905061012e816101e8565b92915050565b600081519050610143816101ff565b92915050565b6000806000806080858703121561015f57600080fd5b600061016d8782880161011f565b945050602061017e8782880161011f565b935050604061018f8782880161011f565b92505060606101a087828801610134565b91505092959194509250565b60006101b7826101be565b9050919050565b600073ffffffffffffffffffffffffffffffffffffffff82169050919050565b6000819050919050565b6101f1816101ac565b81146101fc57600080fd5b50565b610208816101de565b811461021357600080fd5b50565b6108b7806102256000396000f3fe6080604052600436106100705760003560e01c8063a709c4fe1161004e578063a709c4fe146100f6578063dc1997ea14610100578063edff19681461012b578063f8ef1e131461014257610070565b80630937ed6514610075578063622c2126146100a05780637f025566146100cb575b600080fd5b34801561008157600080fd5b5061008a61016d565b6040516100979190610737565b60405180910390f35b3480156100ac57600080fd5b506100b5610193565b6040516100c29190610737565b60405180910390f35b3480156100d757600080fd5b506100e06101b9565b6040516100ed9190610752565b60405180910390f35b6100fe6101cc565b005b34801561010c57600080fd5b50610115610460565b6040516101229190610737565b60405180910390f35b34801561013757600080fd5b50610140610484565b005b34801561014e57600080fd5b506101576105c4565b604051610164919061080d565b60405180910390f35b600160009054906101000a900473ffffffffffffffffffffffffffffffffffffffff1681565b600260009054906101000a900473ffffffffffffffffffffffffffffffffffffffff1681565b600460009054906101000a900460ff1681565b600160009054906101000a900473ffffffffffffffffffffffffffffffffffffffff1673ffffffffffffffffffffffffffffffffffffffff163373ffffffffffffffffffffffffffffffffffffffff1614806102755750600260009054906101000a900473ffffffffffffffffffffffffffffffffffffffff1673ffffffffffffffffffffffffffffffffffffffff163373ffffffffffffffffffffffffffffffffffffffff16145b6102b4576040517f08c379a00000000000000000000000000000000000000000000000000000000081526004016102ab906107ad565b60405180910390fd5b60035434146102f8576040517f08c379a00000000000000000000000000000000000000000000000000000000081526004016102ef9061078d565b60405180910390fd5b600460009054906101000a900460ff1615610348576040517f08c379a000000000000000000000000000000000000000000000000000000000815260040161033f906107ed565b60405180910390fd5b3373ffffffffffffffffffffffffffffffffffffffff167f03b5033869479e8a98af42b272f05933f60489fe9fb43d63e11a6c31f3fa74743460405161038e919061080d565b60405180910390a260008054906101000a900473ffffffffffffffffffffffffffffffffffffffff1673ffffffffffffffffffffffffffffffffffffffff166108fc349081150290604051600060405180830381858888f193505050501580156103fc573d6000803e3d6000fd5b506001600460006101000a81548160ff0219169083151502179055507f335a828214a0ee2a8ccbc35540ec5aefb0b31fb53988f782c1a7812d9511bd06600460009054906101000a900460ff166040516104569190610752565b60405180910390a1565b60008054906101000a900473ffffffffffffffffffffffffffffffffffffffff1681565b60008054906101000a900473ffffffffffffffffffffffffffffffffffffffff1673ffffffffffffffffffffffffffffffffffffffff163373ffffffffffffffffffffffffffffffffffffffff1614610512576040517f08c379a00000000000000000000000000000000000000000000000000000000081526004016105099061076d565b60405180910390fd5b600460009054906101000a900460ff16610561576040517f08c379a0000000000000000000000000000000000000000000000000000000008152600401610558906107cd565b60405180910390fd5b6000600460006101000a81548160ff0219169083151502179055507f335a828214a0ee2a8ccbc35540ec5aefb0b31fb53988f782c1a7812d9511bd06600460009054906101000a900460ff166040516105ba9190610752565b60405180910390a1565b60035481565b6105d381610839565b82525050565b6105e28161084b565b82525050565b60006105f5601c83610828565b91507f4f6e6c79206c616e646c6f72642063616e2072657365742072656e74000000006000830152602082019050919050565b6000610635601583610828565b91507f496e636f72726563742072656e7420616d6f756e7400000000000000000000006000830152602082019050919050565b6000610675601983610828565b91507f4f6e6c792074656e616e74732063616e207061792072656e74000000000000006000830152602082019050919050565b60006106b5601a83610828565b91507f52656e7420686173206e6f74206265656e2070616964207965740000000000006000830152602082019050919050565b60006106f5601a83610828565b91507f52656e742068617320616c7265616479206265656e20706169640000000000006000830152602082019050919050565b61073181610877565b82525050565b600060208201905061074c60008301846105ca565b92915050565b600060208201905061076760008301846105d9565b92915050565b60006020820190508181036000830152610786816105e8565b9050919050565b600060208201905081810360008301526107a681610628565b9050919050565b600060208201905081810360008301526107c681610668565b9050919050565b600060208201905081810360008301526107e6816106a8565b9050919050565b60006020820190508181036000830152610806816106e8565b9050919050565b60006020820190506108226000830184610728565b92915050565b600082825260208201905092915050565b600061084482610857565b9050919050565b60008115159050919050565b600073ffffffffffffffffffffffffffffffffffffffff82169050919050565b600081905091905056fea264697066735822122077de56c5fa1e17364d0c1cad8573dbcc1aaeb233fdf3b662c51875c70111f03664736f6c63430008000033",
  "immutableReferences": {},
  "source": "// SPDX-License-Identifier: UNLICENSED\npragma solidity ^0.8.0;\n\ncontract RentContract {\n    address public landlord;\n    address public tenant1;\n    address public tenant2;\n    uint public rentAmount;\n    bool public rentPaid;\n\n    event RentPaid(address indexed tenant, uint amount);\n    event RentStatusChanged(bool paid);\n\n    constructor(address _landlord, address _tenant1, address _tenant2, uint _rentAmount) {\n        landlord = _landlord; // Landlord passato come parametro\n        tenant1 = _tenant1;\n        tenant2 = _tenant2;\n        rentAmount = _rentAmount;\n        rentPaid = false;\n    }\n\n    function payRent() public payable {\n        require(msg.sender == tenant1 || msg.sender == tenant2, \"Only tenants can pay rent\");\n        require(msg.value == rentAmount, \"Incorrect rent amount\");\n        require(!rentPaid, \"Rent has already been paid\");\n\n        emit RentPaid(msg.sender, msg.value);\n        \n        // Transfer rent to landlord\n        payable(landlord).transfer(msg.value);\n        \n        // Update rent status\n        rentPaid = true;\n        emit RentStatusChanged(rentPaid);\n    }\n\n    function resetRent() public {\n        require(msg.sender == landlord, \"Only landlord can reset rent\");\n        require(rentPaid, \"Rent has not been paid yet\");\n\n        rentPaid = false;\n        emit RentStatusChanged(rentPaid);\n    }\n}",
  "sourcePath": "/home/mistiko/Scrivania/Database/simple-rent-contract/contracts/RentContract.sol",
  "compiler": {
    "name": "solc",
    "version": "0.8.0+commit.c7dfd78e.Emscripten.clang"
  },
  "schemaVersion": "3.4.16",
  "updatedAt": "2025-06-15T08:04:49.635Z",
  "networkType": "ethereum",
  "devdoc": {
    "kind": "dev",
    "methods": {},
    "version": 1
  },
  "userdoc": {
    "kind": "user",
    "methods": {},
    "version": 1
  }
}