{
  "contractName": "RentContract",
  "abi": [
    {
      "inputs": [
        {
          "internalType": "address",
          "name": "_landlord",
          "type": "address"
        },
        {
          "internalType": "address",
          "name": "_tenant1",
          "type": "address"
        },
        {
          "internalType": "address",
          "name": "_tenant2",
          "type": "address"
        },
        {
          "internalType": "uint256",
          "name": "_rentAmountEur",
          "type": "uint256"
        },
        {
          "internalType": "address",
          "name": "_timeOracle",
          "type": "address"
        },
        {
          "internalType": "address",
          "name": "_priceOracle",
          "type": "address"
        }
      ],
      "stateMutability": "nonpayable",
      "type": "constructor"
    },
    {
      "anonymous": false,
      "inputs": [
        {
          "indexed": false,
          "internalType": "uint256",
          "name": "month",
          "type": "uint256"
        },
        {
          "indexed": false,
          "internalType": "address",
          "name": "tenant",
          "type": "address"
        }
      ],
      "name": "MonthlyAccessGranted",
      "type": "event"
    },
    {
      "anonymous": false,
      "inputs": [
        {
          "indexed": false,
          "internalType": "address",
          "name": "newOracle",
          "type": "address"
        }
      ],
      "name": "PriceOracleUpdated",
      "type": "event"
    },
    {
      "anonymous": false,
      "inputs": [
        {
          "indexed": false,
          "internalType": "uint256",
          "name": "newRentAmount",
          "type": "uint256"
        }
      ],
      "name": "RentAmountUpdated",
      "type": "event"
    },
    {
      "anonymous": false,
      "inputs": [
        {
          "indexed": true,
          "internalType": "address",
          "name": "tenant",
          "type": "address"
        },
        {
          "indexed": false,
          "internalType": "uint256",
          "name": "weiAmount",
          "type": "uint256"
        },
        {
          "indexed": false,
          "internalType": "uint256",
          "name": "eurAmount",
          "type": "uint256"
        },
        {
          "indexed": false,
          "internalType": "uint256",
          "name": "month",
          "type": "uint256"
        }
      ],
      "name": "RentPaid",
      "type": "event"
    },
    {
      "anonymous": false,
      "inputs": [
        {
          "indexed": false,
          "internalType": "address",
          "name": "newOracle",
          "type": "address"
        }
      ],
      "name": "TimeOracleUpdated",
      "type": "event"
    },
    {
      "inputs": [],
      "name": "landlord",
      "outputs": [
        {
          "internalType": "address",
          "name": "",
          "type": "address"
        }
      ],
      "stateMutability": "view",
      "type": "function",
      "constant": true
    },
    {
      "inputs": [],
      "name": "priceOracle",
      "outputs": [
        {
          "internalType": "contract PriceOracle",
          "name": "",
          "type": "address"
        }
      ],
      "stateMutability": "view",
      "type": "function",
      "constant": true
    },
    {
      "inputs": [],
      "name": "rentAmountEur",
      "outputs": [
        {
          "internalType": "uint256",
          "name": "",
          "type": "uint256"
        }
      ],
      "stateMutability": "view",
      "type": "function",
      "constant": true
    },
    {
      "inputs": [],
      "name": "tenant1",
      "outputs": [
        {
          "internalType": "address",
          "name": "",
          "type": "address"
        }
      ],
      "stateMutability": "view",
      "type": "function",
      "constant": true
    },
    {
      "inputs": [],
      "name": "tenant2",
      "outputs": [
        {
          "internalType": "address",
          "name": "",
          "type": "address"
        }
      ],
      "stateMutability": "view",
      "type": "function",
      "constant": true
    },
    {
      "inputs": [
        {
          "internalType": "uint256",
          "name": "",
          "type": "uint256"
        },
        {
          "internalType": "address",
          "name": "",
          "type": "address"
        }
      ],
      "name": "tenantPaidForMonth",
      "outputs": [
        {
          "internalType": "bool",
          "name": "",
          "type": "bool"
        }
      ],
      "stateMutability": "view",
      "type": "function",
      "constant": true
    },
    {
      "inputs": [],
      "name": "timeOracle",
      "outputs": [
        {
          "internalType": "contract TimeOracle",
          "name": "",
          "type": "address"
        }
      ],
      "stateMutability": "view",
      "type": "function",
      "constant": true
    },
    {
      "inputs": [
        {
          "internalType": "uint256",
          "name": "",
          "type": "uint256"
        }
      ],
      "name": "whoCanPayForMonth",
      "outputs": [
        {
          "internalType": "address",
          "name": "",
          "type": "address"
        }
      ],
      "stateMutability": "view",
      "type": "function",
      "constant": true
    },
    {
      "inputs": [],
      "name": "getCurrentRentInWei",
      "outputs": [
        {
          "internalType": "uint256",
          "name": "",
          "type": "uint256"
        }
      ],
      "stateMutability": "view",
      "type": "function",
      "constant": true
    },
    {
      "inputs": [
        {
          "internalType": "uint256",
          "name": "month",
          "type": "uint256"
        }
      ],
      "name": "payRent",
      "outputs": [],
      "stateMutability": "payable",
      "type": "function",
      "payable": true
    },
    {
      "inputs": [],
      "name": "payCurrentMonthRent",
      "outputs": [],
      "stateMutability": "payable",
      "type": "function",
      "payable": true
    },
    {
      "inputs": [
        {
          "internalType": "uint256",
          "name": "month",
          "type": "uint256"
        }
      ],
      "name": "isRentPaid",
      "outputs": [
        {
          "internalType": "bool",
          "name": "",
          "type": "bool"
        }
      ],
      "stateMutability": "view",
      "type": "function",
      "constant": true
    },
    {
      "inputs": [
        {
          "internalType": "address",
          "name": "tenant",
          "type": "address"
        },
        {
          "internalType": "uint256",
          "name": "month",
          "type": "uint256"
        }
      ],
      "name": "isTenantPaidForMonth",
      "outputs": [
        {
          "internalType": "bool",
          "name": "",
          "type": "bool"
        }
      ],
      "stateMutability": "view",
      "type": "function",
      "constant": true
    },
    {
      "inputs": [],
      "name": "getCurrentMonth",
      "outputs": [
        {
          "internalType": "uint256",
          "name": "",
          "type": "uint256"
        }
      ],
      "stateMutability": "view",
      "type": "function",
      "constant": true
    },
    {
      "inputs": [],
      "name": "isCurrentRentPaid",
      "outputs": [
        {
          "internalType": "bool",
          "name": "",
          "type": "bool"
        }
      ],
      "stateMutability": "view",
      "type": "function",
      "constant": true
    },
    {
      "inputs": [
        {
          "internalType": "uint256",
          "name": "month",
          "type": "uint256"
        }
      ],
      "name": "isRentLate",
      "outputs": [
        {
          "internalType": "bool",
          "name": "",
          "type": "bool"
        }
      ],
      "stateMutability": "view",
      "type": "function",
      "constant": true
    },
    {
      "inputs": [
        {
          "internalType": "uint256",
          "name": "month",
          "type": "uint256"
        }
      ],
      "name": "isInGracePeriod",
      "outputs": [
        {
          "internalType": "bool",
          "name": "",
          "type": "bool"
        }
      ],
      "stateMutability": "view",
      "type": "function",
      "constant": true
    },
    {
      "inputs": [
        {
          "internalType": "address",
          "name": "_timeOracle",
          "type": "address"
        }
      ],
      "name": "setTimeOracle",
      "outputs": [],
      "stateMutability": "nonpayable",
      "type": "function"
    },
    {
      "inputs": [
        {
          "internalType": "address",
          "name": "_priceOracle",
          "type": "address"
        }
      ],
      "name": "setPriceOracle",
      "outputs": [],
      "stateMutability": "nonpayable",
      "type": "function"
    },
    {
      "inputs": [
        {
          "internalType": "uint256",
          "name": "_newRentAmountEur",
          "type": "uint256"
        }
      ],
      "name": "updateRentAmount",
      "outputs": [],
      "stateMutability": "nonpayable",
      "type": "function"
    },
    {
      "inputs": [
        {
          "internalType": "uint256",
          "name": "month",
          "type": "uint256"
        },
        {
          "internalType": "address",
          "name": "tenant",
          "type": "address"
        }
      ],
      "name": "assignTenantForMonth",
      "outputs": [],
      "stateMutability": "nonpayable",
      "type": "function"
    },
    {
      "inputs": [
        {
          "internalType": "uint256",
          "name": "month",
          "type": "uint256"
        }
      ],
      "name": "getMonthlyTenant",
      "outputs": [
        {
          "internalType": "address",
          "name": "",
          "type": "address"
        }
      ],
      "stateMutability": "view",
      "type": "function",
      "constant": true
    },
    {
      "inputs": [
        {
          "internalType": "uint256",
          "name": "month",
          "type": "uint256"
        }
      ],
      "name": "forcePayment",
      "outputs": [],
      "stateMutability": "nonpayable",
      "type": "function"
    },
    {
      "inputs": [
        {
          "internalType": "uint256",
          "name": "month",
          "type": "uint256"
        }
      ],
      "name": "getMonthPaymentStatus",
      "outputs": [
        {
          "internalType": "bool",
          "name": "tenant1Paid",
          "type": "bool"
        },
        {
          "internalType": "bool",
          "name": "tenant2Paid",
          "type": "bool"
        },
        {
          "internalType": "bool",
          "name": "fullyPaid",
          "type": "bool"
        }
      ],
      "stateMutability": "view",
      "type": "function",
      "constant": true
    },
    {
      "inputs": [],
      "name": "getLateRentMonths",
      "outputs": [
        {
          "internalType": "uint256[]",
          "name": "",
          "type": "uint256[]"
        }
      ],
      "stateMutability": "view",
      "type": "function",
      "constant": true
    }
  ],
  "bytecode": "0x60806040523480156200001157600080fd5b5060405162002cc338038062002cc38339818101604052810190620000379190620001bc565b856000806101000a81548173ffffffffffffffffffffffffffffffffffffffff021916908373ffffffffffffffffffffffffffffffffffffffff16021790555084600160006101000a81548173ffffffffffffffffffffffffffffffffffffffff021916908373ffffffffffffffffffffffffffffffffffffffff16021790555083600260006101000a81548173ffffffffffffffffffffffffffffffffffffffff021916908373ffffffffffffffffffffffffffffffffffffffff1602179055508260038190555081600460006101000a81548173ffffffffffffffffffffffffffffffffffffffff021916908373ffffffffffffffffffffffffffffffffffffffff16021790555080600560006101000a81548173ffffffffffffffffffffffffffffffffffffffff021916908373ffffffffffffffffffffffffffffffffffffffff160217905550505050505050620002c4565b6000815190506200019f8162000290565b92915050565b600081519050620001b681620002aa565b92915050565b60008060008060008060c08789031215620001d657600080fd5b6000620001e689828a016200018e565b9650506020620001f989828a016200018e565b95505060406200020c89828a016200018e565b94505060606200021f89828a01620001a5565b93505060806200023289828a016200018e565b92505060a06200024589828a016200018e565b9150509295509295509295565b60006200025f8262000266565b9050919050565b600073ffffffffffffffffffffffffffffffffffffffff82169050919050565b6000819050919050565b6200029b8162000252565b8114620002a757600080fd5b50565b620002b58162000286565b8114620002c157600080fd5b50565b6129ef80620002d46000396000f3fe6080604052600436106101665760003560e01c8063716ce78a116100d1578063d26071311161008a578063dc55ebab11610064578063dc55ebab14610547578063ddd1b67e14610551578063fcafd2751461057c578063feefa530146105b957610166565b8063d2607131146104d5578063d9e8843f14610500578063dc1997ea1461051c57610166565b8063716ce78a146103b357806374827a1b146103f05780637f04374b1461041b578063870642c014610446578063aa17839d14610483578063b53f67de146104ac57610166565b8063530e784f11610123578063530e784f1461027f57806359a79635146102a85780635fd503ad146102e5578063622c2126146103225780636735e04c1461034d5780636dd9c9a51461038a57610166565b8063043dd5ef1461016b5780630937ed651461019457806311f2f9ca146101bf5780632630c12f146101fe5780632c74bd95146102295780632dd8623c14610254575b600080fd5b34801561017757600080fd5b50610192600480360381019061018d9190612152565b6105f6565b005b3480156101a057600080fd5b506101a9610844565b6040516101b69190612545565b60405180910390f35b3480156101cb57600080fd5b506101e660048036038101906101e19190612100565b61086a565b6040516101f59392919061259d565b60405180910390f35b34801561020a57600080fd5b50610213610986565b60405161022091906125d4565b60405180910390f35b34801561023557600080fd5b5061023e6109ac565b60405161024b9190612761565b60405180910390f35b34801561026057600080fd5b506102696109b2565b6040516102769190612582565b60405180910390f35b34801561028b57600080fd5b506102a660048036038101906102a19190612072565b610a61565b005b3480156102b457600080fd5b506102cf60048036038101906102ca9190612152565b610b6a565b6040516102dc9190612582565b60405180910390f35b3480156102f157600080fd5b5061030c60048036038101906103079190612100565b610b99565b6040516103199190612582565b60405180910390f35b34801561032e57600080fd5b50610337610caa565b6040516103449190612545565b60405180910390f35b34801561035957600080fd5b50610374600480360381019061036f9190612100565b610cd0565b6040516103819190612582565b60405180910390f35b34801561039657600080fd5b506103b160048036038101906103ac9190612100565b610d96565b005b3480156103bf57600080fd5b506103da60048036038101906103d59190612100565b610e65565b6040516103e79190612545565b60405180910390f35b3480156103fc57600080fd5b50610405610ea2565b6040516104129190612761565b60405180910390f35b34801561042757600080fd5b50610430610f56565b60405161043d9190612560565b60405180910390f35b34801561045257600080fd5b5061046d60048036038101906104689190612100565b611218565b60405161047a9190612582565b60405180910390f35b34801561048f57600080fd5b506104aa60048036038101906104a59190612100565b6112de565b005b3480156104b857600080fd5b506104d360048036038101906104ce9190612072565b6116a6565b005b3480156104e157600080fd5b506104ea6117af565b6040516104f791906125ef565b60405180910390f35b61051a60048036038101906105159190612100565b6117d5565b005b34801561052857600080fd5b50610531611d20565b60405161053e9190612545565b60405180910390f35b61054f611d44565b005b34801561055d57600080fd5b50610566611edc565b6040516105739190612761565b60405180910390f35b34801561058857600080fd5b506105a3600480360381019061059e919061209b565b611f83565b6040516105b09190612582565b60405180910390f35b3480156105c557600080fd5b506105e060048036038101906105db9190612100565b611feb565b6040516105ed9190612545565b60405180910390f35b60008054906101000a900473ffffffffffffffffffffffffffffffffffffffff1673ffffffffffffffffffffffffffffffffffffffff163373ffffffffffffffffffffffffffffffffffffffff1614610684576040517f08c379a000000000000000000000000000000000000000000000000000000000815260040161067b90612641565b60405180910390fd5b600160009054906101000a900473ffffffffffffffffffffffffffffffffffffffff1673ffffffffffffffffffffffffffffffffffffffff168173ffffffffffffffffffffffffffffffffffffffff16148061072d5750600260009054906101000a900473ffffffffffffffffffffffffffffffffffffffff1673ffffffffffffffffffffffffffffffffffffffff168173ffffffffffffffffffffffffffffffffffffffff16145b61076c576040517f08c379a000000000000000000000000000000000000000000000000000000000815260040161076390612721565b60405180910390fd5b61077582610b99565b156107b5576040517f08c379a00000000000000000000000000000000000000000000000000000000081526004016107ac90612701565b60405180910390fd5b806007600084815260200190815260200160002060006101000a81548173ffffffffffffffffffffffffffffffffffffffff021916908373ffffffffffffffffffffffffffffffffffffffff1602179055507f79d55a4e3367ad34a1690ddeeeed7c627a5bee2df2f60d83504d582c4d1ca4cc828260405161083892919061277c565b60405180910390a15050565b600160009054906101000a900473ffffffffffffffffffffffffffffffffffffffff1681565b6000806000600660008581526020019081526020016000206000600160009054906101000a900473ffffffffffffffffffffffffffffffffffffffff1673ffffffffffffffffffffffffffffffffffffffff1673ffffffffffffffffffffffffffffffffffffffff16815260200190815260200160002060009054906101000a900460ff169250600660008581526020019081526020016000206000600260009054906101000a900473ffffffffffffffffffffffffffffffffffffffff1673ffffffffffffffffffffffffffffffffffffffff1673ffffffffffffffffffffffffffffffffffffffff16815260200190815260200160002060009054906101000a900460ff16915082801561097d5750815b90509193909250565b600560009054906101000a900473ffffffffffffffffffffffffffffffffffffffff1681565b60035481565b6000610a5c600460009054906101000a900473ffffffffffffffffffffffffffffffffffffffff1673ffffffffffffffffffffffffffffffffffffffff1663ddd1b67e6040518163ffffffff1660e01b815260040160206040518083038186803b158015610a1f57600080fd5b505afa158015610a33573d6000803e3d6000fd5b505050506040513d601f19601f82011682018060405250810190610a579190612129565b610b99565b905090565b60008054906101000a900473ffffffffffffffffffffffffffffffffffffffff1673ffffffffffffffffffffffffffffffffffffffff163373ffffffffffffffffffffffffffffffffffffffff1614610aef576040517f08c379a0000000000000000000000000000000000000000000000000000000008152600401610ae690612641565b60405180910390fd5b80600560006101000a81548173ffffffffffffffffffffffffffffffffffffffff021916908373ffffffffffffffffffffffffffffffffffffffff1602179055507fefe8ab924ca486283a79dc604baa67add51afb82af1db8ac386ebbba643cdffd81604051610b5f9190612545565b60405180910390a150565b60066020528160005260406000206020528060005260406000206000915091509054906101000a900460ff1681565b6000600660008381526020019081526020016000206000600160009054906101000a900473ffffffffffffffffffffffffffffffffffffffff1673ffffffffffffffffffffffffffffffffffffffff1673ffffffffffffffffffffffffffffffffffffffff16815260200190815260200160002060009054906101000a900460ff168015610ca35750600660008381526020019081526020016000206000600260009054906101000a900473ffffffffffffffffffffffffffffffffffffffff1673ffffffffffffffffffffffffffffffffffffffff1673ffffffffffffffffffffffffffffffffffffffff16815260200190815260200160002060009054906101000a900460ff165b9050919050565b600260009054906101000a900473ffffffffffffffffffffffffffffffffffffffff1681565b6000600460009054906101000a900473ffffffffffffffffffffffffffffffffffffffff1673ffffffffffffffffffffffffffffffffffffffff16636735e04c836040518263ffffffff1660e01b8152600401610d2d9190612761565b60206040518083038186803b158015610d4557600080fd5b505afa158015610d59573d6000803e3d6000fd5b505050506040513d601f19601f82011682018060405250810190610d7d91906120d7565b8015610d8f5750610d8d82610b99565b155b9050919050565b60008054906101000a900473ffffffffffffffffffffffffffffffffffffffff1673ffffffffffffffffffffffffffffffffffffffff163373ffffffffffffffffffffffffffffffffffffffff1614610e24576040517f08c379a0000000000000000000000000000000000000000000000000000000008152600401610e1b90612641565b60405180910390fd5b806003819055507fb2f6931db0f342f0fa2bd590cd698c166d4112d06d20c0b75ab7f580789d5f6481604051610e5a9190612761565b60405180910390a150565b60006007600083815260200190815260200160002060009054906101000a900473ffffffffffffffffffffffffffffffffffffffff169050919050565b6000600560009054906101000a900473ffffffffffffffffffffffffffffffffffffffff1673ffffffffffffffffffffffffffffffffffffffff1663a17a97fc6003546040518263ffffffff1660e01b8152600401610f019190612761565b60206040518083038186803b158015610f1957600080fd5b505afa158015610f2d573d6000803e3d6000fd5b505050506040513d601f19601f82011682018060405250810190610f519190612129565b905090565b60606000600460009054906101000a900473ffffffffffffffffffffffffffffffffffffffff1673ffffffffffffffffffffffffffffffffffffffff1663ddd1b67e6040518163ffffffff1660e01b815260040160206040518083038186803b158015610fc257600080fd5b505afa158015610fd6573d6000803e3d6000fd5b505050506040513d601f19601f82011682018060405250810190610ffa9190612129565b905060008167ffffffffffffffff81111561103e577f4e487b7100000000000000000000000000000000000000000000000000000000600052604160045260246000fd5b60405190808252806020026020018201604052801561106c5781602001602082028036833780820191505090505b509050600080600190505b838110156110f55761108881611218565b156110e257808383815181106110c7577f4e487b7100000000000000000000000000000000000000000000000000000000600052603260045260246000fd5b60200260200101818152505081806110de906128fc565b9250505b80806110ed906128fc565b915050611077565b5060008167ffffffffffffffff811115611138577f4e487b7100000000000000000000000000000000000000000000000000000000600052604160045260246000fd5b6040519080825280602002602001820160405280156111665781602001602082028036833780820191505090505b50905060005b8281101561120d578381815181106111ad577f4e487b7100000000000000000000000000000000000000000000000000000000600052603260045260246000fd5b60200260200101518282815181106111ee577f4e487b7100000000000000000000000000000000000000000000000000000000600052603260045260246000fd5b6020026020010181815250508080611205906128fc565b91505061116c565b508094505050505090565b6000600460009054906101000a900473ffffffffffffffffffffffffffffffffffffffff1673ffffffffffffffffffffffffffffffffffffffff1663093f5617836040518263ffffffff1660e01b81526004016112759190612761565b60206040518083038186803b15801561128d57600080fd5b505afa1580156112a1573d6000803e3d6000fd5b505050506040513d601f19601f820116820180604052508101906112c591906120d7565b80156112d757506112d582610b99565b155b9050919050565b60008054906101000a900473ffffffffffffffffffffffffffffffffffffffff1673ffffffffffffffffffffffffffffffffffffffff163373ffffffffffffffffffffffffffffffffffffffff161461136c576040517f08c379a000000000000000000000000000000000000000000000000000000000815260040161136390612641565b60405180910390fd5b61137581610b99565b156113b5576040517f08c379a00000000000000000000000000000000000000000000000000000000081526004016113ac906126c1565b60405180910390fd5b600460009054906101000a900473ffffffffffffffffffffffffffffffffffffffff1673ffffffffffffffffffffffffffffffffffffffff1663e816e87f826040518263ffffffff1660e01b81526004016114109190612761565b60206040518083038186803b15801561142857600080fd5b505afa15801561143c573d6000803e3d6000fd5b505050506040513d601f19601f8201168201806040525081019061146091906120d7565b61149f576040517f08c379a000000000000000000000000000000000000000000000000000000000815260040161149690612681565b60405180910390fd5b6001600660008381526020019081526020016000206000600160009054906101000a900473ffffffffffffffffffffffffffffffffffffffff1673ffffffffffffffffffffffffffffffffffffffff1673ffffffffffffffffffffffffffffffffffffffff16815260200190815260200160002060006101000a81548160ff0219169083151502179055506001600660008381526020019081526020016000206000600260009054906101000a900473ffffffffffffffffffffffffffffffffffffffff1673ffffffffffffffffffffffffffffffffffffffff1673ffffffffffffffffffffffffffffffffffffffff16815260200190815260200160002060006101000a81548160ff021916908315150217905550600160009054906101000a900473ffffffffffffffffffffffffffffffffffffffff1673ffffffffffffffffffffffffffffffffffffffff167f2d2423890bc33b8290b6bf4c590927cc8a367ef6c70744a602984e45a4bf11776000600354846040516116249392919061260a565b60405180910390a2600260009054906101000a900473ffffffffffffffffffffffffffffffffffffffff1673ffffffffffffffffffffffffffffffffffffffff167f2d2423890bc33b8290b6bf4c590927cc8a367ef6c70744a602984e45a4bf117760006003548460405161169b9392919061260a565b60405180910390a250565b60008054906101000a900473ffffffffffffffffffffffffffffffffffffffff1673ffffffffffffffffffffffffffffffffffffffff163373ffffffffffffffffffffffffffffffffffffffff1614611734576040517f08c379a000000000000000000000000000000000000000000000000000000000815260040161172b90612641565b60405180910390fd5b80600460006101000a81548173ffffffffffffffffffffffffffffffffffffffff021916908373ffffffffffffffffffffffffffffffffffffffff1602179055507f1e58be64ed1f6054e26f60a6ca931e438de1e991da37bf88b3245810c5093d28816040516117a49190612545565b60405180910390a150565b600460009054906101000a900473ffffffffffffffffffffffffffffffffffffffff1681565b600160009054906101000a900473ffffffffffffffffffffffffffffffffffffffff1673ffffffffffffffffffffffffffffffffffffffff163373ffffffffffffffffffffffffffffffffffffffff16148061187e5750600260009054906101000a900473ffffffffffffffffffffffffffffffffffffffff1673ffffffffffffffffffffffffffffffffffffffff163373ffffffffffffffffffffffffffffffffffffffff16145b6118bd576040517f08c379a00000000000000000000000000000000000000000000000000000000081526004016118b4906126a1565b60405180910390fd5b60006118c7610ea2565b90508034101561190c576040517f08c379a000000000000000000000000000000000000000000000000000000000815260040161190390612741565b60405180910390fd5b6006600083815260200190815260200160002060003373ffffffffffffffffffffffffffffffffffffffff1673ffffffffffffffffffffffffffffffffffffffff16815260200190815260200160002060009054906101000a900460ff16156119aa576040517f08c379a00000000000000000000000000000000000000000000000000000000081526004016119a1906126e1565b60405180910390fd5b600460009054906101000a900473ffffffffffffffffffffffffffffffffffffffff1673ffffffffffffffffffffffffffffffffffffffff1663e816e87f836040518263ffffffff1660e01b8152600401611a059190612761565b60206040518083038186803b158015611a1d57600080fd5b505afa158015611a31573d6000803e3d6000fd5b505050506040513d601f19601f82011682018060405250810190611a5591906120d7565b611a94576040517f08c379a0000000000000000000000000000000000000000000000000000000008152600401611a8b90612681565b60405180910390fd5b600073ffffffffffffffffffffffffffffffffffffffff166007600084815260200190815260200160002060009054906101000a900473ffffffffffffffffffffffffffffffffffffffff1673ffffffffffffffffffffffffffffffffffffffff1614611b9d576007600083815260200190815260200160002060009054906101000a900473ffffffffffffffffffffffffffffffffffffffff1673ffffffffffffffffffffffffffffffffffffffff163373ffffffffffffffffffffffffffffffffffffffff1614611b9c576040517f08c379a0000000000000000000000000000000000000000000000000000000008152600401611b9390612661565b60405180910390fd5b5b60016006600084815260200190815260200160002060003373ffffffffffffffffffffffffffffffffffffffff1673ffffffffffffffffffffffffffffffffffffffff16815260200190815260200160002060006101000a81548160ff0219169083151502179055503373ffffffffffffffffffffffffffffffffffffffff167f2d2423890bc33b8290b6bf4c590927cc8a367ef6c70744a602984e45a4bf11778260035485604051611c52939291906127a5565b60405180910390a260008054906101000a900473ffffffffffffffffffffffffffffffffffffffff1673ffffffffffffffffffffffffffffffffffffffff166108fc829081150290604051600060405180830381858888f19350505050158015611cc0573d6000803e3d6000fd5b5080341115611d1c573373ffffffffffffffffffffffffffffffffffffffff166108fc8234611cef9190612826565b9081150290604051600060405180830381858888f19350505050158015611d1a573d6000803e3d6000fd5b505b5050565b60008054906101000a900473ffffffffffffffffffffffffffffffffffffffff1681565b600160009054906101000a900473ffffffffffffffffffffffffffffffffffffffff1673ffffffffffffffffffffffffffffffffffffffff163373ffffffffffffffffffffffffffffffffffffffff161480611ded5750600260009054906101000a900473ffffffffffffffffffffffffffffffffffffffff1673ffffffffffffffffffffffffffffffffffffffff163373ffffffffffffffffffffffffffffffffffffffff16145b611e2c576040517f08c379a0000000000000000000000000000000000000000000000000000000008152600401611e23906126a1565b60405180910390fd5b6000600460009054906101000a900473ffffffffffffffffffffffffffffffffffffffff1673ffffffffffffffffffffffffffffffffffffffff1663ddd1b67e6040518163ffffffff1660e01b815260040160206040518083038186803b158015611e9657600080fd5b505afa158015611eaa573d6000803e3d6000fd5b505050506040513d601f19601f82011682018060405250810190611ece9190612129565b9050611ed9816117d5565b50565b6000600460009054906101000a900473ffffffffffffffffffffffffffffffffffffffff1673ffffffffffffffffffffffffffffffffffffffff1663ddd1b67e6040518163ffffffff1660e01b815260040160206040518083038186803b158015611f4657600080fd5b505afa158015611f5a573d6000803e3d6000fd5b505050506040513d601f19601f82011682018060405250810190611f7e9190612129565b905090565b60006006600083815260200190815260200160002060008473ffffffffffffffffffffffffffffffffffffffff1673ffffffffffffffffffffffffffffffffffffffff16815260200190815260200160002060009054906101000a900460ff16905092915050565b60076020528060005260406000206000915054906101000a900473ffffffffffffffffffffffffffffffffffffffff1681565b60008135905061202d81612974565b92915050565b6000815190506120428161298b565b92915050565b600081359050612057816129a2565b92915050565b60008151905061206c816129a2565b92915050565b60006020828403121561208457600080fd5b60006120928482850161201e565b91505092915050565b600080604083850312156120ae57600080fd5b60006120bc8582860161201e565b92505060206120cd85828601612048565b9150509250929050565b6000602082840312156120e957600080fd5b60006120f784828501612033565b91505092915050565b60006020828403121561211257600080fd5b600061212084828501612048565b91505092915050565b60006020828403121561213b57600080fd5b60006121498482850161205d565b91505092915050565b6000806040838503121561216557600080fd5b600061217385828601612048565b92505060206121848582860161201e565b9150509250929050565b600061219a8383612527565b60208301905092915050565b6121af8161285a565b82525050565b60006121c0826127ec565b6121ca8185612804565b93506121d5836127dc565b8060005b838110156122065781516121ed888261218e565b97506121f8836127f7565b9250506001810190506121d9565b5085935050505092915050565b61221c8161286c565b82525050565b61222b816128a2565b82525050565b61223a816128c6565b82525050565b612249816128ea565b82525050565b600061225c602483612815565b91507f4f6e6c79206c616e646c6f72642063616e2063616c6c20746869732066756e6360008301527f74696f6e000000000000000000000000000000000000000000000000000000006020830152604082019050919050565b60006122c2601b83612815565b91507f57726f6e672074656e616e7420666f722074686973206d6f6e746800000000006000830152602082019050919050565b6000612302602283612815565b91507f5061796d656e74206e6f74207965742064756520666f722074686973206d6f6e60008301527f74680000000000000000000000000000000000000000000000000000000000006020830152604082019050919050565b6000612368601983612815565b91507f4f6e6c792074656e616e74732063616e207061792072656e74000000000000006000830152602082019050919050565b60006123a8602683612815565b91507f52656e7420616c72656164792066756c6c79207061696420666f72207468697360008301527f206d6f6e746800000000000000000000000000000000000000000000000000006020830152604082019050919050565b600061240e601f83612815565b91507f596f7520616c7265616479207061696420666f722074686973206d6f6e7468006000830152602082019050919050565b600061244e603183612815565b91507f43616e6e6f742061737369676e2074656e616e7420666f7220616c726561647960008301527f2066756c6c792070616964206d6f6e74680000000000000000000000000000006020830152604082019050919050565b60006124b4601683612815565b91507f496e76616c69642074656e616e742061646472657373000000000000000000006000830152602082019050919050565b60006124f4601b83612815565b91507f496e73756666696369656e74207061796d656e7420616d6f756e7400000000006000830152602082019050919050565b61253081612898565b82525050565b61253f81612898565b82525050565b600060208201905061255a60008301846121a6565b92915050565b6000602082019050818103600083015261257a81846121b5565b905092915050565b60006020820190506125976000830184612213565b92915050565b60006060820190506125b26000830186612213565b6125bf6020830185612213565b6125cc6040830184612213565b949350505050565b60006020820190506125e96000830184612222565b92915050565b60006020820190506126046000830184612231565b92915050565b600060608201905061261f6000830186612240565b61262c6020830185612536565b6126396040830184612536565b949350505050565b6000602082019050818103600083015261265a8161224f565b9050919050565b6000602082019050818103600083015261267a816122b5565b9050919050565b6000602082019050818103600083015261269a816122f5565b9050919050565b600060208201905081810360008301526126ba8161235b565b9050919050565b600060208201905081810360008301526126da8161239b565b9050919050565b600060208201905081810360008301526126fa81612401565b9050919050565b6000602082019050818103600083015261271a81612441565b9050919050565b6000602082019050818103600083015261273a816124a7565b9050919050565b6000602082019050818103600083015261275a816124e7565b9050919050565b60006020820190506127766000830184612536565b92915050565b60006040820190506127916000830185612536565b61279e60208301846121a6565b9392505050565b60006060820190506127ba6000830186612536565b6127c76020830185612536565b6127d46040830184612536565b949350505050565b6000819050602082019050919050565b600081519050919050565b6000602082019050919050565b600082825260208201905092915050565b600082825260208201905092915050565b600061283182612898565b915061283c83612898565b92508282101561284f5761284e612945565b5b828203905092915050565b600061286582612878565b9050919050565b60008115159050919050565b600073ffffffffffffffffffffffffffffffffffffffff82169050919050565b6000819050919050565b60006128ad826128b4565b9050919050565b60006128bf82612878565b9050919050565b60006128d1826128d8565b9050919050565b60006128e382612878565b9050919050565b60006128f582612898565b9050919050565b600061290782612898565b91507fffffffffffffffffffffffffffffffffffffffffffffffffffffffffffffffff82141561293a57612939612945565b5b600182019050919050565b7f4e487b7100000000000000000000000000000000000000000000000000000000600052601160045260246000fd5b61297d8161285a565b811461298857600080fd5b50565b6129948161286c565b811461299f57600080fd5b50565b6129ab81612898565b81146129b657600080fd5b5056fea26469706673582212203b7c9abc4170ac29ef6f728a00566015efbe387566a3c46950326c46d70750ad64736f6c63430008000033",
  "immutableReferences": {},
  "source": "pragma solidity ^0.8.0;\n\nimport \"./TimeOracle.sol\";\nimport \"./PriceOracle.sol\";\n\ncontract RentContract {\n    address public landlord;\n    address public tenant1;\n    address public tenant2;\n    uint public rentAmountEur;\n    TimeOracle public timeOracle;\n    PriceOracle public priceOracle;\n    \n    mapping(uint => mapping(address => bool)) public tenantPaidForMonth;\n    mapping(uint => address) public whoCanPayForMonth;\n    \n    event RentPaid(address indexed tenant, uint weiAmount, uint eurAmount, uint month);\n    event TimeOracleUpdated(address newOracle);\n    event PriceOracleUpdated(address newOracle);\n    event MonthlyAccessGranted(uint month, address tenant);\n    event RentAmountUpdated(uint newRentAmount);\n\n    modifier onlyLandlord() {\n        require(msg.sender == landlord, \"Only landlord can call this function\");\n        _;\n    }\n\n    modifier onlyTenants() {\n        require(msg.sender == tenant1 || msg.sender == tenant2, \"Only tenants can pay rent\");\n        _;\n    }\n\n    constructor(\n        address _landlord, \n        address _tenant1, \n        address _tenant2, \n        uint _rentAmountEur, \n        address _timeOracle,\n        address _priceOracle\n    ) {\n        landlord = _landlord;\n        tenant1 = _tenant1;\n        tenant2 = _tenant2;\n        rentAmountEur = _rentAmountEur;\n        timeOracle = TimeOracle(_timeOracle);\n        priceOracle = PriceOracle(_priceOracle);\n    }\n\n    function getCurrentRentInWei() public view returns (uint) {\n        return priceOracle.convertEurToWei(rentAmountEur);\n    }\n\n    function payRent(uint month) public payable onlyTenants {\n        uint requiredWei = getCurrentRentInWei();\n        require(msg.value >= requiredWei, \"Insufficient payment amount\");\n        require(!tenantPaidForMonth[month][msg.sender], \"You already paid for this month\");\n        require(timeOracle.isPaymentDue(month), \"Payment not yet due for this month\");\n   \n        if (whoCanPayForMonth[month] != address(0)) {\n            require(msg.sender == whoCanPayForMonth[month], \"Wrong tenant for this month\");\n        }\n\n        tenantPaidForMonth[month][msg.sender] = true;\n        emit RentPaid(msg.sender, requiredWei, rentAmountEur, month);\n\n        payable(landlord).transfer(requiredWei);\n        \n        if (msg.value > requiredWei) {\n            payable(msg.sender).transfer(msg.value - requiredWei);\n        }\n    }\n\n    function payCurrentMonthRent() public payable onlyTenants {\n        uint currentMonth = timeOracle.getCurrentMonth();\n        payRent(currentMonth);\n    }\n\n    function isRentPaid(uint month) public view returns (bool) {\n        return tenantPaidForMonth[month][tenant1] && tenantPaidForMonth[month][tenant2];\n    }\n\n    function isTenantPaidForMonth(address tenant, uint month) public view returns (bool) {\n        return tenantPaidForMonth[month][tenant];\n    }\n\n    function getCurrentMonth() public view returns (uint) {\n        return timeOracle.getCurrentMonth();\n    }\n\n    function isCurrentRentPaid() public view returns (bool) {\n        return isRentPaid(timeOracle.getCurrentMonth());\n    }\n\n    function isRentLate(uint month) public view returns (bool) {\n        return timeOracle.isPaymentLate(month) && !isRentPaid(month);\n    }\n\n    function isInGracePeriod(uint month) public view returns (bool) {\n        return timeOracle.isInGracePeriod(month) && !isRentPaid(month);\n    }\n\n    function setTimeOracle(address _timeOracle) external onlyLandlord {\n        timeOracle = TimeOracle(_timeOracle);\n        emit TimeOracleUpdated(_timeOracle);\n    }\n\n    function setPriceOracle(address _priceOracle) external onlyLandlord {\n        priceOracle = PriceOracle(_priceOracle);\n        emit PriceOracleUpdated(_priceOracle);\n    }\n\n    function updateRentAmount(uint _newRentAmountEur) external onlyLandlord {\n        rentAmountEur = _newRentAmountEur;\n        emit RentAmountUpdated(_newRentAmountEur);\n    }\n\n    function assignTenantForMonth(uint month, address tenant) external onlyLandlord {\n        require(tenant == tenant1 || tenant == tenant2, \"Invalid tenant address\");\n        require(!isRentPaid(month), \"Cannot assign tenant for already fully paid month\");\n        whoCanPayForMonth[month] = tenant;\n        emit MonthlyAccessGranted(month, tenant);\n    }\n\n    function getMonthlyTenant(uint month) public view returns (address) {\n        return whoCanPayForMonth[month];\n    }\n\n    function forcePayment(uint month) external onlyLandlord {\n        require(!isRentPaid(month), \"Rent already fully paid for this month\");\n        require(timeOracle.isPaymentDue(month), \"Payment not yet due for this month\");\n        \n        tenantPaidForMonth[month][tenant1] = true;\n        tenantPaidForMonth[month][tenant2] = true;\n        \n        emit RentPaid(tenant1, 0, rentAmountEur, month);\n        emit RentPaid(tenant2, 0, rentAmountEur, month);\n    }\n\n    function getMonthPaymentStatus(uint month) external view returns (bool tenant1Paid, bool tenant2Paid, bool fullyPaid) {\n        tenant1Paid = tenantPaidForMonth[month][tenant1];\n        tenant2Paid = tenantPaidForMonth[month][tenant2];\n        fullyPaid = tenant1Paid && tenant2Paid;\n    }\n\n    function getLateRentMonths() external view returns (uint[] memory) {\n        uint currentMonth = timeOracle.getCurrentMonth();\n        uint[] memory lateMonths = new uint[](currentMonth);\n        uint count = 0;\n        \n        for (uint i = 1; i < currentMonth; i++) {\n            if (isRentLate(i)) {\n                lateMonths[count] = i;\n                count++;\n            }\n        }\n        \n        uint[] memory result = new uint[](count);\n        for (uint i = 0; i < count; i++) {\n            result[i] = lateMonths[i];\n        }\n        \n        return result;\n    }\n}",
  "sourcePath": "/home/cavas/simple-rent-contract/contracts/RentContract.sol",
  "compiler": {
    "name": "solc",
    "version": "0.8.0+commit.c7dfd78e.Emscripten.clang"
  },
  "schemaVersion": "3.4.16",
  "updatedAt": "2025-06-20T10:04:30.180Z",
  "networkType": "ethereum",
  "devdoc": {
    "kind": "dev",
    "methods": {},
    "version": 1
  },
  "userdoc": {
    "kind": "user",
    "methods": {},
    "version": 1
  }
}