{
  "contractName": "RentContract",
  "abi": [
    {
      "inputs": [
        {
          "internalType": "address",
          "name": "_landlord",
          "type": "address"
        },
        {
          "internalType": "address",
          "name": "_tenant1",
          "type": "address"
        },
        {
          "internalType": "address",
          "name": "_tenant2",
          "type": "address"
        },
        {
          "internalType": "uint256",
          "name": "_rentAmountEur",
          "type": "uint256"
        },
        {
          "internalType": "address",
          "name": "_timeOracle",
          "type": "address"
        },
        {
          "internalType": "address",
          "name": "_priceOracle",
          "type": "address"
        }
      ],
      "stateMutability": "nonpayable",
      "type": "constructor"
    },
    {
      "inputs": [],
      "name": "landlord",
      "outputs": [
        {
          "internalType": "address",
          "name": "",
          "type": "address"
        }
      ],
      "stateMutability": "view",
      "type": "function",
      "constant": true
    },
    {
      "inputs": [],
      "name": "priceOracle",
      "outputs": [
        {
          "internalType": "contract PriceOracle",
          "name": "",
          "type": "address"
        }
      ],
      "stateMutability": "view",
      "type": "function",
      "constant": true
    },
    {
      "inputs": [],
      "name": "rentAmountEur",
      "outputs": [
        {
          "internalType": "uint256",
          "name": "",
          "type": "uint256"
        }
      ],
      "stateMutability": "view",
      "type": "function",
      "constant": true
    },
    {
      "inputs": [],
      "name": "tenant1",
      "outputs": [
        {
          "internalType": "address",
          "name": "",
          "type": "address"
        }
      ],
      "stateMutability": "view",
      "type": "function",
      "constant": true
    },
    {
      "inputs": [],
      "name": "tenant2",
      "outputs": [
        {
          "internalType": "address",
          "name": "",
          "type": "address"
        }
      ],
      "stateMutability": "view",
      "type": "function",
      "constant": true
    },
    {
      "inputs": [
        {
          "internalType": "uint256",
          "name": "",
          "type": "uint256"
        },
        {
          "internalType": "address",
          "name": "",
          "type": "address"
        }
      ],
      "name": "tenantPaidForMonth",
      "outputs": [
        {
          "internalType": "bool",
          "name": "",
          "type": "bool"
        }
      ],
      "stateMutability": "view",
      "type": "function",
      "constant": true
    },
    {
      "inputs": [],
      "name": "timeOracle",
      "outputs": [
        {
          "internalType": "contract TimeOracle",
          "name": "",
          "type": "address"
        }
      ],
      "stateMutability": "view",
      "type": "function",
      "constant": true
    },
    {
      "inputs": [
        {
          "internalType": "uint256",
          "name": "month",
          "type": "uint256"
        }
      ],
      "name": "payRent",
      "outputs": [],
      "stateMutability": "payable",
      "type": "function",
      "payable": true
    },
    {
      "inputs": [],
      "name": "payCurrentMonthRent",
      "outputs": [],
      "stateMutability": "payable",
      "type": "function",
      "payable": true
    },
    {
      "inputs": [
        {
          "internalType": "uint256",
          "name": "month",
          "type": "uint256"
        }
      ],
      "name": "isRentPaid",
      "outputs": [
        {
          "internalType": "bool",
          "name": "",
          "type": "bool"
        }
      ],
      "stateMutability": "view",
      "type": "function",
      "constant": true
    },
    {
      "inputs": [
        {
          "internalType": "uint256",
          "name": "month",
          "type": "uint256"
        }
      ],
      "name": "isRentLate",
      "outputs": [
        {
          "internalType": "bool",
          "name": "",
          "type": "bool"
        }
      ],
      "stateMutability": "view",
      "type": "function",
      "constant": true
    },
    {
      "inputs": [
        {
          "internalType": "uint256",
          "name": "month",
          "type": "uint256"
        }
      ],
      "name": "isInGracePeriod",
      "outputs": [
        {
          "internalType": "bool",
          "name": "",
          "type": "bool"
        }
      ],
      "stateMutability": "view",
      "type": "function",
      "constant": true
    },
    {
      "inputs": [
        {
          "internalType": "address",
          "name": "_timeOracle",
          "type": "address"
        }
      ],
      "name": "setTimeOracle",
      "outputs": [],
      "stateMutability": "nonpayable",
      "type": "function"
    },
    {
      "inputs": [
        {
          "internalType": "address",
          "name": "_priceOracle",
          "type": "address"
        }
      ],
      "name": "setPriceOracle",
      "outputs": [],
      "stateMutability": "nonpayable",
      "type": "function"
    },
    {
      "inputs": [
        {
          "internalType": "uint256",
          "name": "month",
          "type": "uint256"
        }
      ],
      "name": "getMonthPaymentStatus",
      "outputs": [
        {
          "internalType": "bool",
          "name": "tenant1Paid",
          "type": "bool"
        },
        {
          "internalType": "bool",
          "name": "tenant2Paid",
          "type": "bool"
        },
        {
          "internalType": "bool",
          "name": "fullyPaid",
          "type": "bool"
        }
      ],
      "stateMutability": "view",
      "type": "function",
      "constant": true
    },
    {
      "inputs": [],
      "name": "getLateRentMonths",
      "outputs": [
        {
          "internalType": "uint256[]",
          "name": "",
          "type": "uint256[]"
        }
      ],
      "stateMutability": "view",
      "type": "function",
      "constant": true
    }
  ],
  "bytecode": "0x60806040523480156200001157600080fd5b5060405162001cf038038062001cf08339818101604052810190620000379190620001bc565b856000806101000a81548173ffffffffffffffffffffffffffffffffffffffff021916908373ffffffffffffffffffffffffffffffffffffffff16021790555084600160006101000a81548173ffffffffffffffffffffffffffffffffffffffff021916908373ffffffffffffffffffffffffffffffffffffffff16021790555083600260006101000a81548173ffffffffffffffffffffffffffffffffffffffff021916908373ffffffffffffffffffffffffffffffffffffffff1602179055508260038190555081600460006101000a81548173ffffffffffffffffffffffffffffffffffffffff021916908373ffffffffffffffffffffffffffffffffffffffff16021790555080600560006101000a81548173ffffffffffffffffffffffffffffffffffffffff021916908373ffffffffffffffffffffffffffffffffffffffff160217905550505050505050620002c4565b6000815190506200019f8162000290565b92915050565b600081519050620001b681620002aa565b92915050565b60008060008060008060c08789031215620001d657600080fd5b6000620001e689828a016200018e565b9650506020620001f989828a016200018e565b95505060406200020c89828a016200018e565b94505060606200021f89828a01620001a5565b93505060806200023289828a016200018e565b92505060a06200024589828a016200018e565b9150509295509295509295565b60006200025f8262000266565b9050919050565b600073ffffffffffffffffffffffffffffffffffffffff82169050919050565b6000819050919050565b6200029b8162000252565b8114620002a757600080fd5b50565b620002b58162000286565b8114620002c157600080fd5b50565b611a1c80620002d46000396000f3fe6080604052600436106100f35760003560e01c80636735e04c1161008a578063d260713111610059578063d260713114610354578063d9e8843f1461037f578063dc1997ea1461039b578063dc55ebab146103c6576100f3565b80636735e04c146102865780637f04374b146102c3578063870642c0146102ee578063b53f67de1461032b576100f3565b8063530e784f116100c6578063530e784f146101b857806359a79635146101e15780635fd503ad1461021e578063622c21261461025b576100f3565b80630937ed65146100f857806311f2f9ca146101235780632630c12f146101625780632c74bd951461018d575b600080fd5b34801561010457600080fd5b5061010d6103d0565b60405161011a919061169b565b60405180910390f35b34801561012f57600080fd5b5061014a600480360381019061014591906113b1565b6103f6565b604051610159939291906116f3565b60405180910390f35b34801561016e57600080fd5b50610177610512565b604051610184919061172a565b60405180910390f35b34801561019957600080fd5b506101a2610538565b6040516101af9190611800565b60405180910390f35b3480156101c457600080fd5b506101df60048036038101906101da919061135f565b61053e565b005b3480156101ed57600080fd5b5061020860048036038101906102039190611403565b610610565b60405161021591906116d8565b60405180910390f35b34801561022a57600080fd5b50610245600480360381019061024091906113b1565b61063f565b60405161025291906116d8565b60405180910390f35b34801561026757600080fd5b50610270610750565b60405161027d919061169b565b60405180910390f35b34801561029257600080fd5b506102ad60048036038101906102a891906113b1565b610776565b6040516102ba91906116d8565b60405180910390f35b3480156102cf57600080fd5b506102d861083c565b6040516102e591906116b6565b60405180910390f35b3480156102fa57600080fd5b50610315600480360381019061031091906113b1565b610afe565b60405161032291906116d8565b60405180910390f35b34801561033757600080fd5b50610352600480360381019061034d919061135f565b610bc4565b005b34801561036057600080fd5b50610369610c96565b6040516103769190611745565b60405180910390f35b610399600480360381019061039491906113b1565b610cbc565b005b3480156103a757600080fd5b506103b061114f565b6040516103bd919061169b565b60405180910390f35b6103ce611173565b005b600160009054906101000a900473ffffffffffffffffffffffffffffffffffffffff1681565b6000806000600660008581526020019081526020016000206000600160009054906101000a900473ffffffffffffffffffffffffffffffffffffffff1673ffffffffffffffffffffffffffffffffffffffff1673ffffffffffffffffffffffffffffffffffffffff16815260200190815260200160002060009054906101000a900460ff169250600660008581526020019081526020016000206000600260009054906101000a900473ffffffffffffffffffffffffffffffffffffffff1673ffffffffffffffffffffffffffffffffffffffff1673ffffffffffffffffffffffffffffffffffffffff16815260200190815260200160002060009054906101000a900460ff1691508280156105095750815b90509193909250565b600560009054906101000a900473ffffffffffffffffffffffffffffffffffffffff1681565b60035481565b60008054906101000a900473ffffffffffffffffffffffffffffffffffffffff1673ffffffffffffffffffffffffffffffffffffffff163373ffffffffffffffffffffffffffffffffffffffff16146105cc576040517f08c379a00000000000000000000000000000000000000000000000000000000081526004016105c390611780565b60405180910390fd5b80600560006101000a81548173ffffffffffffffffffffffffffffffffffffffff021916908373ffffffffffffffffffffffffffffffffffffffff16021790555050565b60066020528160005260406000206020528060005260406000206000915091509054906101000a900460ff1681565b6000600660008381526020019081526020016000206000600160009054906101000a900473ffffffffffffffffffffffffffffffffffffffff1673ffffffffffffffffffffffffffffffffffffffff1673ffffffffffffffffffffffffffffffffffffffff16815260200190815260200160002060009054906101000a900460ff1680156107495750600660008381526020019081526020016000206000600260009054906101000a900473ffffffffffffffffffffffffffffffffffffffff1673ffffffffffffffffffffffffffffffffffffffff1673ffffffffffffffffffffffffffffffffffffffff16815260200190815260200160002060009054906101000a900460ff165b9050919050565b600260009054906101000a900473ffffffffffffffffffffffffffffffffffffffff1681565b6000600460009054906101000a900473ffffffffffffffffffffffffffffffffffffffff1673ffffffffffffffffffffffffffffffffffffffff16636735e04c836040518263ffffffff1660e01b81526004016107d39190611800565b60206040518083038186803b1580156107eb57600080fd5b505afa1580156107ff573d6000803e3d6000fd5b505050506040513d601f19601f820116820180604052508101906108239190611388565b801561083557506108338261063f565b155b9050919050565b60606000600460009054906101000a900473ffffffffffffffffffffffffffffffffffffffff1673ffffffffffffffffffffffffffffffffffffffff1663ddd1b67e6040518163ffffffff1660e01b815260040160206040518083038186803b1580156108a857600080fd5b505afa1580156108bc573d6000803e3d6000fd5b505050506040513d601f19601f820116820180604052508101906108e091906113da565b905060008167ffffffffffffffff811115610924577f4e487b7100000000000000000000000000000000000000000000000000000000600052604160045260246000fd5b6040519080825280602002602001820160405280156109525781602001602082028036833780820191505090505b509050600080600190505b838110156109db5761096e81610afe565b156109c857808383815181106109ad577f4e487b7100000000000000000000000000000000000000000000000000000000600052603260045260246000fd5b60200260200101818152505081806109c490611929565b9250505b80806109d390611929565b91505061095d565b5060008167ffffffffffffffff811115610a1e577f4e487b7100000000000000000000000000000000000000000000000000000000600052604160045260246000fd5b604051908082528060200260200182016040528015610a4c5781602001602082028036833780820191505090505b50905060005b82811015610af357838181518110610a93577f4e487b7100000000000000000000000000000000000000000000000000000000600052603260045260246000fd5b6020026020010151828281518110610ad4577f4e487b7100000000000000000000000000000000000000000000000000000000600052603260045260246000fd5b6020026020010181815250508080610aeb90611929565b915050610a52565b508094505050505090565b6000600460009054906101000a900473ffffffffffffffffffffffffffffffffffffffff1673ffffffffffffffffffffffffffffffffffffffff1663093f5617836040518263ffffffff1660e01b8152600401610b5b9190611800565b60206040518083038186803b158015610b7357600080fd5b505afa158015610b87573d6000803e3d6000fd5b505050506040513d601f19601f82011682018060405250810190610bab9190611388565b8015610bbd5750610bbb8261063f565b155b9050919050565b60008054906101000a900473ffffffffffffffffffffffffffffffffffffffff1673ffffffffffffffffffffffffffffffffffffffff163373ffffffffffffffffffffffffffffffffffffffff1614610c52576040517f08c379a0000000000000000000000000000000000000000000000000000000008152600401610c4990611780565b60405180910390fd5b80600460006101000a81548173ffffffffffffffffffffffffffffffffffffffff021916908373ffffffffffffffffffffffffffffffffffffffff16021790555050565b600460009054906101000a900473ffffffffffffffffffffffffffffffffffffffff1681565b600160009054906101000a900473ffffffffffffffffffffffffffffffffffffffff1673ffffffffffffffffffffffffffffffffffffffff163373ffffffffffffffffffffffffffffffffffffffff161480610d655750600260009054906101000a900473ffffffffffffffffffffffffffffffffffffffff1673ffffffffffffffffffffffffffffffffffffffff163373ffffffffffffffffffffffffffffffffffffffff16145b610da4576040517f08c379a0000000000000000000000000000000000000000000000000000000008152600401610d9b90611760565b60405180910390fd5b6000600560009054906101000a900473ffffffffffffffffffffffffffffffffffffffff1673ffffffffffffffffffffffffffffffffffffffff1663a17a97fc6003546040518263ffffffff1660e01b8152600401610e039190611800565b60206040518083038186803b158015610e1b57600080fd5b505afa158015610e2f573d6000803e3d6000fd5b505050506040513d601f19601f82011682018060405250810190610e5391906113da565b905080341015610e98576040517f08c379a0000000000000000000000000000000000000000000000000000000008152600401610e8f906117a0565b60405180910390fd5b6006600083815260200190815260200160002060003373ffffffffffffffffffffffffffffffffffffffff1673ffffffffffffffffffffffffffffffffffffffff16815260200190815260200160002060009054906101000a900460ff1615610f36576040517f08c379a0000000000000000000000000000000000000000000000000000000008152600401610f2d906117c0565b60405180910390fd5b600460009054906101000a900473ffffffffffffffffffffffffffffffffffffffff1673ffffffffffffffffffffffffffffffffffffffff1663e816e87f836040518263ffffffff1660e01b8152600401610f919190611800565b60206040518083038186803b158015610fa957600080fd5b505afa158015610fbd573d6000803e3d6000fd5b505050506040513d601f19601f82011682018060405250810190610fe19190611388565b611020576040517f08c379a0000000000000000000000000000000000000000000000000000000008152600401611017906117e0565b60405180910390fd5b60016006600084815260200190815260200160002060003373ffffffffffffffffffffffffffffffffffffffff1673ffffffffffffffffffffffffffffffffffffffff16815260200190815260200160002060006101000a81548160ff02191690831515021790555060008054906101000a900473ffffffffffffffffffffffffffffffffffffffff1673ffffffffffffffffffffffffffffffffffffffff166108fc829081150290604051600060405180830381858888f193505050501580156110ef573d6000803e3d6000fd5b508034111561114b573373ffffffffffffffffffffffffffffffffffffffff166108fc823461111e9190611865565b9081150290604051600060405180830381858888f19350505050158015611149573d6000803e3d6000fd5b505b5050565b60008054906101000a900473ffffffffffffffffffffffffffffffffffffffff1681565b600160009054906101000a900473ffffffffffffffffffffffffffffffffffffffff1673ffffffffffffffffffffffffffffffffffffffff163373ffffffffffffffffffffffffffffffffffffffff16148061121c5750600260009054906101000a900473ffffffffffffffffffffffffffffffffffffffff1673ffffffffffffffffffffffffffffffffffffffff163373ffffffffffffffffffffffffffffffffffffffff16145b61125b576040517f08c379a000000000000000000000000000000000000000000000000000000000815260040161125290611760565b60405180910390fd5b6000600460009054906101000a900473ffffffffffffffffffffffffffffffffffffffff1673ffffffffffffffffffffffffffffffffffffffff1663ddd1b67e6040518163ffffffff1660e01b815260040160206040518083038186803b1580156112c557600080fd5b505afa1580156112d9573d6000803e3d6000fd5b505050506040513d601f19601f820116820180604052508101906112fd91906113da565b905061130881610cbc565b50565b60008135905061131a816119a1565b92915050565b60008151905061132f816119b8565b92915050565b600081359050611344816119cf565b92915050565b600081519050611359816119cf565b92915050565b60006020828403121561137157600080fd5b600061137f8482850161130b565b91505092915050565b60006020828403121561139a57600080fd5b60006113a884828501611320565b91505092915050565b6000602082840312156113c357600080fd5b60006113d184828501611335565b91505092915050565b6000602082840312156113ec57600080fd5b60006113fa8482850161134a565b91505092915050565b6000806040838503121561141657600080fd5b600061142485828601611335565b92505060206114358582860161130b565b9150509250929050565b600061144b838361167d565b60208301905092915050565b61146081611899565b82525050565b60006114718261182b565b61147b8185611843565b93506114868361181b565b8060005b838110156114b757815161149e888261143f565b97506114a983611836565b92505060018101905061148a565b5085935050505092915050565b6114cd816118ab565b82525050565b6114dc816118e1565b82525050565b6114eb81611905565b82525050565b60006114fe602183611854565b91507f46756e7a696f6e65207269736572766174612061676c6920696e7175696c696e60008301527f69000000000000000000000000000000000000000000000000000000000000006020830152604082019050919050565b6000611564602283611854565b91507f46756e7a696f6e652072697365727661746120616c2070726f7072696574617260008301527f696f0000000000000000000000000000000000000000000000000000000000006020830152604082019050919050565b60006115ca601583611854565b91507f496d706f72746f20696e73756666696369656e746500000000000000000000006000830152602082019050919050565b600061160a601e83611854565b91507f4166666974746f2070616761746f207065722071756573746f206d65736500006000830152602082019050919050565b600061164a602083611854565b91507f506167616d656e746f206e6f6e20646f7675746f2071756573746f206d6573656000830152602082019050919050565b611686816118d7565b82525050565b611695816118d7565b82525050565b60006020820190506116b06000830184611457565b92915050565b600060208201905081810360008301526116d08184611466565b905092915050565b60006020820190506116ed60008301846114c4565b92915050565b600060608201905061170860008301866114c4565b61171560208301856114c4565b61172260408301846114c4565b949350505050565b600060208201905061173f60008301846114d3565b92915050565b600060208201905061175a60008301846114e2565b92915050565b60006020820190508181036000830152611779816114f1565b9050919050565b6000602082019050818103600083015261179981611557565b9050919050565b600060208201905081810360008301526117b9816115bd565b9050919050565b600060208201905081810360008301526117d9816115fd565b9050919050565b600060208201905081810360008301526117f98161163d565b9050919050565b6000602082019050611815600083018461168c565b92915050565b6000819050602082019050919050565b600081519050919050565b6000602082019050919050565b600082825260208201905092915050565b600082825260208201905092915050565b6000611870826118d7565b915061187b836118d7565b92508282101561188e5761188d611972565b5b828203905092915050565b60006118a4826118b7565b9050919050565b60008115159050919050565b600073ffffffffffffffffffffffffffffffffffffffff82169050919050565b6000819050919050565b60006118ec826118f3565b9050919050565b60006118fe826118b7565b9050919050565b600061191082611917565b9050919050565b6000611922826118b7565b9050919050565b6000611934826118d7565b91507fffffffffffffffffffffffffffffffffffffffffffffffffffffffffffffffff82141561196757611966611972565b5b600182019050919050565b7f4e487b7100000000000000000000000000000000000000000000000000000000600052601160045260246000fd5b6119aa81611899565b81146119b557600080fd5b50565b6119c1816118ab565b81146119cc57600080fd5b50565b6119d8816118d7565b81146119e357600080fd5b5056fea2646970667358221220334191efaa811a8238f5f2b81ba7f8dcdb20178b5fd18448529d60b6f75c5da864736f6c63430008000033",
  "immutableReferences": {},
  "source": "// SPDX-License-Identifier: MIT\npragma solidity ^0.8.0;\n\nimport \"./TimeOracle.sol\";\nimport \"./PriceOracle.sol\";\n\ncontract RentContract {\n    address public landlord;\n    address public tenant1;\n    address public tenant2;\n    uint public rentAmountEur;\n    TimeOracle public timeOracle;\n    PriceOracle public priceOracle;\n    \n    mapping(uint => mapping(address => bool)) public tenantPaidForMonth;\n    // mapping(uint => address) public whoCanPayForMonth;\n\n    modifier onlyLandlord() {\n        require(msg.sender == landlord, \"Funzione riservata al proprietario\");\n        _;\n    }\n\n    modifier onlyTenants() {\n        require(msg.sender == tenant1 || msg.sender == tenant2, \"Funzione riservata agli inquilini\");\n        _;\n    }\n\n    constructor(\n        address _landlord, \n        address _tenant1, \n        address _tenant2, \n        uint _rentAmountEur, \n        address _timeOracle,\n        address _priceOracle\n    ) {\n        landlord = _landlord;\n        tenant1 = _tenant1;\n        tenant2 = _tenant2;\n        rentAmountEur = _rentAmountEur;\n        timeOracle = TimeOracle(_timeOracle);\n        priceOracle = PriceOracle(_priceOracle);\n    }\n\n    function payRent(uint month) public payable onlyTenants {\n        uint requiredWei = priceOracle.convertEurToWei(rentAmountEur);\n        require(msg.value >= requiredWei, \"Importo insufficiente\");\n        require(!tenantPaidForMonth[month][msg.sender], \"Affitto pagato per questo mese\");\n        require(timeOracle.isPaymentDue(month), \"Pagamento non dovuto questo mese\");\n\n        // if (whoCanPayForMonth[month] != address(0)) {\n        //     require(msg.sender == whoCanPayForMonth[month], \"Inquilino sbagliato\");\n        // }\n\n        tenantPaidForMonth[month][msg.sender] = true;\n        \n        payable(landlord).transfer(requiredWei);\n        \n        if (msg.value > requiredWei) {\n            payable(msg.sender).transfer(msg.value - requiredWei);\n        }\n    }\n\n    function payCurrentMonthRent() public payable onlyTenants {\n        uint currentMonth = timeOracle.getCurrentMonth();\n        payRent(currentMonth);\n    }\n\n    function isRentPaid(uint month) public view returns (bool) {\n        return tenantPaidForMonth[month][tenant1] && tenantPaidForMonth[month][tenant2];\n    }\n\n    function isRentLate(uint month) public view returns (bool) {\n        return timeOracle.isPaymentLate(month) && !isRentPaid(month);\n    }\n\n    function isInGracePeriod(uint month) public view returns (bool) {\n        return timeOracle.isInGracePeriod(month) && !isRentPaid(month);\n    }\n\n    function setTimeOracle(address _timeOracle) external onlyLandlord {\n        timeOracle = TimeOracle(_timeOracle);\n    }\n\n    function setPriceOracle(address _priceOracle) external onlyLandlord {\n        priceOracle = PriceOracle(_priceOracle);\n    }\n\n    // function assignTenantForMonth(uint month, address tenant) external onlyLandlord {\n    //     require(tenant == tenant1 || tenant == tenant2, \"Indirizzo inquilino non valido\");\n    //     require(!isRentPaid(month), \"Errore pagamento\");\n    //     whoCanPayForMonth[month] = tenant;\n    // }\n\n    // function forcePayment(uint month) external onlyLandlord {\n    //     require(!isRentPaid(month), \"Affitto pagato per questo mese\");\n    //     require(timeOracle.isPaymentDue(month), \"Pagamento non ancora dovuto per questo mese\");\n\n    //     tenantPaidForMonth[month][tenant1] = true;\n    //     tenantPaidForMonth[month][tenant2] = true;\n    // }\n\n    function getMonthPaymentStatus(uint month) external view returns (bool tenant1Paid, bool tenant2Paid, bool fullyPaid) {\n        tenant1Paid = tenantPaidForMonth[month][tenant1];\n        tenant2Paid = tenantPaidForMonth[month][tenant2];\n        fullyPaid = tenant1Paid && tenant2Paid;\n    }\n\n    function getLateRentMonths() external view returns (uint[] memory) {\n        uint currentMonth = timeOracle.getCurrentMonth();\n        uint[] memory lateMonths = new uint[](currentMonth);\n        uint count = 0;\n        \n        for (uint i = 1; i < currentMonth; i++) {\n            if (isRentLate(i)) {\n                lateMonths[count] = i;\n                count++;\n            }\n        }\n        \n        uint[] memory result = new uint[](count);\n        for (uint i = 0; i < count; i++) {\n            result[i] = lateMonths[i];\n        }\n        \n        return result;\n    }\n}",
  "sourcePath": "/home/cavas/simple-rent-contract/contracts/RentContract.sol",
  "compiler": {
    "name": "solc",
    "version": "0.8.0+commit.c7dfd78e.Emscripten.clang"
  },
  "schemaVersion": "3.4.16",
  "updatedAt": "2025-06-24T09:51:10.264Z",
  "networkType": "ethereum",
  "devdoc": {
    "kind": "dev",
    "methods": {},
    "version": 1
  },
  "userdoc": {
    "kind": "user",
    "methods": {},
    "version": 1
  }
}