{
  "contractName": "TimeOracle",
  "abi": [
    {
      "inputs": [],
      "stateMutability": "nonpayable",
      "type": "constructor"
    },
    {
      "anonymous": false,
      "inputs": [
        {
          "indexed": false,
          "internalType": "uint256",
          "name": "newStartDate",
          "type": "uint256"
        }
      ],
      "name": "ContractStartDateUpdated",
      "type": "event"
    },
    {
      "anonymous": false,
      "inputs": [
        {
          "indexed": false,
          "internalType": "uint256",
          "name": "month",
          "type": "uint256"
        }
      ],
      "name": "CurrentMonthSet",
      "type": "event"
    },
    {
      "inputs": [],
      "name": "TOLLERANZA",
      "outputs": [
        {
          "internalType": "uint256",
          "name": "",
          "type": "uint256"
        }
      ],
      "stateMutability": "view",
      "type": "function",
      "constant": true
    },
    {
      "inputs": [],
      "name": "contractStartDate",
      "outputs": [
        {
          "internalType": "uint256",
          "name": "",
          "type": "uint256"
        }
      ],
      "stateMutability": "view",
      "type": "function",
      "constant": true
    },
    {
      "inputs": [],
      "name": "owner",
      "outputs": [
        {
          "internalType": "address",
          "name": "",
          "type": "address"
        }
      ],
      "stateMutability": "view",
      "type": "function",
      "constant": true
    },
    {
      "inputs": [],
      "name": "getCurrentMonth",
      "outputs": [
        {
          "internalType": "uint256",
          "name": "",
          "type": "uint256"
        }
      ],
      "stateMutability": "view",
      "type": "function",
      "constant": true
    },
    {
      "inputs": [
        {
          "internalType": "uint256",
          "name": "timestamp",
          "type": "uint256"
        }
      ],
      "name": "getMonthForTimestamp",
      "outputs": [
        {
          "internalType": "uint256",
          "name": "",
          "type": "uint256"
        }
      ],
      "stateMutability": "view",
      "type": "function",
      "constant": true
    },
    {
      "inputs": [
        {
          "internalType": "uint256",
          "name": "newStartDate",
          "type": "uint256"
        }
      ],
      "name": "updateContractStartDate",
      "outputs": [],
      "stateMutability": "nonpayable",
      "type": "function"
    },
    {
      "inputs": [
        {
          "internalType": "uint256",
          "name": "month",
          "type": "uint256"
        }
      ],
      "name": "isPaymentDue",
      "outputs": [
        {
          "internalType": "bool",
          "name": "",
          "type": "bool"
        }
      ],
      "stateMutability": "view",
      "type": "function",
      "constant": true
    },
    {
      "inputs": [
        {
          "internalType": "uint256",
          "name": "month",
          "type": "uint256"
        }
      ],
      "name": "isPaymentLate",
      "outputs": [
        {
          "internalType": "bool",
          "name": "",
          "type": "bool"
        }
      ],
      "stateMutability": "view",
      "type": "function",
      "constant": true
    },
    {
      "inputs": [
        {
          "internalType": "uint256",
          "name": "month",
          "type": "uint256"
        }
      ],
      "name": "isInGracePeriod",
      "outputs": [
        {
          "internalType": "bool",
          "name": "",
          "type": "bool"
        }
      ],
      "stateMutability": "view",
      "type": "function",
      "constant": true
    },
    {
      "inputs": [
        {
          "internalType": "uint256",
          "name": "month",
          "type": "uint256"
        }
      ],
      "name": "setCurrentMonth",
      "outputs": [],
      "stateMutability": "nonpayable",
      "type": "function"
    },
    {
      "inputs": [],
      "name": "resetToActualTime",
      "outputs": [],
      "stateMutability": "nonpayable",
      "type": "function"
    }
  ],
  "bytecode": "0x60806040523480156200001157600080fd5b50336000806101000a81548173ffffffffffffffffffffffffffffffffffffffff021916908373ffffffffffffffffffffffffffffffffffffffff160217905550620000626200008960201b60201c565b6001819055506000600360006101000a81548160ff021916908315150217905550620002c7565b600080429050600062015180905060006001601e8385620000ab919062000153565b620000b7919062000231565b620000c39190620000f6565b905081600182620000d59190620001ec565b620000e191906200018b565b83620000ee9190620001ec565b935050505090565b6000620001038262000227565b9150620001108362000227565b9250827fffffffffffffffffffffffffffffffffffffffffffffffffffffffffffffffff0382111562000148576200014762000269565b5b828201905092915050565b6000620001608262000227565b91506200016d8362000227565b92508262000180576200017f62000298565b5b828204905092915050565b6000620001988262000227565b9150620001a58362000227565b9250817fffffffffffffffffffffffffffffffffffffffffffffffffffffffffffffffff0483118215151615620001e157620001e062000269565b5b828202905092915050565b6000620001f98262000227565b9150620002068362000227565b9250828210156200021c576200021b62000269565b5b828203905092915050565b6000819050919050565b60006200023e8262000227565b91506200024b8362000227565b9250826200025e576200025d62000298565b5b828206905092915050565b7f4e487b7100000000000000000000000000000000000000000000000000000000600052601160045260246000fd5b7f4e487b7100000000000000000000000000000000000000000000000000000000600052601260045260246000fd5b6109b680620002d76000396000f3fe608060405234801561001057600080fd5b50600436106100a95760003560e01c80638fcf50ca116100715780638fcf50ca146101545780639cf1c8e514610184578063a6369d77146101a0578063ddd1b67e146101bc578063e816e87f146101da578063f166cfbd1461020a576100a9565b8063093f5617146100ae5780630bfa0e6b146100de5780636735e04c146100e85780636e9a561f146101185780638da5cb5b14610136575b600080fd5b6100c860048036038101906100c39190610670565b610228565b6040516100d59190610747565b60405180910390f35b6100e66102a2565b005b61010260048036038101906100fd9190610670565b61034d565b60405161010f9190610747565b60405180910390f35b6101206103e1565b60405161012d9190610782565b60405180910390f35b61013e6103e8565b60405161014b919061072c565b60405180910390f35b61016e60048036038101906101699190610670565b61040c565b60405161017b9190610782565b60405180910390f35b61019e60048036038101906101999190610670565b610458565b005b6101ba60048036038101906101b59190610670565b610527565b005b6101c4610611565b6040516101d19190610782565b60405180910390f35b6101f460048036038101906101ef9190610670565b610641565b6040516102019190610747565b60405180910390f35b610212610655565b60405161021f9190610782565b60405180910390f35b6000806102344261040c565b905082811161024757600091505061029d565b60006228207260018561025a919061088f565b6102649190610835565b60015461027191906107ae565b90506000620d2f00622820728361028891906107ae565b61029291906107ae565b905080421193505050505b919050565b60008054906101000a900473ffffffffffffffffffffffffffffffffffffffff1673ffffffffffffffffffffffffffffffffffffffff163373ffffffffffffffffffffffffffffffffffffffff1614610330576040517f08c379a000000000000000000000000000000000000000000000000000000000815260040161032790610762565b60405180910390fd5b6000600360006101000a81548160ff021916908315150217905550565b6000806103594261040c565b905082811161036c5760009150506103dc565b60006228207260018561037f919061088f565b6103899190610835565b60015461039691906107ae565b90506000620d2f0062282072836103ad91906107ae565b6103b791906107ae565b90508042111580156103d6575062282072826103d391906107ae565b42115b93505050505b919050565b620d2f0081565b60008054906101000a900473ffffffffffffffffffffffffffffffffffffffff1681565b600060015482101561041d57600080fd5b600062282072905060008160015485610436919061088f565b6104409190610804565b905060018161044f91906107ae565b92505050919050565b60008054906101000a900473ffffffffffffffffffffffffffffffffffffffff1673ffffffffffffffffffffffffffffffffffffffff163373ffffffffffffffffffffffffffffffffffffffff16146104e6576040517f08c379a00000000000000000000000000000000000000000000000000000000081526004016104dd90610762565b60405180910390fd5b806001819055507f96d627e9566aff02d6ea9ce880be7c81e81b4c4869abb17528105ad61d59ca098160405161051c9190610782565b60405180910390a150565b60008054906101000a900473ffffffffffffffffffffffffffffffffffffffff1673ffffffffffffffffffffffffffffffffffffffff163373ffffffffffffffffffffffffffffffffffffffff16146105b5576040517f08c379a00000000000000000000000000000000000000000000000000000000081526004016105ac90610762565b60405180910390fd5b806002819055506001600360006101000a81548160ff0219169083151502179055507f1ec20d278a1b76bd5aeaea8cecd19cee27daca62d171ecb9f2808bf4cda52174816040516106069190610782565b60405180910390a150565b6000600360009054906101000a900460ff161561063257600254905061063e565b61063b4261040c565b90505b90565b60008161064c610611565b10159050919050565b60015481565b60008135905061066a81610969565b92915050565b60006020828403121561068257600080fd5b60006106908482850161065b565b91505092915050565b6106a2816108c3565b82525050565b6106b1816108d5565b82525050565b60006106c460228361079d565b91507f46756e7a696f6e652072697365727661746120616c2070726f7072696574617260008301527f696f0000000000000000000000000000000000000000000000000000000000006020830152604082019050919050565b61072681610901565b82525050565b60006020820190506107416000830184610699565b92915050565b600060208201905061075c60008301846106a8565b92915050565b6000602082019050818103600083015261077b816106b7565b9050919050565b6000602082019050610797600083018461071d565b92915050565b600082825260208201905092915050565b60006107b982610901565b91506107c483610901565b9250827fffffffffffffffffffffffffffffffffffffffffffffffffffffffffffffffff038211156107f9576107f861090b565b5b828201905092915050565b600061080f82610901565b915061081a83610901565b92508261082a5761082961093a565b5b828204905092915050565b600061084082610901565b915061084b83610901565b9250817fffffffffffffffffffffffffffffffffffffffffffffffffffffffffffffffff04831182151516156108845761088361090b565b5b828202905092915050565b600061089a82610901565b91506108a583610901565b9250828210156108b8576108b761090b565b5b828203905092915050565b60006108ce826108e1565b9050919050565b60008115159050919050565b600073ffffffffffffffffffffffffffffffffffffffff82169050919050565b6000819050919050565b7f4e487b7100000000000000000000000000000000000000000000000000000000600052601160045260246000fd5b7f4e487b7100000000000000000000000000000000000000000000000000000000600052601260045260246000fd5b61097281610901565b811461097d57600080fd5b5056fea2646970667358221220ac36f9961ce717e4eb3acd4e579336d229eb377e981cfa9b9a05a2b5bf4d72f464736f6c63430008000033",
  "immutableReferences": {},
  "source": "// SPDX-License-Identifier: MIT\r\npragma solidity ^0.8.0;\r\n\r\ncontract TimeOracle {\r\n    address public owner;\r\n    uint public contractStartDate;\r\n    uint public constant TOLLERANZA = 10 days;\r\n    uint private customCurrentMonth;\r\n    bool private useCustomMonth;\r\n    \r\n    event ContractStartDateUpdated(uint newStartDate);\r\n    event CurrentMonthSet(uint month);\r\n    \r\n    modifier onlyOwner() {\r\n        require(msg.sender == owner, \"Funzione riservata al proprietario\");\r\n        _;\r\n    }\r\n    \r\n    constructor() {\r\n        owner = msg.sender;\r\n        contractStartDate = getFirstOfCurrentMonth();\r\n        useCustomMonth = false;\r\n    }\r\n\r\n    function getCurrentMonth() public view returns (uint) {\r\n        if (useCustomMonth) {\r\n            return customCurrentMonth;\r\n        }\r\n        return getMonthForTimestamp(block.timestamp);\r\n    }\r\n    \r\n    function getMonthForTimestamp(uint timestamp) public view returns (uint) {\r\n        require(timestamp >= contractStartDate);\r\n        uint secondsPerMonth = 2629746;\r\n        uint monthsSinceStart = (timestamp - contractStartDate) / secondsPerMonth;\r\n        return monthsSinceStart + 1;\r\n    }\r\n    \r\n    function updateContractStartDate(uint newStartDate) external onlyOwner {\r\n        contractStartDate = newStartDate;\r\n        emit ContractStartDateUpdated(newStartDate);\r\n    }\r\n    \r\n    function isPaymentDue(uint month) public view returns (bool) {\r\n        return getCurrentMonth() >= month;\r\n    }\r\n    \r\n    function isPaymentLate(uint month) public view returns (bool) {\r\n        uint currentMonth = getMonthForTimestamp(block.timestamp);\r\n        if (currentMonth <= month) return false;\r\n        uint monthStartTimestamp = contractStartDate + ((month - 1) * 2629746);\r\n        uint gracePeriodEnd = monthStartTimestamp + 2629746 + TOLLERANZA;\r\n        return block.timestamp > gracePeriodEnd;\r\n    }\r\n    \r\n    function isInGracePeriod(uint month) public view returns (bool) {\r\n        uint currentMonth = getMonthForTimestamp(block.timestamp);\r\n        if (currentMonth <= month) return false;\r\n        uint monthStartTimestamp = contractStartDate + ((month - 1) * 2629746);\r\n        uint gracePeriodEnd = monthStartTimestamp + 2629746 + TOLLERANZA;\r\n        return block.timestamp <= gracePeriodEnd && block.timestamp > (monthStartTimestamp + 2629746);\r\n    }\r\n    \r\n    function getFirstOfCurrentMonth() private view returns (uint) {\r\n        uint currentTime = block.timestamp;\r\n        uint secondsPerDay = 86400;\r\n        uint currentDay = (currentTime / secondsPerDay) % 30 + 1;\r\n        return currentTime - ((currentDay - 1) * secondsPerDay);\r\n    }\r\n    \r\n    function setCurrentMonth(uint month) external onlyOwner {\r\n        customCurrentMonth = month;\r\n        useCustomMonth = true;\r\n        emit CurrentMonthSet(month);    }\r\n    \r\n    function resetToActualTime() external onlyOwner {\r\n        useCustomMonth = false;\r\n    }\r\n}\r\n",
  "sourcePath": "/home/cavas/simple-rent-contract/contracts/TimeOracle.sol",
  "compiler": {
    "name": "solc",
    "version": "0.8.0+commit.c7dfd78e.Emscripten.clang"
  },
  "schemaVersion": "3.4.16",
  "updatedAt": "2025-06-23T10:54:34.284Z",
  "networkType": "ethereum",
  "devdoc": {
    "kind": "dev",
    "methods": {},
    "version": 1
  },
  "userdoc": {
    "kind": "user",
    "methods": {},
    "version": 1
  }
}