{
  "contractName": "TimeOracle",
  "abi": [
    {
      "inputs": [],
      "stateMutability": "nonpayable",
      "type": "constructor"
    },
    {
      "inputs": [],
      "name": "SecondsPerMonth",
      "outputs": [
        {
          "internalType": "uint256",
          "name": "",
          "type": "uint256"
        }
      ],
      "stateMutability": "view",
      "type": "function",
      "constant": true
    },
    {
      "inputs": [],
      "name": "TOLLERANZA",
      "outputs": [
        {
          "internalType": "uint256",
          "name": "",
          "type": "uint256"
        }
      ],
      "stateMutability": "view",
      "type": "function",
      "constant": true
    },
    {
      "inputs": [],
      "name": "contractStartDate",
      "outputs": [
        {
          "internalType": "uint256",
          "name": "",
          "type": "uint256"
        }
      ],
      "stateMutability": "view",
      "type": "function",
      "constant": true
    },
    {
      "inputs": [],
      "name": "owner",
      "outputs": [
        {
          "internalType": "address",
          "name": "",
          "type": "address"
        }
      ],
      "stateMutability": "view",
      "type": "function",
      "constant": true
    },
    {
      "inputs": [],
      "name": "getCurrentMonth",
      "outputs": [
        {
          "internalType": "uint256",
          "name": "",
          "type": "uint256"
        }
      ],
      "stateMutability": "view",
      "type": "function",
      "constant": true
    },
    {
      "inputs": [
        {
          "internalType": "uint256",
          "name": "month",
          "type": "uint256"
        }
      ],
      "name": "setCurrentMonth",
      "outputs": [],
      "stateMutability": "nonpayable",
      "type": "function"
    },
    {
      "inputs": [
        {
          "internalType": "uint256",
          "name": "timestamp",
          "type": "uint256"
        }
      ],
      "name": "getMonthForTimestamp",
      "outputs": [
        {
          "internalType": "uint256",
          "name": "",
          "type": "uint256"
        }
      ],
      "stateMutability": "view",
      "type": "function",
      "constant": true
    },
    {
      "inputs": [
        {
          "internalType": "uint256",
          "name": "month",
          "type": "uint256"
        }
      ],
      "name": "isPaymentDue",
      "outputs": [
        {
          "internalType": "bool",
          "name": "",
          "type": "bool"
        }
      ],
      "stateMutability": "view",
      "type": "function",
      "constant": true
    },
    {
      "inputs": [
        {
          "internalType": "uint256",
          "name": "paidMonth",
          "type": "uint256"
        }
      ],
      "name": "isPaymentLate",
      "outputs": [
        {
          "internalType": "bool",
          "name": "",
          "type": "bool"
        }
      ],
      "stateMutability": "view",
      "type": "function",
      "constant": true
    },
    {
      "inputs": [
        {
          "internalType": "uint256",
          "name": "paidMonth",
          "type": "uint256"
        }
      ],
      "name": "isInGracePeriod",
      "outputs": [
        {
          "internalType": "bool",
          "name": "",
          "type": "bool"
        }
      ],
      "stateMutability": "view",
      "type": "function",
      "constant": true
    }
  ],
  "bytecode": "0x60806040523480156200001157600080fd5b50336000806101000a81548173ffffffffffffffffffffffffffffffffffffffff021916908373ffffffffffffffffffffffffffffffffffffffff160217905550620000626200008960201b60201c565b6001819055506000600360006101000a81548160ff021916908315150217905550620002c7565b600080429050600062015180905060006001601e8385620000ab919062000153565b620000b7919062000231565b620000c39190620000f6565b905081600182620000d59190620001ec565b620000e191906200018b565b83620000ee9190620001ec565b935050505090565b6000620001038262000227565b9150620001108362000227565b9250827fffffffffffffffffffffffffffffffffffffffffffffffffffffffffffffffff0382111562000148576200014762000269565b5b828201905092915050565b6000620001608262000227565b91506200016d8362000227565b92508262000180576200017f62000298565b5b828204905092915050565b6000620001988262000227565b9150620001a58362000227565b9250817fffffffffffffffffffffffffffffffffffffffffffffffffffffffffffffffff0483118215151615620001e157620001e062000269565b5b828202905092915050565b6000620001f98262000227565b9150620002068362000227565b9250828210156200021c576200021b62000269565b5b828203905092915050565b6000819050919050565b60006200023e8262000227565b91506200024b8362000227565b9250826200025e576200025d62000298565b5b828206905092915050565b7f4e487b7100000000000000000000000000000000000000000000000000000000600052601160045260246000fd5b7f4e487b7100000000000000000000000000000000000000000000000000000000600052601260045260246000fd5b6107c780620002d76000396000f3fe608060405234801561001057600080fd5b506004361061009e5760003560e01c8063a6369d7711610066578063a6369d771461016f578063ddd1b67e1461018b578063de231e6b146101a9578063e816e87f146101c7578063f166cfbd146101f75761009e565b8063093f5617146100a35780636735e04c146100d35780636e9a561f146101035780638da5cb5b146101215780638fcf50ca1461013f575b600080fd5b6100bd60048036038101906100b89190610481565b610215565b6040516100ca9190610558565b60405180910390f35b6100ed60048036038101906100e89190610481565b61022e565b6040516100fa9190610558565b60405180910390f35b61010b610285565b6040516101189190610593565b60405180910390f35b61012961028c565b604051610136919061053d565b60405180910390f35b61015960048036038101906101549190610481565b6102b0565b6040516101669190610593565b60405180910390f35b61018960048036038101906101849190610481565b6102f6565b005b6101936103a9565b6040516101a09190610593565b60405180910390f35b6101b16103d9565b6040516101be9190610593565b60405180910390f35b6101e160048036038101906101dc9190610481565b6103e0565b6040516101ee9190610558565b60405180910390f35b6101ff6103f4565b60405161020c9190610593565b60405180910390f35b600080610221836103fa565b9050804211915050919050565b60008061023a836103fa565b905080421115801561027d5750622820728060018561025991906106a0565b6102639190610646565b60015461027091906105bf565b61027a91906105bf565b42115b915050919050565b620d2f0081565b60008054906101000a900473ffffffffffffffffffffffffffffffffffffffff1681565b60006001548210156102c157600080fd5b600062282072600154846102d591906106a0565b6102df9190610615565b90506001816102ee91906105bf565b915050919050565b60008054906101000a900473ffffffffffffffffffffffffffffffffffffffff1673ffffffffffffffffffffffffffffffffffffffff163373ffffffffffffffffffffffffffffffffffffffff1614610384576040517f08c379a000000000000000000000000000000000000000000000000000000000815260040161037b90610573565b60405180910390fd5b806002819055506001600360006101000a81548160ff02191690831515021790555050565b6000600360009054906101000a900460ff16156103ca5760025490506103d6565b6103d3426102b0565b90505b90565b6228207281565b6000816103eb6103a9565b10159050919050565b60015481565b600080610406426102b0565b9050828111610419576000915050610467565b60006228207260018561042c91906106a0565b6104369190610646565b60015461044391906105bf565b9050620d2f00622820728261045891906105bf565b61046291906105bf565b925050505b919050565b60008135905061047b8161077a565b92915050565b60006020828403121561049357600080fd5b60006104a18482850161046c565b91505092915050565b6104b3816106d4565b82525050565b6104c2816106e6565b82525050565b60006104d56022836105ae565b91507f46756e7a696f6e652072697365727661746120616c2070726f7072696574617260008301527f696f0000000000000000000000000000000000000000000000000000000000006020830152604082019050919050565b61053781610712565b82525050565b600060208201905061055260008301846104aa565b92915050565b600060208201905061056d60008301846104b9565b92915050565b6000602082019050818103600083015261058c816104c8565b9050919050565b60006020820190506105a8600083018461052e565b92915050565b600082825260208201905092915050565b60006105ca82610712565b91506105d583610712565b9250827fffffffffffffffffffffffffffffffffffffffffffffffffffffffffffffffff0382111561060a5761060961071c565b5b828201905092915050565b600061062082610712565b915061062b83610712565b92508261063b5761063a61074b565b5b828204905092915050565b600061065182610712565b915061065c83610712565b9250817fffffffffffffffffffffffffffffffffffffffffffffffffffffffffffffffff04831182151516156106955761069461071c565b5b828202905092915050565b60006106ab82610712565b91506106b683610712565b9250828210156106c9576106c861071c565b5b828203905092915050565b60006106df826106f2565b9050919050565b60008115159050919050565b600073ffffffffffffffffffffffffffffffffffffffff82169050919050565b6000819050919050565b7f4e487b7100000000000000000000000000000000000000000000000000000000600052601160045260246000fd5b7f4e487b7100000000000000000000000000000000000000000000000000000000600052601260045260246000fd5b61078381610712565b811461078e57600080fd5b5056fea2646970667358221220d6f57df9bfe02f2446f988ab552ed491d7fae57b8d4573cc694aae8699dbc8d764736f6c63430008000033",
  "immutableReferences": {},
  "source": "// SPDX-License-Identifier: MIT\r\npragma solidity ^0.8.0;\r\n\r\ncontract TimeOracle {\r\n    address public owner;\r\n    uint public contractStartDate;\r\n    uint public constant TOLLERANZA = 10 days;\r\n    uint public constant SecondsPerMonth = 2629746;\r\n    uint private customCurrentMonth;\r\n    bool private useCustomMonth;\r\n    \r\n    modifier onlyOwner() {\r\n        require(msg.sender == owner, \"Funzione riservata al proprietario\");\r\n        _;\r\n    }\r\n    \r\n    constructor() {\r\n        owner = msg.sender;\r\n        contractStartDate = getFirstOfCurrentMonth();\r\n        useCustomMonth = false;\r\n    }\r\n\r\n    function getCurrentMonth() public view returns (uint) {\r\n        if (useCustomMonth) {\r\n            return customCurrentMonth;\r\n        }\r\n        return getMonthForTimestamp(block.timestamp);\r\n    }\r\n\r\n    function setCurrentMonth(uint month) external onlyOwner {\r\n        customCurrentMonth = month;\r\n        useCustomMonth = true;\r\n    }\r\n    \r\n    function getMonthForTimestamp(uint timestamp) public view returns (uint) {\r\n        require(timestamp >= contractStartDate);\r\n        uint monthsSinceStart = (timestamp - contractStartDate) / SecondsPerMonth;\r\n        return monthsSinceStart + 1;\r\n    }\r\n    \r\n    function isPaymentDue(uint month) public view returns (bool) {\r\n        return getCurrentMonth() >= month;\r\n    }\r\n    \r\n    function isPaymentLate(uint paidMonth) public view returns (bool) {\r\n        uint gracePeriodEnd = calculateGracePeriodEnd(paidMonth);\r\n        return block.timestamp > gracePeriodEnd;\r\n    }\r\n    \r\n    function isInGracePeriod(uint paidMonth) public view returns (bool) {\r\n        uint gracePeriodEnd = calculateGracePeriodEnd(paidMonth);\r\n        return block.timestamp <= gracePeriodEnd && block.timestamp > (contractStartDate + ((paidMonth - 1) * SecondsPerMonth) + SecondsPerMonth);\r\n    }\r\n\r\n    function calculateGracePeriodEnd(uint paidMonth) private view returns (uint gracePeriodEnd) {\r\n        uint currentMonth = getMonthForTimestamp(block.timestamp);\r\n        if (currentMonth <= paidMonth) return 0;\r\n        uint monthStartTimestamp = contractStartDate + ((paidMonth - 1) * SecondsPerMonth);\r\n        return monthStartTimestamp + SecondsPerMonth + TOLLERANZA;\r\n    }\r\n    \r\n    function getFirstOfCurrentMonth() private view returns (uint) {\r\n        uint currentTime = block.timestamp;\r\n        uint secondsPerDay = 86400;\r\n        uint currentDay = (currentTime / secondsPerDay) % 30 + 1;\r\n        return currentTime - ((currentDay - 1) * secondsPerDay);\r\n    }\r\n}\r\n",
  "sourcePath": "/home/cavas/simple-rent-contract/contracts/TimeOracle.sol",
  "compiler": {
    "name": "solc",
    "version": "0.8.0+commit.c7dfd78e.Emscripten.clang"
  },
  "schemaVersion": "3.4.16",
  "updatedAt": "2025-06-24T09:51:10.425Z",
  "networkType": "ethereum",
  "devdoc": {
    "kind": "dev",
    "methods": {},
    "version": 1
  },
  "userdoc": {
    "kind": "user",
    "methods": {},
    "version": 1
  }
}