{
  "contractName": "TimeOracle",
  "abi": [
    {
      "inputs": [],
      "stateMutability": "nonpayable",
      "type": "constructor"
    },
    {
      "anonymous": false,
      "inputs": [
        {
          "indexed": false,
          "internalType": "uint256",
          "name": "newStartDate",
          "type": "uint256"
        }
      ],
      "name": "ContractStartDateUpdated",
      "type": "event"
    },
    {
      "anonymous": false,
      "inputs": [
        {
          "indexed": false,
          "internalType": "uint256",
          "name": "month",
          "type": "uint256"
        }
      ],
      "name": "CurrentMonthSet",
      "type": "event"
    },
    {
      "inputs": [],
      "name": "TOLLERANZA",
      "outputs": [
        {
          "internalType": "uint256",
          "name": "",
          "type": "uint256"
        }
      ],
      "stateMutability": "view",
      "type": "function",
      "constant": true
    },
    {
      "inputs": [],
      "name": "contractStartDate",
      "outputs": [
        {
          "internalType": "uint256",
          "name": "",
          "type": "uint256"
        }
      ],
      "stateMutability": "view",
      "type": "function",
      "constant": true
    },
    {
      "inputs": [],
      "name": "owner",
      "outputs": [
        {
          "internalType": "address",
          "name": "",
          "type": "address"
        }
      ],
      "stateMutability": "view",
      "type": "function",
      "constant": true
    },
    {
      "inputs": [],
      "name": "getCurrentMonth",
      "outputs": [
        {
          "internalType": "uint256",
          "name": "",
          "type": "uint256"
        }
      ],
      "stateMutability": "view",
      "type": "function",
      "constant": true
    },
    {
      "inputs": [
        {
          "internalType": "uint256",
          "name": "timestamp",
          "type": "uint256"
        }
      ],
      "name": "getMonthForTimestamp",
      "outputs": [
        {
          "internalType": "uint256",
          "name": "",
          "type": "uint256"
        }
      ],
      "stateMutability": "view",
      "type": "function",
      "constant": true
    },
    {
      "inputs": [
        {
          "internalType": "uint256",
          "name": "newStartDate",
          "type": "uint256"
        }
      ],
      "name": "updateContractStartDate",
      "outputs": [],
      "stateMutability": "nonpayable",
      "type": "function"
    },
    {
      "inputs": [
        {
          "internalType": "uint256",
          "name": "month",
          "type": "uint256"
        }
      ],
      "name": "isPaymentDue",
      "outputs": [
        {
          "internalType": "bool",
          "name": "",
          "type": "bool"
        }
      ],
      "stateMutability": "view",
      "type": "function",
      "constant": true
    },
    {
      "inputs": [
        {
          "internalType": "uint256",
          "name": "month",
          "type": "uint256"
        }
      ],
      "name": "isPaymentLate",
      "outputs": [
        {
          "internalType": "bool",
          "name": "",
          "type": "bool"
        }
      ],
      "stateMutability": "view",
      "type": "function",
      "constant": true
    },
    {
      "inputs": [
        {
          "internalType": "uint256",
          "name": "month",
          "type": "uint256"
        }
      ],
      "name": "isInGracePeriod",
      "outputs": [
        {
          "internalType": "bool",
          "name": "",
          "type": "bool"
        }
      ],
      "stateMutability": "view",
      "type": "function",
      "constant": true
    },
    {
      "inputs": [
        {
          "internalType": "uint256",
          "name": "month",
          "type": "uint256"
        }
      ],
      "name": "setCurrentMonth",
      "outputs": [],
      "stateMutability": "nonpayable",
      "type": "function"
    },
    {
      "inputs": [],
      "name": "resetToActualTime",
      "outputs": [],
      "stateMutability": "nonpayable",
      "type": "function"
    },
    {
      "inputs": [
        {
          "internalType": "uint256",
          "name": "month",
          "type": "uint256"
        }
      ],
      "name": "getMonthStartTimestamp",
      "outputs": [
        {
          "internalType": "uint256",
          "name": "",
          "type": "uint256"
        }
      ],
      "stateMutability": "view",
      "type": "function",
      "constant": true
    },
    {
      "inputs": [
        {
          "internalType": "uint256",
          "name": "month",
          "type": "uint256"
        }
      ],
      "name": "getPaymentDeadline",
      "outputs": [
        {
          "internalType": "uint256",
          "name": "",
          "type": "uint256"
        }
      ],
      "stateMutability": "view",
      "type": "function",
      "constant": true
    }
  ],
  "bytecode": "0x60806040523480156200001157600080fd5b50336000806101000a81548173ffffffffffffffffffffffffffffffffffffffff021916908373ffffffffffffffffffffffffffffffffffffffff160217905550620000626200008960201b60201c565b6001819055506000600360006101000a81548160ff021916908315150217905550620002c7565b600080429050600062015180905060006001601e8385620000ab919062000153565b620000b7919062000231565b620000c39190620000f6565b905081600182620000d59190620001ec565b620000e191906200018b565b83620000ee9190620001ec565b935050505090565b6000620001038262000227565b9150620001108362000227565b9250827fffffffffffffffffffffffffffffffffffffffffffffffffffffffffffffffff0382111562000148576200014762000269565b5b828201905092915050565b6000620001608262000227565b91506200016d8362000227565b92508262000180576200017f62000298565b5b828204905092915050565b6000620001988262000227565b9150620001a58362000227565b9250817fffffffffffffffffffffffffffffffffffffffffffffffffffffffffffffffff0483118215151615620001e157620001e062000269565b5b828202905092915050565b6000620001f98262000227565b9150620002068362000227565b9250828210156200021c576200021b62000269565b5b828203905092915050565b6000819050919050565b60006200023e8262000227565b91506200024b8362000227565b9250826200025e576200025d62000298565b5b828206905092915050565b7f4e487b7100000000000000000000000000000000000000000000000000000000600052601160045260246000fd5b7f4e487b7100000000000000000000000000000000000000000000000000000000600052601260045260246000fd5b610bde80620002d76000396000f3fe608060405234801561001057600080fd5b50600436106100cf5760003560e01c8063975a709d1161008c578063ac4d835111610066578063ac4d835114610212578063ddd1b67e14610242578063e816e87f14610260578063f166cfbd14610290576100cf565b8063975a709d146101aa5780639cf1c8e5146101da578063a6369d77146101f6576100cf565b8063093f5617146100d45780630bfa0e6b146101045780636735e04c1461010e5780636e9a561f1461013e5780638da5cb5b1461015c5780638fcf50ca1461017a575b600080fd5b6100ee60048036038101906100e991906107d8565b6102ae565b6040516100fb919061092f565b60405180910390f35b61010c610328565b005b610128600480360381019061012391906107d8565b6103d3565b604051610135919061092f565b60405180910390f35b610146610467565b60405161015391906109aa565b60405180910390f35b61016461046e565b6040516101719190610914565b60405180910390f35b610194600480360381019061018f91906107d8565b610492565b6040516101a191906109aa565b60405180910390f35b6101c460048036038101906101bf91906107d8565b610514565b6040516101d191906109aa565b60405180910390f35b6101f460048036038101906101ef91906107d8565b61058d565b005b610210600480360381019061020b91906107d8565b61065c565b005b61022c600480360381019061022791906107d8565b610746565b60405161023991906109aa565b60405180910390f35b61024a610779565b60405161025791906109aa565b60405180910390f35b61027a600480360381019061027591906107d8565b6107a9565b604051610287919061092f565b60405180910390f35b6102986107bd565b6040516102a591906109aa565b60405180910390f35b6000806102ba42610492565b90508281116102cd576000915050610323565b6000622820726001856102e09190610ab7565b6102ea9190610a5d565b6001546102f791906109d6565b90506000620d2f00622820728361030e91906109d6565b61031891906109d6565b905080421193505050505b919050565b60008054906101000a900473ffffffffffffffffffffffffffffffffffffffff1673ffffffffffffffffffffffffffffffffffffffff163373ffffffffffffffffffffffffffffffffffffffff16146103b6576040517f08c379a00000000000000000000000000000000000000000000000000000000081526004016103ad9061094a565b60405180910390fd5b6000600360006101000a81548160ff021916908315150217905550565b6000806103df42610492565b90508281116103f2576000915050610462565b6000622820726001856104059190610ab7565b61040f9190610a5d565b60015461041c91906109d6565b90506000620d2f00622820728361043391906109d6565b61043d91906109d6565b905080421115801561045c5750622820728261045991906109d6565b42115b93505050505b919050565b620d2f0081565b60008054906101000a900473ffffffffffffffffffffffffffffffffffffffff1681565b60006001548210156104d9576040517f08c379a00000000000000000000000000000000000000000000000000000000081526004016104d09061098a565b60405180910390fd5b6000622820729050600081600154856104f29190610ab7565b6104fc9190610a2c565b905060018161050b91906109d6565b92505050919050565b6000808211610558576040517f08c379a000000000000000000000000000000000000000000000000000000000815260040161054f9061096a565b60405180910390fd5b60006228207290508060018461056e9190610ab7565b6105789190610a5d565b60015461058591906109d6565b915050919050565b60008054906101000a900473ffffffffffffffffffffffffffffffffffffffff1673ffffffffffffffffffffffffffffffffffffffff163373ffffffffffffffffffffffffffffffffffffffff161461061b576040517f08c379a00000000000000000000000000000000000000000000000000000000081526004016106129061094a565b60405180910390fd5b806001819055507f96d627e9566aff02d6ea9ce880be7c81e81b4c4869abb17528105ad61d59ca098160405161065191906109aa565b60405180910390a150565b60008054906101000a900473ffffffffffffffffffffffffffffffffffffffff1673ffffffffffffffffffffffffffffffffffffffff163373ffffffffffffffffffffffffffffffffffffffff16146106ea576040517f08c379a00000000000000000000000000000000000000000000000000000000081526004016106e19061094a565b60405180910390fd5b806002819055506001600360006101000a81548160ff0219169083151502179055507f1ec20d278a1b76bd5aeaea8cecd19cee27daca62d171ecb9f2808bf4cda521748160405161073b91906109aa565b60405180910390a150565b60008061075283610514565b9050620d2f00622820728261076791906109d6565b61077191906109d6565b915050919050565b6000600360009054906101000a900460ff161561079a5760025490506107a6565b6107a342610492565b90505b90565b6000816107b4610779565b10159050919050565b60015481565b6000813590506107d281610b91565b92915050565b6000602082840312156107ea57600080fd5b60006107f8848285016107c3565b91505092915050565b61080a81610aeb565b82525050565b61081981610afd565b82525050565b600061082c6021836109c5565b91507f4f6e6c79206f776e65722063616e2063616c6c20746869732066756e6374696f60008301527f6e000000000000000000000000000000000000000000000000000000000000006020830152604082019050919050565b6000610892601c836109c5565b91507f4d6f6e7468206d7573742062652067726561746572207468616e2030000000006000830152602082019050919050565b60006108d2601f836109c5565b91507f54696d657374616d70206265666f726520636f6e7472616374207374617274006000830152602082019050919050565b61090e81610b29565b82525050565b60006020820190506109296000830184610801565b92915050565b60006020820190506109446000830184610810565b92915050565b600060208201905081810360008301526109638161081f565b9050919050565b6000602082019050818103600083015261098381610885565b9050919050565b600060208201905081810360008301526109a3816108c5565b9050919050565b60006020820190506109bf6000830184610905565b92915050565b600082825260208201905092915050565b60006109e182610b29565b91506109ec83610b29565b9250827fffffffffffffffffffffffffffffffffffffffffffffffffffffffffffffffff03821115610a2157610a20610b33565b5b828201905092915050565b6000610a3782610b29565b9150610a4283610b29565b925082610a5257610a51610b62565b5b828204905092915050565b6000610a6882610b29565b9150610a7383610b29565b9250817fffffffffffffffffffffffffffffffffffffffffffffffffffffffffffffffff0483118215151615610aac57610aab610b33565b5b828202905092915050565b6000610ac282610b29565b9150610acd83610b29565b925082821015610ae057610adf610b33565b5b828203905092915050565b6000610af682610b09565b9050919050565b60008115159050919050565b600073ffffffffffffffffffffffffffffffffffffffff82169050919050565b6000819050919050565b7f4e487b7100000000000000000000000000000000000000000000000000000000600052601160045260246000fd5b7f4e487b7100000000000000000000000000000000000000000000000000000000600052601260045260246000fd5b610b9a81610b29565b8114610ba557600080fd5b5056fea264697066735822122028b9a45cef8042b32d300a63d48936bafb88b875803189bc6ea966d42eca3a7364736f6c63430008000033",
  "immutableReferences": {},
  "source": "pragma solidity ^0.8.0;\r\n\r\ncontract TimeOracle {\r\n    address public owner;\r\n    uint public contractStartDate;\r\n    uint public constant TOLLERANZA = 10 days;\r\n    uint private customCurrentMonth;\r\n    bool private useCustomMonth;\r\n    \r\n    event ContractStartDateUpdated(uint newStartDate);\r\n    event CurrentMonthSet(uint month);\r\n    \r\n    modifier onlyOwner() {\r\n        require(msg.sender == owner, \"Only owner can call this function\");\r\n        _;\r\n    }\r\n    \r\n    constructor() {\r\n        owner = msg.sender;\r\n        contractStartDate = getFirstOfCurrentMonth();\r\n        useCustomMonth = false;\r\n    }\r\n\r\n    function getCurrentMonth() public view returns (uint) {\r\n        if (useCustomMonth) {\r\n            return customCurrentMonth;\r\n        }\r\n        return getMonthForTimestamp(block.timestamp);\r\n    }\r\n    \r\n    function getMonthForTimestamp(uint timestamp) public view returns (uint) {\r\n        require(timestamp >= contractStartDate, \"Timestamp before contract start\");\r\n        uint secondsPerMonth = 2629746;\r\n        uint monthsSinceStart = (timestamp - contractStartDate) / secondsPerMonth;\r\n        return monthsSinceStart + 1;\r\n    }\r\n    \r\n    function updateContractStartDate(uint newStartDate) external onlyOwner {\r\n        contractStartDate = newStartDate;\r\n        emit ContractStartDateUpdated(newStartDate);\r\n    }\r\n    \r\n    function isPaymentDue(uint month) public view returns (bool) {\r\n        return getCurrentMonth() >= month;\r\n    }\r\n    \r\n    function isPaymentLate(uint month) public view returns (bool) {\r\n        uint currentMonth = getMonthForTimestamp(block.timestamp);\r\n        if (currentMonth <= month) return false;\r\n        uint monthStartTimestamp = contractStartDate + ((month - 1) * 2629746);\r\n        uint gracePeriodEnd = monthStartTimestamp + 2629746 + TOLLERANZA;\r\n        return block.timestamp > gracePeriodEnd;\r\n    }\r\n    \r\n    function isInGracePeriod(uint month) public view returns (bool) {\r\n        uint currentMonth = getMonthForTimestamp(block.timestamp);\r\n        if (currentMonth <= month) return false;\r\n        uint monthStartTimestamp = contractStartDate + ((month - 1) * 2629746);\r\n        uint gracePeriodEnd = monthStartTimestamp + 2629746 + TOLLERANZA;\r\n        return block.timestamp <= gracePeriodEnd && block.timestamp > (monthStartTimestamp + 2629746);\r\n    }\r\n    \r\n    function getFirstOfCurrentMonth() private view returns (uint) {\r\n        uint currentTime = block.timestamp;\r\n        uint secondsPerDay = 86400;\r\n        uint currentDay = (currentTime / secondsPerDay) % 30 + 1;\r\n        return currentTime - ((currentDay - 1) * secondsPerDay);\r\n    }\r\n    \r\n    function setCurrentMonth(uint month) external onlyOwner {\r\n        customCurrentMonth = month;\r\n        useCustomMonth = true;\r\n        emit CurrentMonthSet(month);\r\n    }\r\n    \r\n    function resetToActualTime() external onlyOwner {\r\n        useCustomMonth = false;\r\n    }\r\n    \r\n    function getMonthStartTimestamp(uint month) public view returns (uint) {\r\n        require(month > 0, \"Month must be greater than 0\");\r\n        uint secondsPerMonth = 2629746;\r\n        return contractStartDate + ((month - 1) * secondsPerMonth);\r\n    }\r\n\r\n    function getPaymentDeadline(uint month) public view returns (uint) {\r\n        uint monthStartTimestamp = getMonthStartTimestamp(month);\r\n        return monthStartTimestamp + 2629746 + TOLLERANZA;\r\n    }\r\n}\r\n",
  "sourcePath": "/home/cavas/simple-rent-contract/contracts/TimeOracle.sol",
  "compiler": {
    "name": "solc",
    "version": "0.8.0+commit.c7dfd78e.Emscripten.clang"
  },
  "schemaVersion": "3.4.16",
  "updatedAt": "2025-06-20T10:04:30.401Z",
  "networkType": "ethereum",
  "devdoc": {
    "kind": "dev",
    "methods": {},
    "version": 1
  },
  "userdoc": {
    "kind": "user",
    "methods": {},
    "version": 1
  }
}