{
  "contractName": "TimeOracle",
  "abi": [
    {
      "inputs": [],
      "stateMutability": "nonpayable",
      "type": "constructor"
    },
    {
      "anonymous": false,
      "inputs": [
        {
          "indexed": false,
          "internalType": "uint256",
          "name": "newStartDate",
          "type": "uint256"
        }
      ],
      "name": "ContractStartDateUpdated",
      "type": "event"
    },
    {
      "anonymous": false,
      "inputs": [
        {
          "indexed": false,
          "internalType": "uint256",
          "name": "month",
          "type": "uint256"
        }
      ],
      "name": "CurrentMonthSet",
      "type": "event"
    },
    {
      "inputs": [],
      "name": "TOLLERANZA",
      "outputs": [
        {
          "internalType": "uint256",
          "name": "",
          "type": "uint256"
        }
      ],
      "stateMutability": "view",
      "type": "function",
      "constant": true
    },
    {
      "inputs": [],
      "name": "contractStartDate",
      "outputs": [
        {
          "internalType": "uint256",
          "name": "",
          "type": "uint256"
        }
      ],
      "stateMutability": "view",
      "type": "function",
      "constant": true
    },
    {
      "inputs": [],
      "name": "owner",
      "outputs": [
        {
          "internalType": "address",
          "name": "",
          "type": "address"
        }
      ],
      "stateMutability": "view",
      "type": "function",
      "constant": true
    },
    {
      "inputs": [],
      "name": "getCurrentMonth",
      "outputs": [
        {
          "internalType": "uint256",
          "name": "",
          "type": "uint256"
        }
      ],
      "stateMutability": "view",
      "type": "function",
      "constant": true
    },
    {
      "inputs": [
        {
          "internalType": "uint256",
          "name": "timestamp",
          "type": "uint256"
        }
      ],
      "name": "getMonthForTimestamp",
      "outputs": [
        {
          "internalType": "uint256",
          "name": "",
          "type": "uint256"
        }
      ],
      "stateMutability": "view",
      "type": "function",
      "constant": true
    },
    {
      "inputs": [
        {
          "internalType": "uint256",
          "name": "newStartDate",
          "type": "uint256"
        }
      ],
      "name": "updateContractStartDate",
      "outputs": [],
      "stateMutability": "nonpayable",
      "type": "function"
    },
    {
      "inputs": [
        {
          "internalType": "uint256",
          "name": "month",
          "type": "uint256"
        }
      ],
      "name": "isPaymentDue",
      "outputs": [
        {
          "internalType": "bool",
          "name": "",
          "type": "bool"
        }
      ],
      "stateMutability": "view",
      "type": "function",
      "constant": true
    },
    {
      "inputs": [
        {
          "internalType": "uint256",
          "name": "month",
          "type": "uint256"
        }
      ],
      "name": "isPaymentLate",
      "outputs": [
        {
          "internalType": "bool",
          "name": "",
          "type": "bool"
        }
      ],
      "stateMutability": "view",
      "type": "function",
      "constant": true
    },
    {
      "inputs": [
        {
          "internalType": "uint256",
          "name": "month",
          "type": "uint256"
        }
      ],
      "name": "isInGracePeriod",
      "outputs": [
        {
          "internalType": "bool",
          "name": "",
          "type": "bool"
        }
      ],
      "stateMutability": "view",
      "type": "function",
      "constant": true
    },
    {
      "inputs": [
        {
          "internalType": "uint256",
          "name": "month",
          "type": "uint256"
        }
      ],
      "name": "setCurrentMonth",
      "outputs": [],
      "stateMutability": "nonpayable",
      "type": "function"
    },
    {
      "inputs": [],
      "name": "resetToActualTime",
      "outputs": [],
      "stateMutability": "nonpayable",
      "type": "function"
    }
  ],
  "bytecode": "0x60806040523480156200001157600080fd5b50336000806101000a81548173ffffffffffffffffffffffffffffffffffffffff021916908373ffffffffffffffffffffffffffffffffffffffff160217905550620000626200008960201b60201c565b6001819055506000600360006101000a81548160ff021916908315150217905550620002c7565b600080429050600062015180905060006001601e8385620000ab919062000153565b620000b7919062000231565b620000c39190620000f6565b905081600182620000d59190620001ec565b620000e191906200018b565b83620000ee9190620001ec565b935050505090565b6000620001038262000227565b9150620001108362000227565b9250827fffffffffffffffffffffffffffffffffffffffffffffffffffffffffffffffff0382111562000148576200014762000269565b5b828201905092915050565b6000620001608262000227565b91506200016d8362000227565b92508262000180576200017f62000298565b5b828204905092915050565b6000620001988262000227565b9150620001a58362000227565b9250817fffffffffffffffffffffffffffffffffffffffffffffffffffffffffffffffff0483118215151615620001e157620001e062000269565b5b828202905092915050565b6000620001f98262000227565b9150620002068362000227565b9250828210156200021c576200021b62000269565b5b828203905092915050565b6000819050919050565b60006200023e8262000227565b91506200024b8362000227565b9250826200025e576200025d62000298565b5b828206905092915050565b7f4e487b7100000000000000000000000000000000000000000000000000000000600052601160045260246000fd5b7f4e487b7100000000000000000000000000000000000000000000000000000000600052601260045260246000fd5b610a4c80620002d76000396000f3fe608060405234801561001057600080fd5b50600436106100a95760003560e01c80638fcf50ca116100715780638fcf50ca146101545780639cf1c8e514610184578063a6369d77146101a0578063ddd1b67e146101bc578063e816e87f146101da578063f166cfbd1461020a576100a9565b8063093f5617146100ae5780630bfa0e6b146100de5780636735e04c146100e85780636e9a561f146101185780638da5cb5b14610136575b600080fd5b6100c860048036038101906100c391906106a6565b610228565b6040516100d591906107bd565b60405180910390f35b6100e66102a2565b005b61010260048036038101906100fd91906106a6565b61034d565b60405161010f91906107bd565b60405180910390f35b6101206103e1565b60405161012d9190610818565b60405180910390f35b61013e6103e8565b60405161014b91906107a2565b60405180910390f35b61016e600480360381019061016991906106a6565b61040c565b60405161017b9190610818565b60405180910390f35b61019e600480360381019061019991906106a6565b61048e565b005b6101ba60048036038101906101b591906106a6565b61055d565b005b6101c4610647565b6040516101d19190610818565b60405180910390f35b6101f460048036038101906101ef91906106a6565b610677565b60405161020191906107bd565b60405180910390f35b61021261068b565b60405161021f9190610818565b60405180910390f35b6000806102344261040c565b905082811161024757600091505061029d565b60006228207260018561025a9190610925565b61026491906108cb565b6001546102719190610844565b90506000620d2f0062282072836102889190610844565b6102929190610844565b905080421193505050505b919050565b60008054906101000a900473ffffffffffffffffffffffffffffffffffffffff1673ffffffffffffffffffffffffffffffffffffffff163373ffffffffffffffffffffffffffffffffffffffff1614610330576040517f08c379a0000000000000000000000000000000000000000000000000000000008152600401610327906107d8565b60405180910390fd5b6000600360006101000a81548160ff021916908315150217905550565b6000806103594261040c565b905082811161036c5760009150506103dc565b60006228207260018561037f9190610925565b61038991906108cb565b6001546103969190610844565b90506000620d2f0062282072836103ad9190610844565b6103b79190610844565b90508042111580156103d6575062282072826103d39190610844565b42115b93505050505b919050565b620d2f0081565b60008054906101000a900473ffffffffffffffffffffffffffffffffffffffff1681565b6000600154821015610453576040517f08c379a000000000000000000000000000000000000000000000000000000000815260040161044a906107f8565b60405180910390fd5b60006228207290506000816001548561046c9190610925565b610476919061089a565b90506001816104859190610844565b92505050919050565b60008054906101000a900473ffffffffffffffffffffffffffffffffffffffff1673ffffffffffffffffffffffffffffffffffffffff163373ffffffffffffffffffffffffffffffffffffffff161461051c576040517f08c379a0000000000000000000000000000000000000000000000000000000008152600401610513906107d8565b60405180910390fd5b806001819055507f96d627e9566aff02d6ea9ce880be7c81e81b4c4869abb17528105ad61d59ca09816040516105529190610818565b60405180910390a150565b60008054906101000a900473ffffffffffffffffffffffffffffffffffffffff1673ffffffffffffffffffffffffffffffffffffffff163373ffffffffffffffffffffffffffffffffffffffff16146105eb576040517f08c379a00000000000000000000000000000000000000000000000000000000081526004016105e2906107d8565b60405180910390fd5b806002819055506001600360006101000a81548160ff0219169083151502179055507f1ec20d278a1b76bd5aeaea8cecd19cee27daca62d171ecb9f2808bf4cda521748160405161063c9190610818565b60405180910390a150565b6000600360009054906101000a900460ff1615610668576002549050610674565b6106714261040c565b90505b90565b600081610682610647565b10159050919050565b60015481565b6000813590506106a0816109ff565b92915050565b6000602082840312156106b857600080fd5b60006106c684828501610691565b91505092915050565b6106d881610959565b82525050565b6106e78161096b565b82525050565b60006106fa602183610833565b91507f4f6e6c79206f776e65722063616e2063616c6c20746869732066756e6374696f60008301527f6e000000000000000000000000000000000000000000000000000000000000006020830152604082019050919050565b6000610760601f83610833565b91507f54696d657374616d70206265666f726520636f6e7472616374207374617274006000830152602082019050919050565b61079c81610997565b82525050565b60006020820190506107b760008301846106cf565b92915050565b60006020820190506107d260008301846106de565b92915050565b600060208201905081810360008301526107f1816106ed565b9050919050565b6000602082019050818103600083015261081181610753565b9050919050565b600060208201905061082d6000830184610793565b92915050565b600082825260208201905092915050565b600061084f82610997565b915061085a83610997565b9250827fffffffffffffffffffffffffffffffffffffffffffffffffffffffffffffffff0382111561088f5761088e6109a1565b5b828201905092915050565b60006108a582610997565b91506108b083610997565b9250826108c0576108bf6109d0565b5b828204905092915050565b60006108d682610997565b91506108e183610997565b9250817fffffffffffffffffffffffffffffffffffffffffffffffffffffffffffffffff048311821515161561091a576109196109a1565b5b828202905092915050565b600061093082610997565b915061093b83610997565b92508282101561094e5761094d6109a1565b5b828203905092915050565b600061096482610977565b9050919050565b60008115159050919050565b600073ffffffffffffffffffffffffffffffffffffffff82169050919050565b6000819050919050565b7f4e487b7100000000000000000000000000000000000000000000000000000000600052601160045260246000fd5b7f4e487b7100000000000000000000000000000000000000000000000000000000600052601260045260246000fd5b610a0881610997565b8114610a1357600080fd5b5056fea26469706673582212201104ab22151be101559afd21e4dd527314da0dd9424e04ff707bb3c43a5a8b3e64736f6c63430008000033",
  "immutableReferences": {},
  "source": "// SPDX-License-Identifier: MIT\r\npragma solidity ^0.8.0;\r\n\r\ncontract TimeOracle {\r\n    address public owner;\r\n    uint public contractStartDate;\r\n    uint public constant TOLLERANZA = 10 days;\r\n    uint private customCurrentMonth;\r\n    bool private useCustomMonth;\r\n    \r\n    event ContractStartDateUpdated(uint newStartDate);\r\n    event CurrentMonthSet(uint month);\r\n    \r\n    modifier onlyOwner() {\r\n        require(msg.sender == owner, \"Only owner can call this function\");\r\n        _;\r\n    }\r\n    \r\n    constructor() {\r\n        owner = msg.sender;\r\n        contractStartDate = getFirstOfCurrentMonth();\r\n        useCustomMonth = false;\r\n    }\r\n\r\n    function getCurrentMonth() public view returns (uint) {\r\n        if (useCustomMonth) {\r\n            return customCurrentMonth;\r\n        }\r\n        return getMonthForTimestamp(block.timestamp);\r\n    }\r\n    \r\n    function getMonthForTimestamp(uint timestamp) public view returns (uint) {\r\n        require(timestamp >= contractStartDate, \"Timestamp before contract start\");\r\n        uint secondsPerMonth = 2629746;\r\n        uint monthsSinceStart = (timestamp - contractStartDate) / secondsPerMonth;\r\n        return monthsSinceStart + 1;\r\n    }\r\n    \r\n    function updateContractStartDate(uint newStartDate) external onlyOwner {\r\n        contractStartDate = newStartDate;\r\n        emit ContractStartDateUpdated(newStartDate);\r\n    }\r\n    \r\n    function isPaymentDue(uint month) public view returns (bool) {\r\n        return getCurrentMonth() >= month;\r\n    }\r\n    \r\n    function isPaymentLate(uint month) public view returns (bool) {\r\n        uint currentMonth = getMonthForTimestamp(block.timestamp);\r\n        if (currentMonth <= month) return false;\r\n        uint monthStartTimestamp = contractStartDate + ((month - 1) * 2629746);\r\n        uint gracePeriodEnd = monthStartTimestamp + 2629746 + TOLLERANZA;\r\n        return block.timestamp > gracePeriodEnd;\r\n    }\r\n    \r\n    function isInGracePeriod(uint month) public view returns (bool) {\r\n        uint currentMonth = getMonthForTimestamp(block.timestamp);\r\n        if (currentMonth <= month) return false;\r\n        uint monthStartTimestamp = contractStartDate + ((month - 1) * 2629746);\r\n        uint gracePeriodEnd = monthStartTimestamp + 2629746 + TOLLERANZA;\r\n        return block.timestamp <= gracePeriodEnd && block.timestamp > (monthStartTimestamp + 2629746);\r\n    }\r\n    \r\n    function getFirstOfCurrentMonth() private view returns (uint) {\r\n        uint currentTime = block.timestamp;\r\n        uint secondsPerDay = 86400;\r\n        uint currentDay = (currentTime / secondsPerDay) % 30 + 1;\r\n        return currentTime - ((currentDay - 1) * secondsPerDay);\r\n    }\r\n    \r\n    function setCurrentMonth(uint month) external onlyOwner {\r\n        customCurrentMonth = month;\r\n        useCustomMonth = true;\r\n        emit CurrentMonthSet(month);    }\r\n    \r\n    function resetToActualTime() external onlyOwner {\r\n        useCustomMonth = false;\r\n    }\r\n}\r\n",
  "sourcePath": "/home/cavas/simple-rent-contract/contracts/TimeOracle.sol",
  "compiler": {
    "name": "solc",
    "version": "0.8.0+commit.c7dfd78e.Emscripten.clang"
  },
  "schemaVersion": "3.4.16",
  "updatedAt": "2025-06-20T20:27:24.660Z",
  "networkType": "ethereum",
  "devdoc": {
    "kind": "dev",
    "methods": {},
    "version": 1
  },
  "userdoc": {
    "kind": "user",
    "methods": {},
    "version": 1
  }
}