{
  "contractName": "TimeOracle",
  "abi": [
    {
      "inputs": [],
      "stateMutability": "nonpayable",
      "type": "constructor"
    },
    {
      "anonymous": false,
      "inputs": [
        {
          "indexed": false,
          "internalType": "uint256",
          "name": "newStartDate",
          "type": "uint256"
        }
      ],
      "name": "ContractStartDateUpdated",
      "type": "event"
    },
    {
      "anonymous": false,
      "inputs": [
        {
          "indexed": false,
          "internalType": "uint256",
          "name": "month",
          "type": "uint256"
        }
      ],
      "name": "CurrentMonthSet",
      "type": "event"
    },
    {
      "inputs": [],
      "name": "TOLLERANZA",
      "outputs": [
        {
          "internalType": "uint256",
          "name": "",
          "type": "uint256"
        }
      ],
      "stateMutability": "view",
      "type": "function",
      "constant": true
    },
    {
      "inputs": [],
      "name": "contractStartDate",
      "outputs": [
        {
          "internalType": "uint256",
          "name": "",
          "type": "uint256"
        }
      ],
      "stateMutability": "view",
      "type": "function",
      "constant": true
    },
    {
      "inputs": [],
      "name": "owner",
      "outputs": [
        {
          "internalType": "address",
          "name": "",
          "type": "address"
        }
      ],
      "stateMutability": "view",
      "type": "function",
      "constant": true
    },
    {
      "inputs": [],
      "name": "getCurrentMonth",
      "outputs": [
        {
          "internalType": "uint256",
          "name": "",
          "type": "uint256"
        }
      ],
      "stateMutability": "view",
      "type": "function",
      "constant": true
    },
    {
      "inputs": [
        {
          "internalType": "uint256",
          "name": "timestamp",
          "type": "uint256"
        }
      ],
      "name": "getMonthForTimestamp",
      "outputs": [
        {
          "internalType": "uint256",
          "name": "",
          "type": "uint256"
        }
      ],
      "stateMutability": "view",
      "type": "function",
      "constant": true
    },
    {
      "inputs": [
        {
          "internalType": "uint256",
          "name": "newStartDate",
          "type": "uint256"
        }
      ],
      "name": "updateContractStartDate",
      "outputs": [],
      "stateMutability": "nonpayable",
      "type": "function"
    },
    {
      "inputs": [
        {
          "internalType": "uint256",
          "name": "month",
          "type": "uint256"
        }
      ],
      "name": "isPaymentDue",
      "outputs": [
        {
          "internalType": "bool",
          "name": "",
          "type": "bool"
        }
      ],
      "stateMutability": "view",
      "type": "function",
      "constant": true
    },
    {
      "inputs": [
        {
          "internalType": "uint256",
          "name": "month",
          "type": "uint256"
        }
      ],
      "name": "isPaymentLate",
      "outputs": [
        {
          "internalType": "bool",
          "name": "",
          "type": "bool"
        }
      ],
      "stateMutability": "view",
      "type": "function",
      "constant": true
    },
    {
      "inputs": [
        {
          "internalType": "uint256",
          "name": "month",
          "type": "uint256"
        }
      ],
      "name": "isInGracePeriod",
      "outputs": [
        {
          "internalType": "bool",
          "name": "",
          "type": "bool"
        }
      ],
      "stateMutability": "view",
      "type": "function",
      "constant": true
    },
    {
      "inputs": [
        {
          "internalType": "uint256",
          "name": "month",
          "type": "uint256"
        }
      ],
      "name": "setCurrentMonth",
      "outputs": [],
      "stateMutability": "nonpayable",
      "type": "function"
    },
    {
      "inputs": [],
      "name": "resetToActualTime",
      "outputs": [],
      "stateMutability": "nonpayable",
      "type": "function"
    },
    {
      "inputs": [
        {
          "internalType": "uint256",
          "name": "month",
          "type": "uint256"
        }
      ],
      "name": "getMonthStartTimestamp",
      "outputs": [
        {
          "internalType": "uint256",
          "name": "",
          "type": "uint256"
        }
      ],
      "stateMutability": "view",
      "type": "function",
      "constant": true
    },
    {
      "inputs": [
        {
          "internalType": "uint256",
          "name": "month",
          "type": "uint256"
        }
      ],
      "name": "getPaymentDeadline",
      "outputs": [
        {
          "internalType": "uint256",
          "name": "",
          "type": "uint256"
        }
      ],
      "stateMutability": "view",
      "type": "function",
      "constant": true
    },
    {
      "inputs": [
        {
          "internalType": "uint256",
          "name": "timestamp",
          "type": "uint256"
        }
      ],
      "name": "setTimestamp",
      "outputs": [],
      "stateMutability": "nonpayable",
      "type": "function"
    }
  ],
  "bytecode": "0x60806040523480156200001157600080fd5b50336000806101000a81548173ffffffffffffffffffffffffffffffffffffffff021916908373ffffffffffffffffffffffffffffffffffffffff160217905550620000626200008960201b60201c565b6001819055506000600360006101000a81548160ff021916908315150217905550620002c7565b600080429050600062015180905060006001601e8385620000ab919062000153565b620000b7919062000231565b620000c39190620000f6565b905081600182620000d59190620001ec565b620000e191906200018b565b83620000ee9190620001ec565b935050505090565b6000620001038262000227565b9150620001108362000227565b9250827fffffffffffffffffffffffffffffffffffffffffffffffffffffffffffffffff0382111562000148576200014762000269565b5b828201905092915050565b6000620001608262000227565b91506200016d8362000227565b92508262000180576200017f62000298565b5b828204905092915050565b6000620001988262000227565b9150620001a58362000227565b9250817fffffffffffffffffffffffffffffffffffffffffffffffffffffffffffffffff0483118215151615620001e157620001e062000269565b5b828202905092915050565b6000620001f98262000227565b9150620002068362000227565b9250828210156200021c576200021b62000269565b5b828203905092915050565b6000819050919050565b60006200023e8262000227565b91506200024b8362000227565b9250826200025e576200025d62000298565b5b828206905092915050565b7f4e487b7100000000000000000000000000000000000000000000000000000000600052601160045260246000fd5b7f4e487b7100000000000000000000000000000000000000000000000000000000600052601260045260246000fd5b610ca680620002d76000396000f3fe608060405234801561001057600080fd5b50600436106100ea5760003560e01c80639cf1c8e51161008c578063ac4d835111610066578063ac4d835114610249578063ddd1b67e14610279578063e816e87f14610297578063f166cfbd146102c7576100ea565b80639cf1c8e5146101f5578063a0a2b57314610211578063a6369d771461022d576100ea565b80636e9a561f116100c85780636e9a561f146101595780638da5cb5b146101775780638fcf50ca14610195578063975a709d146101c5576100ea565b8063093f5617146100ef5780630bfa0e6b1461011f5780636735e04c14610129575b600080fd5b610109600480360381019061010491906108a0565b6102e5565b60405161011691906109f7565b60405180910390f35b61012761035f565b005b610143600480360381019061013e91906108a0565b61040a565b60405161015091906109f7565b60405180910390f35b61016161049e565b60405161016e9190610a72565b60405180910390f35b61017f6104a5565b60405161018c91906109dc565b60405180910390f35b6101af60048036038101906101aa91906108a0565b6104c9565b6040516101bc9190610a72565b60405180910390f35b6101df60048036038101906101da91906108a0565b61054b565b6040516101ec9190610a72565b60405180910390f35b61020f600480360381019061020a91906108a0565b6105c4565b005b61022b600480360381019061022691906108a0565b610693565b005b610247600480360381019061024291906108a0565b610724565b005b610263600480360381019061025e91906108a0565b61080e565b6040516102709190610a72565b60405180910390f35b610281610841565b60405161028e9190610a72565b60405180910390f35b6102b160048036038101906102ac91906108a0565b610871565b6040516102be91906109f7565b60405180910390f35b6102cf610885565b6040516102dc9190610a72565b60405180910390f35b6000806102f1426104c9565b905082811161030457600091505061035a565b6000622820726001856103179190610b7f565b6103219190610b25565b60015461032e9190610a9e565b90506000620d2f0062282072836103459190610a9e565b61034f9190610a9e565b905080421193505050505b919050565b60008054906101000a900473ffffffffffffffffffffffffffffffffffffffff1673ffffffffffffffffffffffffffffffffffffffff163373ffffffffffffffffffffffffffffffffffffffff16146103ed576040517f08c379a00000000000000000000000000000000000000000000000000000000081526004016103e490610a12565b60405180910390fd5b6000600360006101000a81548160ff021916908315150217905550565b600080610416426104c9565b9050828111610429576000915050610499565b60006228207260018561043c9190610b7f565b6104469190610b25565b6001546104539190610a9e565b90506000620d2f00622820728361046a9190610a9e565b6104749190610a9e565b9050804211158015610493575062282072826104909190610a9e565b42115b93505050505b919050565b620d2f0081565b60008054906101000a900473ffffffffffffffffffffffffffffffffffffffff1681565b6000600154821015610510576040517f08c379a000000000000000000000000000000000000000000000000000000000815260040161050790610a52565b60405180910390fd5b6000622820729050600081600154856105299190610b7f565b6105339190610af4565b90506001816105429190610a9e565b92505050919050565b600080821161058f576040517f08c379a000000000000000000000000000000000000000000000000000000000815260040161058690610a32565b60405180910390fd5b6000622820729050806001846105a59190610b7f565b6105af9190610b25565b6001546105bc9190610a9e565b915050919050565b60008054906101000a900473ffffffffffffffffffffffffffffffffffffffff1673ffffffffffffffffffffffffffffffffffffffff163373ffffffffffffffffffffffffffffffffffffffff1614610652576040517f08c379a000000000000000000000000000000000000000000000000000000000815260040161064990610a12565b60405180910390fd5b806001819055507f96d627e9566aff02d6ea9ce880be7c81e81b4c4869abb17528105ad61d59ca09816040516106889190610a72565b60405180910390a150565b60008054906101000a900473ffffffffffffffffffffffffffffffffffffffff1673ffffffffffffffffffffffffffffffffffffffff163373ffffffffffffffffffffffffffffffffffffffff1614610721576040517f08c379a000000000000000000000000000000000000000000000000000000000815260040161071890610a12565b60405180910390fd5b50565b60008054906101000a900473ffffffffffffffffffffffffffffffffffffffff1673ffffffffffffffffffffffffffffffffffffffff163373ffffffffffffffffffffffffffffffffffffffff16146107b2576040517f08c379a00000000000000000000000000000000000000000000000000000000081526004016107a990610a12565b60405180910390fd5b806002819055506001600360006101000a81548160ff0219169083151502179055507f1ec20d278a1b76bd5aeaea8cecd19cee27daca62d171ecb9f2808bf4cda52174816040516108039190610a72565b60405180910390a150565b60008061081a8361054b565b9050620d2f00622820728261082f9190610a9e565b6108399190610a9e565b915050919050565b6000600360009054906101000a900460ff161561086257600254905061086e565b61086b426104c9565b90505b90565b60008161087c610841565b10159050919050565b60015481565b60008135905061089a81610c59565b92915050565b6000602082840312156108b257600080fd5b60006108c08482850161088b565b91505092915050565b6108d281610bb3565b82525050565b6108e181610bc5565b82525050565b60006108f4602183610a8d565b91507f4f6e6c79206f776e65722063616e2063616c6c20746869732066756e6374696f60008301527f6e000000000000000000000000000000000000000000000000000000000000006020830152604082019050919050565b600061095a601c83610a8d565b91507f4d6f6e7468206d7573742062652067726561746572207468616e2030000000006000830152602082019050919050565b600061099a601f83610a8d565b91507f54696d657374616d70206265666f726520636f6e7472616374207374617274006000830152602082019050919050565b6109d681610bf1565b82525050565b60006020820190506109f160008301846108c9565b92915050565b6000602082019050610a0c60008301846108d8565b92915050565b60006020820190508181036000830152610a2b816108e7565b9050919050565b60006020820190508181036000830152610a4b8161094d565b9050919050565b60006020820190508181036000830152610a6b8161098d565b9050919050565b6000602082019050610a8760008301846109cd565b92915050565b600082825260208201905092915050565b6000610aa982610bf1565b9150610ab483610bf1565b9250827fffffffffffffffffffffffffffffffffffffffffffffffffffffffffffffffff03821115610ae957610ae8610bfb565b5b828201905092915050565b6000610aff82610bf1565b9150610b0a83610bf1565b925082610b1a57610b19610c2a565b5b828204905092915050565b6000610b3082610bf1565b9150610b3b83610bf1565b9250817fffffffffffffffffffffffffffffffffffffffffffffffffffffffffffffffff0483118215151615610b7457610b73610bfb565b5b828202905092915050565b6000610b8a82610bf1565b9150610b9583610bf1565b925082821015610ba857610ba7610bfb565b5b828203905092915050565b6000610bbe82610bd1565b9050919050565b60008115159050919050565b600073ffffffffffffffffffffffffffffffffffffffff82169050919050565b6000819050919050565b7f4e487b7100000000000000000000000000000000000000000000000000000000600052601160045260246000fd5b7f4e487b7100000000000000000000000000000000000000000000000000000000600052601260045260246000fd5b610c6281610bf1565b8114610c6d57600080fd5b5056fea2646970667358221220ad3d87c92143900314ba7af81b6f7fd537a4cb7e9852ca3e062b33a1f1e54d3064736f6c63430008000033",
  "immutableReferences": {},
  "source": "pragma solidity ^0.8.0;\r\n\r\ncontract TimeOracle {\r\n    address public owner;\r\n    uint public contractStartDate;\r\n    uint public constant TOLLERANZA = 10 days;\r\n    uint private customCurrentMonth;\r\n    bool private useCustomMonth;\r\n    \r\n    event ContractStartDateUpdated(uint newStartDate);\r\n    event CurrentMonthSet(uint month);\r\n    \r\n    modifier onlyOwner() {\r\n        require(msg.sender == owner, \"Only owner can call this function\");\r\n        _;\r\n    }\r\n    \r\n    constructor() {\r\n        owner = msg.sender;\r\n        contractStartDate = getFirstOfCurrentMonth();\r\n        useCustomMonth = false;\r\n    }\r\n\r\n    function getCurrentMonth() public view returns (uint) {\r\n        if (useCustomMonth) {\r\n            return customCurrentMonth;\r\n        }\r\n        return getMonthForTimestamp(block.timestamp);\r\n    }\r\n    \r\n    function getMonthForTimestamp(uint timestamp) public view returns (uint) {\r\n        require(timestamp >= contractStartDate, \"Timestamp before contract start\");\r\n        uint secondsPerMonth = 2629746;\r\n        uint monthsSinceStart = (timestamp - contractStartDate) / secondsPerMonth;\r\n        return monthsSinceStart + 1;\r\n    }\r\n    \r\n    function updateContractStartDate(uint newStartDate) external onlyOwner {\r\n        contractStartDate = newStartDate;\r\n        emit ContractStartDateUpdated(newStartDate);\r\n    }\r\n    \r\n    function isPaymentDue(uint month) public view returns (bool) {\r\n        return getCurrentMonth() >= month;\r\n    }\r\n    \r\n    function isPaymentLate(uint month) public view returns (bool) {\r\n        uint currentMonth = getMonthForTimestamp(block.timestamp);\r\n        if (currentMonth <= month) return false;\r\n        uint monthStartTimestamp = contractStartDate + ((month - 1) * 2629746);\r\n        uint gracePeriodEnd = monthStartTimestamp + 2629746 + TOLLERANZA;\r\n        return block.timestamp > gracePeriodEnd;\r\n    }\r\n    \r\n    function isInGracePeriod(uint month) public view returns (bool) {\r\n        uint currentMonth = getMonthForTimestamp(block.timestamp);\r\n        if (currentMonth <= month) return false;\r\n        uint monthStartTimestamp = contractStartDate + ((month - 1) * 2629746);\r\n        uint gracePeriodEnd = monthStartTimestamp + 2629746 + TOLLERANZA;\r\n        return block.timestamp <= gracePeriodEnd && block.timestamp > (monthStartTimestamp + 2629746);\r\n    }\r\n    \r\n    function getFirstOfCurrentMonth() private view returns (uint) {\r\n        uint currentTime = block.timestamp;\r\n        uint secondsPerDay = 86400;\r\n        uint currentDay = (currentTime / secondsPerDay) % 30 + 1;\r\n        return currentTime - ((currentDay - 1) * secondsPerDay);\r\n    }\r\n    \r\n    function setCurrentMonth(uint month) external onlyOwner {\r\n        customCurrentMonth = month;\r\n        useCustomMonth = true;\r\n        emit CurrentMonthSet(month);\r\n    }\r\n    \r\n    function resetToActualTime() external onlyOwner {\r\n        useCustomMonth = false;\r\n    }\r\n    \r\n    // Get timestamp for the start of a specific month\r\n    function getMonthStartTimestamp(uint month) public view returns (uint) {\r\n        require(month > 0, \"Month must be greater than 0\");\r\n        uint secondsPerMonth = 2629746;\r\n        return contractStartDate + ((month - 1) * secondsPerMonth);\r\n    }\r\n    \r\n    // Get deadline timestamp for a specific month (including grace period)\r\n    function getPaymentDeadline(uint month) public view returns (uint) {\r\n        uint monthStartTimestamp = getMonthStartTimestamp(month);\r\n        return monthStartTimestamp + 2629746 + TOLLERANZA;\r\n    }\r\n    \r\n    // Set a specific timestamp for testing purposes\r\n    function setTimestamp(uint timestamp) external onlyOwner {\r\n        // This function would be used in tests but has no effect in production\r\n        // since block.timestamp can't be manipulated\r\n        // It's included here for interface compatibility with test mocks\r\n    }\r\n}\r\n",
  "sourcePath": "/home/cavas/simple-rent-contract/contracts/TimeOracle.sol",
  "compiler": {
    "name": "solc",
    "version": "0.8.0+commit.c7dfd78e.Emscripten.clang"
  },
  "schemaVersion": "3.4.16",
  "updatedAt": "2025-06-20T09:27:34.328Z",
  "networkType": "ethereum",
  "devdoc": {
    "kind": "dev",
    "methods": {},
    "version": 1
  },
  "userdoc": {
    "kind": "user",
    "methods": {},
    "version": 1
  }
}